:020000040800F2
:10000000008000208D6A0008792F00087D2F0008ED
:10001000812F0008852F0008892F000800000000AC
:10002000000000000000000000000000355700083C
:100030008D2F000800000000F957000851580008F3
:10004000E16A0008E16A0008E16A0008E16A000864
:10005000E16A0008E16A0008E16A0008E16A000854
:10006000E16A0008E16A0008E16A0008E16A000844
:10007000E16A0008E16A0008E16A0008E16A000834
:10008000E16A0008E16A0008E16A0008E16A000824
:10009000E16A0008E16A0008E16A0008E16A000814
:1000A000E16A0008E16A0008E16A0008E16A000804
:1000B000E16A0008E16A0008E16A0008E16A0008F4
:1000C000E16A0008E16A0008E16A0008E16A0008E4
:1000D000E16A0008952F0008E16A0008E16A00085B
:1000E000E16A0008E16A0008E16A0008E16A0008C4
:1000F000E16A0008E16A000800000000000000005A
:100100000000000000000000E16A0008E16A000849
:100110000000000000000000E16A0008E16A000839
:10012000E16A0008E16A0008E16A0008E16A000883
:10013000E16A0008E16A0008E16A0008E16A000873
:10014000E16A00080000000000000000000000005C
:10015000000000000000000000000000000000009F
:100160000000000000000000E16A0008912F000874
:10017000D52F000800000000E16A00080000000020
:04018000E16A000828
:1001840081F0004102E000BF83F0004330B54FEA44
:1001940041044FEA430594EA050F08BF90EA020FB1
:1001A4001FBF54EA000C55EA020C7FEA645C7FEA44
:1001B400655C00F0E2804FEA5454D4EB5555B8BF67
:1001C4006D420CDD2C4480EA020281EA030382EAD8
:1001D400000083EA010180EA020281EA0303362D6A
:1001E40088BF30BD11F0004F4FEA01314FF4801C3D
:1001F4004CEA113102D0404261EB410113F0004F4F
:100204004FEA03334CEA133302D0524263EB430305
:1002140094EA050F00F0A780A4F10104D5F1200EA3
:100224000DDB02FA0EFC22FA05F2801841F10001FE
:1002340003FA0EF2801843FA05F359410EE0A5F1D2
:1002440020050EF1200E012A03FA0EFC28BF4CF003
:10025400020C43FA05F3C01851EBE37101F00045B9
:1002640007D54FF0000EDCF1000C7EEB00006EEBC6
:100274000101B1F5801F1BD3B1F5001F0CD3490850
:100284005FEA30004FEA3C0C04F101044FEA4452A7
:1002940012F5800F80F09A80BCF1004F08BF5FEA2E
:1002A400500C50F1000041EB045141EA050130BD0E
:1002B4005FEA4C0C404141EB010111F4801FA4F1B1
:1002C4000104E9D191F0000F04BF01460020B1FA06
:1002D40081F308BF2033A3F10B03B3F120020CDA3E
:1002E4000C3208DD02F1140CC2F10C0201FA0CF01C
:1002F40021FA02F10CE002F11402D8BFC2F1200C81
:1003040001FA02F120FA0CFCDCBF41EA0C01904036
:10031400E41AA2BF01EB0451294330BD6FEA04047F
:100324001F3C1CDA0C340EDC04F11404C4F120026A
:1003340020FA04F001FA02F340EA030021FA04F37C
:1003440045EA030130BDC4F10C04C4F1200220FAD3
:1003540002F001FA04F340EA0300294630BD21FA11
:1003640004F0294630BD94F0000F83F4801306BFD7
:1003740081F480110134013D4EE77FEA645C18BFCB
:100384007FEA655C29D094EA050F08BF90EA020F62
:1003940005D054EA000C04BF1946104630BD91EA5A
:1003A400030F1EBF0021002030BD5FEA545C05D15D
:1003B4004000494128BF41F0004130BD14F580049C
:1003C4003CBF01F5801130BD01F0004545F0FE4110
:1003D40041F470014FF0000030BD7FEA645C1ABF45
:1003E400194610467FEA655C1CBF0B46024650EA7C
:1003F400013406BF52EA033591EA030F41F40021A8
:1004040030BD00BF90F0000F04BF0021704730B52D
:100414004FF4806404F132044FF000054FF0000102
:1004240050E700BF90F0000F04BF0021704730B5C3
:100434004FF4806404F1320410F0004548BF404298
:100444004FF000013EE700BF42004FEAE2014FEAED
:1004540031014FEA02701FBF12F07F4393F07F4FC8
:1004640081F06051704792F0000F14BF93F07F4FFA
:10047400704730B54FF4607401F0004521F000413D
:1004840020E700BF50EA010208BF704730B54FF0C3
:1004940000050AE050EA010208BF704730B511F0C8
:1004A400004502D5404261EB41014FF4806404F100
:1004B40032045FEA915C3FF4DCAE4FF003025FEA82
:1004C400DC0C18BF03325FEADC0C18BF033202EB0A
:1004D400DC02C2F1200300FA03FC20FA02F001FA64
:1004E40003FE40EA0E0021FA02F11444C1E600BF03
:1004F40080B489B000AFF860B9607A60FB68FB61D2
:10050400BB68BB617B68032B23D9FA69BB691343BE
:1005140003F00303002B1CD1FB697B61BB693B61C6
:100524000FE07B691A683B691B689A4200D00BE0B4
:100534007B6904337B613B6904333B617B68043B27
:100544007B607B68032BECD87B69FB613B69BB61F7
:1005540013E012E0FB691A78BB691B789A4206D053
:10056400FB691B781A46BB691B78D31A0BE0FB693D
:100574000133FB61BB690133BB617B685A1E7A603E
:10058400002BE7D1002318462437BD465DF8047BD1
:10059400704700BF844641EA000313F003036DD1A2
:1005A400403A41D351F8043B40F8043B51F8043B32
:1005B40040F8043B51F8043B40F8043B51F8043B39
:1005C40040F8043B51F8043B40F8043B51F8043B29
:1005D40040F8043B51F8043B40F8043B51F8043B19
:1005E40040F8043B51F8043B40F8043B51F8043B09
:1005F40040F8043B51F8043B40F8043B51F8043BF9
:1006040040F8043B51F8043B40F8043B51F8043BE8
:1006140040F8043B51F8043B40F8043B51F8043BD8
:1006240040F8043B403ABDD2303211D351F8043B78
:1006340040F8043B51F8043B40F8043B51F8043BB8
:1006440040F8043B51F8043B40F8043B103AEDD227
:100654000C3205D351F8043B40F8043B043AF9D278
:10066400043208D0D2071CBF11F8013B00F8013B4B
:1006740001D30B8803806046704700BF082A13D358
:100684008B078DD010F003038AD0C3F10403D21A70
:10069400DB071CBF11F8013B00F8013B80D331F8A4
:1006A400023B20F8023B7BE7043AD9D3013A11F824
:1006B400013B00F8013BF9D20B7803704B7843708F
:1006C4008B7883706046704780B48BB000AFF8605D
:1006D400B9607A60FB687B62BB68DBB27B610DE06A
:1006E4007B685A1E7A60002B06D07B6A5A1C7A6299
:1006F400BA68D2B21A7001E0FB685AE07B6A03F070
:100704000303002BECD17B68032B45D97B6ABB61C7
:100714007B691A027B691343FB61FB691B04FA6959
:100724001343FB6120233B6209E0FA693B6A02FA46
:1007340003F3FA691343FB613B6A5B003B623B6A68
:100744001F2BF2D916E0BB691A1DBA61FA691A6047
:10075400BB691A1DBA61FA691A60BB691A1DBA61CC
:10076400FA691A60BB691A1DBA61FA691A607B6872
:10077400103B7B607B680F2BE5D807E0BB691A1D33
:10078400BA61FA691A607B68043B7B607B68032B5F
:10079400F4D8BB697B6206E005E07B6A5A1C7A6286
:1007A400BA68D2B21A707B685A1E7A60002BF4D1F0
:1007B400FB6818462C37BD465DF8047B704700BFC4
:1007C40080B400AF40F22843C2F200031B6818460D
:1007D400BD465DF8047B704770B54FF0FF0C4CF4D8
:1007E400E06C1CEA11541DBF1CEA135594EA0C0F6B
:1007F40095EA0C0F00F0DEF82C4481EA030621EAA6
:100804004C5123EA4C5350EA013518BF52EA0335E0
:1008140041F4801143F4801338D0A0FB02CE4FF092
:100824000005E1FB02E506F00042E0FB03E54FF0C2
:100834000006E1FB03569CF0000F18BF4EF0010EBA
:10084400A4F1FF04B6F5007F64F5407404D25FEAB6
:100854004E0E6D4146EB060642EAC62141EA555169
:100864004FEAC52040EA5E504FEACE2EB4F1FD0CAB
:1008740088BFBCF5E06F1ED8BEF1004F08BF5FEA29
:10088400500E50F1000041EB045170BD06F00046DB
:1008940046EA010140EA020081EA0301B4EB5C0488
:1008A400C2BFD4EB0C0541EA045170BD41F4801180
:1008B4004FF0000E013C00F3AB8014F1360FDEBFA5
:1008C400002001F0004170BDC4F10004203C35DA81
:1008D4000C341BDC04F11404C4F1200500FA05F304
:1008E40020FA04F001FA05F240EA020001F00042A5
:1008F40021F0004110EBD37021FA04F642EB06011B
:100904005EEA430E08BF20EAD37070BDC4F10C0444
:10091400C4F1200500FA04F320FA05F001FA04F208
:1009240040EA020001F0004110EBD37041F10001F4
:100934005EEA430E08BF20EAD37070BDC4F12005FF
:1009440000FA05F24EEA020E20FA04F301FA05F267
:1009540043EA020321FA04F001F0004121FA04F20F
:1009640020EA020000EBD3705EEA430E08BF20EADF
:10097400D37070BD94F0000F0FD101F00046400019
:1009840041EB010111F4801F08BF013CF7D041EA9B
:10099400060195F0000F18BF704703F0004652009F
:1009A40043EB030313F4801F08BF013DF7D043EA70
:1009B4000603704794EA0C0F0CEA135518BF95EA26
:1009C4000C0F0CD050EA410618BF52EA4306D1D1AD
:1009D40081EA030101F000414FF0000070BD50EACC
:1009E400410606BF1046194652EA430619D094EA56
:1009F4000C0F02D150EA013613D195EA0C0F05D140
:100A040052EA03361CBF104619460AD181EA030193
:100A140001F0004141F0FE4141F470014FF000004B
:100A240070BD41F0FE4141F4780170BD70B54FF0E6
:100A3400FF0C4CF4E06C1CEA11541DBF1CEA135566
:100A440094EA0C0F95EA0C0F00F0A7F8A4EB050448
:100A540081EA030E52EA03354FEA013100F088803F
:100A64004FEA03334FF0805545EA131343EA126308
:100A74004FEA022245EA111545EA10654FEA0026BD
:100A84000EF000419D4208BF964244F1FD0404F576
:100A9400407402D25B084FEA3202B61A65EB0305D2
:100AA4005B084FEA32024FF480104FF4002CB6EB8F
:100AB400020E75EB030E22BFB61A754640EA0C000F
:100AC4005B084FEA3202B6EB020E75EB030E22BF4F
:100AD400B61A754640EA5C005B084FEA3202B6EB90
:100AE400020E75EB030E22BFB61A754640EA9C004F
:100AF4005B084FEA3202B6EB020E75EB030E22BF1F
:100B0400B61A754640EADC0055EA060E18D04FEADC
:100B1400051545EA16754FEA06164FEAC30343EA7C
:100B240052734FEAC2025FEA1C1CC0D111F4801F49
:100B34000BD141EA00014FF000004FF0004CB6E742
:100B440011F4801F04BF01430020B4F1FD0C88BFE1
:100B5400BCF5E06F3FF6AFAEB5EB030C04BFB6EBEC
:100B6400020C5FEA500C50F1000041EB045170BDDF
:100B74000EF0004E4EEA113114EB5C04C2BFD4EB0C
:100B84000C0541EA045170BD41F480114FF0000E90
:100B9400013C90E645EA060E8DE60CEA135594EA0C
:100BA4000C0F08BF95EA0C0F3FF43BAF94EA0C0F0F
:100BB4000AD150EA01347FF434AF95EA0C0F7FF484
:100BC40025AF104619462CE795EA0C0F06D152EAD8
:100BD40003353FF4FDAE1046194622E750EA4106BC
:100BE40018BF52EA43067FF4C5AE50EA41047FF4CD
:100BF4000DAF52EA43057FF4EBAE12E74FF0FF3C32
:100C040006E000BF4FF0010C02E000BF4FF0010C02
:100C14004DF804CD4FEA410C7FEA6C5C4FEA430C7B
:100C240018BF7FEA6C5C1BD001B050EA410C0CBFCA
:100C340052EA430C91EA030F02BF90EA020F00202C
:100C4400704710F1000F91EA030F58BF994208BF93
:100C540090422CBFD8176FEAE37040F00100704750
:100C64004FEA410C7FEA6C5C02D150EA013C07D1A7
:100C74004FEA430C7FEA6C5CD6D152EA033CD3D0F2
:100C84005DF8040B704700BF8446104662468C46EC
:100C94001946634600E000BF01B5FFF7B7FF00281F
:100CA40048BF10F1000F01BD4DF808EDFFF7F4FF48
:100CB4000CBF012000205DF808FB00BF4DF808EDD3
:100CC400FFF7EAFF34BF012000205DF808FB00BFF6
:100CD4004DF808EDFFF7E0FF94BF012000205DF818
:100CE40008FB00BF4DF808EDFFF7CEFF94BF0120CD
:100CF40000205DF808FB00BF4DF808EDFFF7C4FFC6
:100D040034BF012000205DF808FB00BF4FEA410218
:100D1400B2F1E04324BFB3F5001CDCF1FE5C0DD955
:100D240001F0004C4FEAC0024CEA5070B2F1004F9F
:100D340040EB830008BF20F00100704711F0804FA2
:100D440021D113F13872BCBF01F00040704741F467
:100D540080114FEA5252C2F11802C2F1200C10FA6B
:100D64000CF320FA02F018BF40F001004FEAC1234F
:100D74004FEAD32303FA0CFC40EA0C0023FA02F3F3
:100D84004FEA4303CCE77FEA625307D150EA0133C9
:100D94001EBF4FF0FE4040F44000704701F0004099
:100DA40040F0FE4040F40000704700BF80B588B0BA
:100DB40000AF78604FF00003FB617B68BB60BB68E9
:100DC400BB61BB6923F00043BB61BA6940F6D873C9
:100DD400C3F649739A4207DC7868F969002201F086
:100DE400EFFA07EE900A45E0BB69B3F1FF4F06DB6B
:100DF40097ED017AD7ED017A77EE677A3AE007F159
:100E04000C037868194600F0F3F978617B6903F004
:100E14000303012B0DD0022B14D0002B1FD1FA6831
:100E24003B6910461946012201F0CAFA07EE900AFE
:100E340020E0FA683B691046194600F037FC07EEDB
:100E4400900A17E0FA683B6910461946012201F03E
:100E5400B7FA034607EE103AF1EE477A0AE0FA6869
:100E64003B691046194600F021FC034607EE103A90
:100E7400F1EE477A17EE903A18462037BD4680BD0A
:100E840080B58EB000AF786039607868396800F05A
:100E940083F8786340F23043C2F200031B785BB2FC
:100EA400B3F1FF3F0BD0386801F0CEFB0346002BB3
:100EB40005D0786801F0C8FB0346002B01D17B6B99
:100EC40066E0D7ED007AF5EE407AF1EE10FA5ED1E5
:100ED4000123BB6047F25C03C0F60003FB60002300
:100EE400BB627868FFF7B0FA02460B46C7E90423F1
:100EF4003868FFF7A9FA02460B46C7E9062340F211
:100F04003043C2F200031B78002B07D17868FFF747
:100F14009BFA02460B46C7E908230DE04FF0000098
:100F24004FF000014FF000024FF00003FFF77EFD89
:100F340002460B46C7E9082340F23043C2F20003DD
:100F44001B785BB2022B05D1FFF73AFC0346212242
:100F54001A600CE007F10803184601F0CFFA0346C3
:100F6400002B04D1FFF72CFC034621221A60BB6A34
:100F7400002B04D0FFF724FC0346BA6A1A60D7E9B1
:100F8400082310461946FFF7C1FE034600E07B6BB9
:100F940018463837BD4680BD80B48FB000AF786046
:100FA40039607B687B617B693B633B683B613B6980
:100FB400FB623B6B03F00043FB613A6BFB695340FC
:100FC4003B63FB6A23F00043FB62FB6A002B07D000
:100FD4003B6BB3F1FF4F03DAFB6AB3F1FF4F0EDD56
:100FE40097ED017AD7ED007A27EE277AD7ED016ADB
:100FF400D7ED007A66EEA77AC7EE277AEFE03A6B70
:10100400FB6A9A4202DAD7ED017AE8E03A6BFB6AAE
:101014009A420AD1FB69DA0F47F26803C0F600036B
:1010240092001344D3ED007AD9E03B6BB3F5000F83
:1010340010DA6FF07D03BB623B6B1B023B6205E081
:10104400BB6A013BBB623B6A5B003B623B6A002BB1
:10105400F6DC03E03B6BDB157F3BBB62FB6AB3F55D
:10106400000F10DA6FF07D037B62FB6A1B023B62A8
:1010740005E07B6A013B7B623B6A5B003B623B6A47
:10108400002BF6DA03E0FB6ADB157F3B7B62BB6A6D
:1010940013F17E0F06DB3B6BC3F3160343F400032B
:1010A4003B630BE0BA6A4FF68273CFF6FF739B1A69
:1010B4007B633A6B7B6B02FA03F33B637B6A13F14A
:1010C4007E0F06DBFB6AC3F3160343F40003FB62E3
:1010D4000BE07A6A4FF68273CFF6FF739B1A7B6339
:1010E400FA6A7B6B02FA03F3FB62BA6A7B6AD31A6D
:1010F4007B631DE03A6BFB6AD31ABB61BB69002BAF
:1011040004DA3A6B3B6B13443B6311E0BB69002B7D
:101114000AD1FB69DA0F47F26803C0F600039200B4
:101124001344D3ED007A5AE0BA69BB6913443B63B4
:101134007B6B5A1E7A63002BDCD13A6BFB6AD31AA1
:10114400BB61BB69002B01DBBB693B633B6B002BC1
:101154000AD1FB69DA0F47F26803C0F60003920074
:101164001344D3ED007A3AE006E03A6B3B6B134448
:101174003B637B6A013B7B623B6BB3F5000FF4DBA3
:101184007B6A13F17E0F0EDB3B6BA3F500027B6AD7
:101194007F33DB0513433B633A6BFB691343FB600B
:1011A400FB687B6019E07A6A4FF68273CFF6FF73AF
:1011B4009B1A7B633A6B7B6B42FA03F33B633A6B98
:1011C400FB691343BB60BB687B60F7EE007A97ED65
:1011D400017A67EE277AC7ED017AD7ED017A17EE27
:1011E400903A18463C37BD465DF8047B704700BF13
:1011F40080B598B002AF786039607B687B617B69A9
:101204003B643B6C23F00043FB63FA6B40F6D873FA
:10121400C3F649739A4209DC3B687A681A603B68F2
:1012240004334FF000021A6000233AE2FA6B4CF6E2
:10123400E333C4F216039A4200F39C803B6C002B08
:101244004BDDDFEDCC7A97ED017A77EE677AC7ED67
:10125400157AFB6B23F00F024FF47D63C3F6C97359
:101264009A4218D0DFEDC47A97ED157A77EE677A53
:101274003B68C3ED007A3B6804333A68D2ED007AE8
:1012840097ED157A37EE677ADFEDBB7A77EE677AFA
:10129400C3ED007A1FE0DFEDB97A97ED157A77EEAA
:1012A400677AC7ED157ADFEDB67A97ED157A77EEA2
:1012B400677A3B68C3ED007A3B6804333A68D2ED41
:1012C400007A97ED157A37EE677ADFEDAD7A77EE2F
:1012D400677AC3ED007A0123E3E1DFEDA67A97EDA7
:1012E400017A77EE277AC7ED157AFB6B23F00F02AC
:1012F4004FF47D63C3F6C9739A4218D09FED9E7A6A
:10130400D7ED157A77EE277A3B68C3ED007A3B6810
:1013140004333A68D2ED007A97ED157A37EE677A9E
:10132400DFED957A77EE277AC3ED007A1FE0DFEDE3
:10133400937A97ED157A77EE277AC7ED157A9FEDB4
:10134400907AD7ED157A77EE277A3B68C3ED007A69
:101354003B6804333A68D2ED007A97ED157A37EE9C
:10136400677ADFED877A77EE277AC3ED007A4FF05C
:10137400FF3396E1FA6B4FF47863C4F249339A422F
:1013840000F30A81786801F0D1F8B8639FED7D7AA3
:10139400D7ED0E7A27EE277AF6EE007A77EE277AE3
:1013A400FDEEE77A17EE903A7B637B6B07EE103A1B
:1013B400F8EEC77AC7ED0C7A9FED6E7AD7ED0C7A0A
:1013C40067EE277A97ED0E7A77EE677AC7ED137A90
:1013D400DFED697A97ED0C7A67EE277AC7ED147A18
:1013E4007B6B1F2B16DCFB6B23F0FF027B6B591E00
:1013F40047F28833C0F6000353F821309A4209D0EB
:1014040097ED137AD7ED147A77EE677A3B68C3EDDC
:10141400007A85E0FB6BDB15FB6297ED137AD7ED61
:10142400147A77EE677A3B68C3ED007A3B681B68F1
:101434003B613B69BB62FA6ABB6ADB0DDBB2D31A60
:10144400BB64BB6C082B6BDDFB6CBB63DFED4B7AC1
:1014540097ED0C7A67EE277AC7ED147A97ED0E7A3A
:10146400D7ED147A77EE677AC7ED137A9FED447A55
:10147400D7ED0C7A27EE277AD7ED0E6AD7ED137ADB
:1014840076EEE76AD7ED147A76EEE77A77EE677A46
:10149400C7ED147A97ED137AD7ED147A77EE677A5D
:1014A4003B68C3ED007A3B681B68FB60FB68BB626A
:1014B400FA6ABB6ADB0DDBB2D31ABB64BB6C192BB3
:1014C4002EDDFB6CBB63DFED307A97ED0C7A67EEB3
:1014D400277AC7ED147A97ED0E7AD7ED147A77EE62
:1014E400677AC7ED137A9FED297AD7ED0C7A27EE48
:1014F400277AD7ED0E6AD7ED137A76EEE76AD7ED41
:10150400147A76EEE77A77EE677AC7ED147A97ED78
:10151400137AD7ED147A77EE677A3B68C3ED007AD5
:101524003B6804333A68D2ED007A97ED137A37EECC
:10153400677AD7ED147A77EE677AC3ED007A3B6C5D
:10154400002B14DA3B68D3ED007AF1EE677A3B683E
:10155400C3ED007A3B6804333A680432D2ED007A72
:10156400F1EE677AC3ED007A7B6B5B4299E07B6BAB
:1015740097E000BF800FC93F4344353700443537F7
:1015840008A3852E84F9223F00A3852E32318D24B1
:101594000000804300000000FB6BB3F1FF4F0EDB43
:1015A4003B68043397ED017AD7ED017A77EE677AD9
:1015B400C3ED007A1A683B681A60002371E0FB6B84
:1015C400DB15863B7B627B6ADB05FA6BD31ABB6057
:1015D400BB687B650023BB6420E0D7ED157AFDEE84
:1015E400E77AF8EEE77ABB6C9B0007F158021344E4
:1015F40043ED107ABB6C9B0007F15802134453ED82
:10160400107A97ED157A37EE677A5FED1F7A67EEF9
:10161400277AC7ED157ABB6C0133BB64BB6C012B15
:10162400DBDD7B6D3B6203237B6402E07B6C013B6F
:101634007B647B6C013B9B0007F15802134413ED60
:10164400107A5FED2C7AB4EE677AF1EE10FAEDD0F1
:1016540007F118020223009347F27003C0F6000357
:101664000193104639687A6A7B6C00F0E5F8786378
:101674003B6C002B14DA3B68D3ED007AF1EE677A09
:101684003B68C3ED007A3B6804333A680432D2ED18
:10169400007AF1EE677AC3ED007A7B6B5B4200E07F
:1016A4007B6B18465837BD4680BD00BF80B48BB0F5
:1016B40000AF786039607B68FB60FB683B623B6A23
:1016C40023F000433B623B6AB3F1485F0ADAD7ED8B
:1016D400017AFDEEE77A17EE903A002B02D1F7EE8D
:1016E400007A95E097ED017AD7ED017A67EE277AD3
:1016F400C7ED077A9FED4A7AD7ED077A27EE277A66
:10170400DFED487A37EE277AD7ED077A27EE277A86
:10171400DFED457A37EE277AD7ED077A27EE277A79
:10172400DFED427A37EE277AD7ED077A27EE277A6C
:10173400DFED3F7A37EE277AD7ED077A27EE277A5F
:10174400DFED3C7A37EE277AD7ED077A67EE277A12
:10175400C7ED067A3A6A49F69913C3F699639A4231
:101764001ADCB7EE007AD7ED076AF6EE007A66EE79
:10177400A76A97ED076AD7ED067A26EE276AD7EDB2
:10178400015AD7ED007A65EEA77A76EE677A76EE9F
:10179400E77A77EE677A3BE03A6A0023C3F6487348
:1017A4009A4205DD4FF00003C3F690637B6205E0C7
:1017B4003B6A03F17F43BB60BB687B6297ED077AAA
:1017C400F6EE007A27EE277AD7ED097A77EE677A74
:1017D400C7ED057AB7EE007AD7ED097A77EE677A26
:1017E400C7ED047A97ED077AD7ED067A27EE277AC4
:1017F400D7ED016AD7ED007A66EEA77A77EE677ABD
:1018040097ED057A77EE677A97ED047A77EE677A43
:1018140017EE903A18462C37BD465DF8047B7047A6
:101824004ED747ADF6740F317CF293B4010DD03727
:10183400610BB6BAABAA2A3D90B5E5B000AF07F18B
:101844000C04206007F108000160391D0A603A4663
:10185400136047F23043C0F60003D7F8A02153F8D1
:101864002230C7F86031D7F86031C7F85C313B46A5
:101874001B68013BC7F858313B1D1B68033BDA1D4D
:10188400002BB8BF1346DB10C7F88831D7F888316E
:10189400002B02DA0023C7F88831D7F88831DB43FC
:1018A400DA003B1D1B681344C7F87031D7F8882150
:1018B400D7F85831D31AC7F87831D7F85821D7F860
:1018C40060311344C7F854310023C7F87C3124E055
:1018D400D7F87831002B0BDBD7F878319B00D7F899
:1018E400A42113441B6807EE103AF8EEC77A01E00E
:1018F400DFEDDF7AD7F87C319B0007F5C8710B4424
:10190400DC3BC3ED007AD7F87C310133C7F87C3176
:10191400D7F878310133C7F87831D7F87C21D7F874
:1019240054319A42D4DD0023C7F87C3140E00023CF
:10193400C7F878314FF00003C7F8643124E0D7F8D2
:1019440078319B0007F10C021268134493ED007A7E
:10195400D7F85821D7F87C311A44D7F87831D31AFC
:101964009B0007F5C8721344DC3BD3ED007A67EEA5
:10197400277A97ED597A77EE277AC7ED597AD7F80F
:1019840078310133C7F87831D7F87821D7F858314E
:101994009A42D4DD07F11402D7F87C319B0013443A
:1019A400D7F864211A60D7F87C310133C7F87C3149
:1019B400D7F87C21D7F860319A42B8DDD7F8603186
:1019C400C7F88C310023C7F87C31D7F88C31C7F8BD
:1019D400783107F11402D7F88C319B0013441B684B
:1019E400C7F868313AE09FEDA47AD7ED5A7A67EEEA
:1019F400277AFDEEE77AF8EEE77AC7ED597A9FED9C
:101A04009D7AD7ED597A67EE277A97ED5A7A77EE71
:101A1400677AFDEEE77A17EE902AD7F87C319B00BF
:101A240007F5C8710B4443F88C2CD7F87831013B87
:101A340007F114029B00134493ED007AD7ED597A11
:101A440077EE277AC7ED5A7AD7F87C310133C7F895
:101A54007C31D7F87831013BC7F87831D7F8783141
:101A6400002BC0DCD7F86801D7F8701100F032FE03
:101A7400C7F8680197ED5A7AF4EE007A67EE277A90
:101A840017EE900A00F068FD07EE100AF2EE007AF5
:101A940067EE277A97ED5A7A77EE677AC7ED5A7A26
:101AA400D7ED5A7AFDEEE77A17EE903AC7F880310F
:101AB400D7F8803107EE103AF8EEC77A97ED5A7AE4
:101AC40077EE677AC7ED5A7A0023C7F86C31D7F8F6
:101AD4007031002B44DDD7F88C31013B9B0007F5B6
:101AE400C8710B4453F88C2CD7F87031C3F1080338
:101AF40042FA03F3C7F87C31D7F88021D7F87C3158
:101B04001344C7F88031D7F88C31591ED7F88C317B
:101B1400013B9B0007F5C872134453F88C2CD7F88B
:101B24007031C3F10803D7F87C0100FA03F3D21A29
:101B34008B0007F5C8710B4443F88C2CD7F88C3113
:101B4400013B9B0007F5C872134453F88C2CD7F85B
:101B54007031C3F1070342FA03F3C7F86C311CE098
:101B6400D7F87031002B0CD1D7F88C31013B9B0096
:101B740007F5C8710B4453F88C3C1B12C7F86C3141
:101B84000BE097ED5A7AF6EE007AB4EEE77AF1EECE
:101B940010FA02DB0223C7F86C31D7F86C31002B42
:101BA40040F3A080D7F880310133C7F88031002397
:101BB400C7F884310023C7F87C3132E0D7F87C3190
:101BC4009B0007F5C872134453F88C3CC7F878316E
:101BD400D7F88431002B13D1D7F87831002B1BD0E0
:101BE4000123C7F88431D7F87831C3F58072D7F868
:101BF4007C319B0007F5C8710B4443F88C2C0BE037
:101C0400D7F87831C3F1FF02D7F87C319B0007F590
:101C1400C8710B4443F88C2CD7F87C310133C7F8D6
:101C24007C31D7F87C21D7F88C319A42C6DBD7F8BF
:101C34007031002B37DDD7F87031012B02D0022B25
:101C44001CD030E0D7F88C31591ED7F88C31013BC9
:101C54009B0007F5C872134453F88C3C03F07F02D1
:101C64008B0007F5C8710B4443F88C2C1BE000BFB4
:101C740000000000000080430000803BD7F88C3156
:101C8400591ED7F88C31013B9B0007F5C8721344E9
:101C940053F88C3C03F03F028B0007F5C8710B44EA
:101CA40043F88C2C00BFD7F86C31022B1AD1B7EE55
:101CB400007AD7ED5A7A77EE677AC7ED5A7AD7F871
:101CC4008431002B0ED04FF07E531846D7F8701194
:101CD40000F000FD07EE100AD7ED5A7A77EEC77AC6
:101CE400C7ED5A7A5FED1E7A97ED5A7AB4EE677AA9
:101CF400F1EE10FA40F0AE800023C7F87831D7F83F
:101D04008C31013BC7F87C3111E0D7F87C319B0062
:101D140007F5C872134453F88C3CD7F87821134361
:101D2400C7F87831D7F87C31013BC7F87C31D7F854
:101D34007C21D7F860319A42E7DAD7F87831002B62
:101D440040F088800123C7F8743104E0D7F8743177
:101D54000133C7F87431D7F86021D7F87431D31A36
:101D64009B0007F5C8710B4453F88C3C002BEDD055
:101D7400D7F88C310133C7F87C315AE0D7F85821B1
:101D8400D7F87C311344D7F88811D7F87C210A445A
:101D94009200D7F8A4110A44126807EE102AF8EE4C
:101DA400C77A9B0007F5C8710B44DC3BC3ED007A8E
:101DB4000023C7F878314FF00003C7F8643124E0FA
:101DC400D7F878319B0007F10C021268134493EDA5
:101DD400007AD7F85821D7F87C311A44D7F87831EB
:101DE400D31A9B0007F5C8721344DC3BD3ED007A89
:101DF40067EE277A97ED597A77EE277AC7ED597A05
:101E0400D7F878310133C7F87831D7F87821D7F883
:101E140058319A42D4DD07F11402D7F87C319B0083
:101E24001344D7F864211A60D7F87C310133C7F81A
:101E34007C31D7F88C21D7F874311A44D7F87C3127
:101E44009A429BDAD7F88C21D7F874311344C7F837
:101E54008C31B7E5D7ED5A7AF5EE407AF1EE10FA07
:101E64001FD1D7F88C31013BC7F88C31D7F87031CA
:101E7400083BC7F8703109E0D7F88C31013BC7F84B
:101E84008C31D7F87031083BC7F87031D7F88C31F2
:101E94009B0007F5C8710B4453F88C3C002BEBD026
:101EA4005BE0D7F870315B42D7F86801194600F05F
:101EB40011FCC7F868015FED917A97ED5A7AB4EE98
:101EC400E77AF1EE10FA3ADB1FED957AD7ED5A7AFC
:101ED40067EE277AFDEEE77AF8EEE77AC7ED597AEE
:101EE4001FED9C7AD7ED597A67EE277A97ED5A7AE7
:101EF40077EE677AFDEEE77A17EE902AD7F88C3101
:101F04009B0007F5C8710B4443F88C2CD7F88C312F
:101F14000133C7F88C31D7F870310833C7F8703102
:101F2400D7ED597AFDEEE77A17EE902AD7F88C317F
:101F34009B0007F5C8710B4443F88C2C0DE0D7EDDA
:101F44005A7AFDEEE77A17EE902AD7F88C319B0087
:101F540007F5C8710B4443F88C2C4FF07E53184698
:101F6400D7F8701100F0B6FBC7F86401D7F88C31CC
:101F7400C7F87C3124E0D7F87C319B0007F5C872A0
:101F8400134453F88C3C07EE903AB8EEE77AD7ED59
:101F9400597A67EE277A07F11402D7F87C319B004F
:101FA4001344C3ED007A5FEDCC7A97ED597A67EE6E
:101FB400277AC7ED597AD7F87C31013BC7F87C31D1
:101FC400D7F87C31002BD6DAD7F88C31C7F87C31BE
:101FD40049E04FF00003C7F864310023C7F87431B7
:101FE40021E047F23C43C0F60003D7F87421920085
:101FF400134493ED007AD7F87C21D7F87431134455
:1020040007F114029B001344D3ED007A67EE277A9C
:1020140097ED597A77EE277AC7ED597AD7F8743164
:102024000133C7F87431D7F87421D7F85C319A4278
:1020340008DCD7F88C21D7F87C31D21AD7F8743160
:102044009A42CEDAD7F88C21D7F87C31D31A07F12B
:1020540064029B001344D7F864211A60D7F87C31DA
:10206400013BC7F87C31D7F87C31002BB1DAD7F8C3
:10207400A031032B00F29A8101A151F823F000BF93
:1020840095200008F7200008F7200008C92100085F
:102094004FF00003C7F86431D7F88C31C7F87C31AE
:1020A40012E007F16402D7F87C319B001344D3EDAE
:1020B400007A97ED597A77EE277AC7ED597AD7F8EF
:1020C4007C31013BC7F87C31D7F87C31002BE8DA4E
:1020D400D7F86C31002B04D0D7ED597AF1EE677A3A
:1020E40001E0D7ED597A07F108031B68C3ED007AC4
:1020F4005CE14FF00003C7F86431D7F88C31C7F8BE
:102104007C3112E007F16402D7F87C319B00134460
:10211400D3ED007A97ED597A77EE277AC7ED597A9D
:10212400D7F87C31013BC7F87C31D7F87C31002BE0
:10213400E8DAD7F86C31002B04D0D7ED597AF1EEF8
:10214400677A01E0D7ED597A07F108031B68C3EDFC
:10215400007A07F1640393ED007AD7ED597A77EEAC
:10216400677AC7ED597A0123C7F87C3112E007F189
:102174006402D7F87C319B001344D3ED007A97EDC9
:10218400597A77EE277AC7ED597AD7F87C3101333B
:10219400C7F87C31D7F87C21D7F88C319A42E6DD38
:1021A40007F108031B680433D7F86C21002A04D014
:1021B400D7ED597AF1EE677A01E0D7ED597AC3ED9C
:1021C400007AF3E0D7F88C31C7F87C3142E0D7F8D5
:1021D4007C31013B07F164029B00134493ED007AC8
:1021E40007F16402D7F87C319B001344D3ED007AE5
:1021F40077EE277AC7ED597A07F16402D7F87C3174
:102204009B00134493ED007AD7F87C31013B07F12E
:1022140064029B001344D3ED006AD7ED597A76EE3D
:10222400E77A77EE277A07F16402D7F87C319B00CE
:102234001344C3ED007AD7F87C31013B07F1640203
:102244009B001344D7F864211A60D7F87C31013B12
:10225400C7F87C31D7F87C31002BB8DCD7F88C3147
:10226400C7F87C3142E0D7F87C31013B07F16402C6
:102274009B00134493ED007A07F16402D7F87C3194
:102284009B001344D3ED007A77EE277AC7ED597A91
:1022940007F16402D7F87C319B00134493ED007A74
:1022A400D7F87C31013B07F164029B001344D3ED62
:1022B400006AD7ED597A76EEE77A77EE277A07F156
:1022C4006402D7F87C319B001344C3ED007AD7F83D
:1022D4007C31013B07F164029B001344D7F864216D
:1022E4001A60D7F87C31013BC7F87C31D7F87C31D0
:1022F400012BB8DC4FF00003C7F86431D7F88C31F8
:10230400C7F87C3112E007F16402D7F87C319B00F6
:102314001344D3ED007A97ED597A77EE277AC7ED17
:10232400597AD7F87C31013BC7F87C31D7F87C3136
:10233400012BE8DCD7F86C31002B16D107F16403CC
:102344001A6807F108031B681A6007F108031B6881
:10235400043307F1640252681A6007F108031B682A
:102364000833D7F864211A6020E007F16403D3ED41
:10237400007AF1EE677A07F108031B68C3ED007A6F
:1023840007F108031B68043307F16402D2ED017AF4
:10239400F1EE677AC3ED007A07F108031B6808338E
:1023A400D7ED597AF1EE677AC3ED007AD7F8803128
:1023B40003F00703184607F5CA77BD4690BD00BF72
:1023C40080B48BB000AFF860B9607A60FB687B6161
:1023D4007B697B627B6A23F000437B627B6AB3F197
:1023E400485F0ADAD7ED037AFDEEE77A17EE903A02
:1023F400002B02D1D7ED037A6BE097ED037AD7ED8A
:10240400037A67EE277AC7ED087A97ED087AD7ED55
:10241400037A67EE277AC7ED077A9FED327AD7ED14
:10242400087A27EE277ADFED307A37EE277AD7ED70
:10243400087A27EE277ADFED2D7A37EE277AD7ED63
:10244400087A27EE277ADFED2A7A37EE277AD7ED56
:10245400087A27EE277ADFED277A77EE277AC7ED19
:10246400067A7B68002B12D197ED087AD7ED067AAD
:1024740027EE277ADFED207A37EE277AD7ED077A31
:1024840027EE277AD7ED037A77EE277A21E0B6EEA6
:10249400007AD7ED027A27EE277AD7ED076AD7EDCF
:1024A400067A66EEA77A37EE677AD7ED087A27EED2
:1024B400277AD7ED027A37EE677ADFED0F6AD7ED28
:1024C400077A66EEA77A77EE677A97ED037A77EE66
:1024D400677A17EE903A18462C37BD465DF8047BB0
:1024E400704700BFD3C92E2F342FD7B21BEF383615
:1024F400010D50B98988083CABAA2ABE80B584B0C6
:1025040000AF78600023FB607B68D3E902017B683D
:10251400D3E90223FEF7C8FB0346002B01D10023B5
:1025240000E0FB6818461037BD4680BD80B487B014
:1025340000AF78607B683B613B697B617B6923F01A
:102544000043FB60FB687B607B6818461C37BD4614
:102554005DF8047B704700BF80B489B000AF786039
:102564007B68FB60FB68FB61FB6923F00043BB6194
:10257400BB69DB0D7F3B7B617B69162B48DC7B6988
:10258400002B19DA9FED2F7AD7ED017A77EE277AAF
:10259400F5EEC07AF1EE10FA00DC45E0FB69002BA1
:1025A40002DB0023FB613FE0BB69002B3CD000232E
:1025B400CBF68073FB6137E04FF6FF73C0F27F0305
:1025C4007A6913413B61FA693B691340002B02D1DC
:1025D400D7ED017A2EE09FED1B7AD7ED017A77EEE5
:1025E400277AF5EEC07AF1EE10FA00DC1CE0FB6904
:1025F400002B07DA4FF400027B6942FA03F3FA690D
:102604001344FB613B69DA43FB691340FB610BE054
:10261400BB69B3F1FF4F04D3D7ED017A77EEA77A04
:1026240008E0D7ED017A05E0FB69BB60BB687B601D
:10263400D7ED017A17EE903A18462437BD465DF877
:10264400047B7047CAF2497180B485B000AF7860EA
:102654007B68BB60BB68FB60FB68002B03D0FB6836
:10266400B3F1004F01D102232DE0FB68B3F5000F55
:1026740003D3FB68B3F1FF4F07D3FB6813F1FF4F9C
:1026840005D3FB6813F5000F01D204231BE0FB689C
:10269400002B03D0FB68B3F5000F07D3FB68B3F13D
:1026A400004F05D9FB6813F1FF4F01D203230AE061
:1026B400FB68B3F1FF4F03D0FB6813F5000F01D1A2
:1026C400012300E0002318461437BD465DF8047B5F
:1026D400704700BF80B58AB000AF786039607B680E
:1026E400BB61BB693B623B6A23F00043FB61FB694E
:1026F400DB0D7B62FB69002B02D1D7ED017A8AE006
:10270400FB69B3F1FF4F04D3D7ED017A77EEA77AD3
:1027140081E0FB69B3F5000F1FD2DFED427A97ED3C
:10272400017A67EE277AC7ED017A7B687B617B6962
:102734003B623B6A03F0FF43DB15193B7B623A685B
:1027440043F6B043CFF6FF739A4206DA9FED367A2A
:10275400D7ED017A67EE277A5DE07A6A3B68134425
:102764007B627B6AFE2B0EDD4FF2CA23C7F249134C
:102774001846796800F05EF807EE100ADFED2B7A50
:1027840067EE277A47E07B6A002B0BDD3B6A23F078
:10279400FF427B6ADB0513433B613B697B60D7EDFA
:1027A400017A38E07B6A13F1160F22DA3A684CF2A8
:1027B40050339A420EDD4FF2CA23C7F2491318462A
:1027C400796800F037F807EE100ADFED187A67EE43
:1027D400277A20E044F26023C0F6A25318467968B1
:1027E40000F028F807EE100ADFED0F7A67EE277A7B
:1027F40011E07B6A19337B623B6A23F0FF427B6AF8
:10280400DB051343FB60FB687B609FED097AD7ED22
:10281400017A67EE277A17EE903A18462837BD46B4
:1028240080BD00BF0000004C6042A20DCAF2497195
:102834000000003380B489B000AF786039607B68F1
:102844007B617B69FB613B683B613B69BB61FB6905
:1028540023F00042BB6903F000431343FB60FB68B1
:102864007B607B6818462437BD465DF8047B70475F
:1028740070B588B045F64442C4F200026C4C13684B
:102884006C4D9BB2238021882B88194001F4007180
:1028940089B200296AD1228802F40042134261D12C
:1028A400228802F48062134250D1228802F400523A
:1028B40013421FBF45F64443C4F200034DF6FF72B2
:1028C4001A6018BF2B88228802F48052134231D137
:1028D400228802F4006213420ED0574B1B78002B5F
:1028E40025D1022000F0EAFA45F64443C4F200037D
:1028F4004FF2FF721A602B88228802F4807213420E
:1029040013D045F64442C4F2000245F64843C4F2EB
:1029140000034FF6FF6111601B68190432D40022D2
:10292400464B1A60072000F0C9FA08B070BD00F0E9
:1029340031FAD9E745F64443C4F200034EF6FF7278
:102944001A60002000F0BAFA2B88C1E745F6444328
:10295400C4F200034FF6FF321A60394B5B689847A4
:102964002B88A2E703F026FA2B8899E7354B4FF61C
:10297400FF5111601A780132D2B21A7000F0DAF9FC
:102984002B8888E72D490B6801330B600B68032BF8
:10299400C8D945F64042C4F20002136813F0080394
:1029A400C0D11068284D80B24FF4B8422860C4F2F8
:1029B400000252F8044B08AE06EB8300A4B20133C4
:1029C40040F8204C082BF4D12B6843F001032B6012
:1029D4002A6845F64043C4F2000392B21A602A689A
:1029E40022F001022A602A6845F6444092B21A6035
:1029F400C4F20000026845F64443C4F200035205E1
:102A0400F8D54FF4B8424FF6FF301860C4F2000214
:102A1400002308AC04EB8300013350F8200C80B28F
:102A240042F8040B082BF4D100230B607AE700BFB3
:102A3400760500208C480020180500207805002029
:102A4400740400207405002070050020034B9B7A59
:102A540013B10522024B1A60704700BF644800207E
:102A6400C805002040F2C853C2F2000304221A60D1
:102A7400704700BF704700BF10B50346212803D03C
:102A8400202811D0022010BD0F4A13681B7803F0D0
:102A94007F03212BF6D10D49136800242046996148
:102AA4005C828847204610BD074A1168097801F006
:102AB4007F01212903D00220054A137010BD054966
:102AC40003480370E8E700BF84480020112B000886
:102AD4007C050020292B0008074B1B681B7803F09A
:102AE4007F03212B01D002207047022801D0222825
:102AF400F9D10020704700BF8448002009B10220AA
:102B040070470128FBD80846704700BF08B1034846
:102B14007047034B1B6808221A827047F004002098
:102B24008448002008B103487047034B1B680822FF
:102B34001A827047F004002084480020054B1B686B
:102B4400DB78042B04D8044901EBC30103F0EABB8E
:102B54000020704784480020D004002040F26C41DB
:102B6400C2F2000103F0DEBB40F2C841C2F2000130
:102B740003F0D8BB10B5054C2378202B00D010BD32
:102B840000F00AFC0023237010BD00BF7C05002068
:102B940010B544F6840347F2EC42C2F20003C0F6D7
:102BA40000021B68D27900249C725A72DC7220469F
:102BB40002F0C2FF20464FF4007102F0C7FF204626
:102BC400102102F0CFFF2046402103F075F8204683
:102BD400802103F05FF8204603F028F840F27443A4
:102BE400C2F20003204693F82C1003F0A9F8204603
:102BF40003F00AF80120214602F0A8FF0120C021B9
:102C040003F048F80120202102F0ACFF0120214606
:102C140002F0C8FF02204FF4C06102F097FF0220C7
:102C24004FF4807103F036F80220214602F0BAFF17
:102C34000220202102F096FF0320214602F086FFA5
:102C440003204FF4887103F037F80320402103F088
:102C540077F803204FF4405102F0A4FF21460320EB
:102C640002F080FF204603F0C9FD40F2C853C2F2CF
:102C7400000301221A6010BD10B500F007FB44F6F2
:102C84008403C2F2000300241B689C7200F066F8FF
:102C940002F0FEFE00F05EFB40F2C853C2F20003F5
:102CA4001C6010BD38B5164B1A78012A00D038BD07
:102CB400144C2168002920D0134A1368402914D8E1
:102CC40058189BB28DB2106000222260C0210F48B8
:102CD400C0182A4602F004FF0120294603F020F818
:102CE4000120BDE8384002F07DBF403903F14000C7
:102CF4009BB2106021604025E8E7197038BD00BF21
:102D0400700600208406002078060020F0050020CC
:102D140010B540F28054C2F200042146032002F0B0
:102D2400CDFEC1B2204600F01FFA0320BDE81040DA
:102D340002F06ABF074B1B68052B00D07047064B97
:102D44001A68511C1960052AF8D100221A6000F093
:102D540025BA00BFC8050020C005002038B50120F1
:102D640000F0F2F945F6404344F68C0245F644453A
:102D7400C4F20003C2F20002C4F2000500214FF4C1
:102D8400E0540120186008461960296014801C6012
:102D940038BD00BF70B483B045F640410023C4F28F
:102DA400000101934FF4B8420D683B49C4F200029C
:102DB40052F8040B80B241F823000133082BF7D1F9
:102DC400AAB245F640434FF6FE74C4F2000342F43F
:102DD40080622C4042F0010644F4806545F644408C
:102DE4001A60C4F200001E601D60026845F6444388
:102DF400C4F200035205F8D54FF4B8424FF6FF3041
:102E04001860C4F20002002351F82300013380B299
:102E140042F8040B082BF7D145F64043C4F20003F3
:102E240044F481641C601A684FF4E04192B2C4F225
:102E3400000142F004021A600A68019208684FF423
:102E44006D4220F00300CEF2000240F00100086061
:102E5400146945F6444044F00404C4F200001461CB
:102E6400046814F4805F10D04EF6FF7404601C688C
:102E74004FF6F77020401860019B0B60136923F034
:102E84000403136103B070BC704730BF136923F0AF
:102E940004031361F6E700BFCC05002010B545F626
:102EA4004044C4F200044FF6FB73226813402360CD
:102EB40000F010F94FF43F43236010BD10B52B4CC4
:102EC400072818BF20702378052B19D8DFE803F0F2
:102ED4001B222A2F3A036378013BDBB263706378C9
:102EE40083B945F64042C4F200024FF6EF71106810
:102EF4000140116006211D4A11701D4A136010BD66
:102F04000623237010BD1A4B1B68002B28D0052301
:102F1400237010BDFFF7C2FF042323700122144B5A
:102F24001A6010BD022363700323237010BD6378FD
:102F3400013BDBB263706378002BE3D104220B4BBB
:102F44001A7010BD45F64043C4F200031A6892B2E9
:102F540042F010021A60052323700A23637010BD27
:102F6400FFF79CFF0623237010BD00BFC40500209B
:102F7400EC050020704700BFFEE700BFFEE700BF7E
:102F8400FEE700BFFEE700BF704700BFFFF770BC5D
:102F940008B54FF4605040F20511C4F20100C0F2CC
:102FA400050101F003FC80B94FF46050C4F2010044
:102FB400082101F0F5FB00B908BD4FF46050C4F2DC
:102FC4000100BDE8084001F0CDBB00F033F9EBE7A8
:102FD4004FF4802001F0BAB930B4CAB1551EEDB235
:102FE400013500236D001C4607E03032CA54CA186C
:102FF400023354700001AB420AD0020F092AF4D9FB
:103004003732CA54CA18023354700001AB42F4D1A7
:1030140030BC704770B582B00120014601F024FB3A
:103024004FF40020012101F011FB4FF40030012185
:1030340001F00CFB002402264FF0904069464FF447
:10304400C053009303238DF805308DF804608DF888
:1030540006408DF8074001F07FF94FF090400B21B6
:103064000E2201F0DFF90E224FF090400C2101F006
:10307400D9F94FF400600125C4F600006946202305
:1030840000938DF805608DF804508DF806508DF886
:10309400074001F061F94FF4802001F057F940F244
:1030A4007C63C2F2000318464FF480221A6008229F
:1030B4005A719D7101F004F902B070BD08B5002089
:1030C40001F0C8F94FF400000121BDE8084001F007
:1030D400D9BA00BF054B9B7A23B90122044B1A606D
:1030E40003F002BC0522024B1A60F9E76448002091
:1030F400C805002030B583B04FF4A06001F078FB20
:103104000324012501A84B238DF804308DF80540D4
:1031140007238DF806308DF8075001F073FB01A8E2
:103124004C238DF8043002238DF805308DF80750B8
:1031340001F068FB01A825238DF804308DF80540C3
:1031440001F060FB03B030BD30B94FF40060C4F649
:103154000000202101F062B94FF40060C4F60000C1
:10316400202101F05DB900BF70B50D46064699B146
:1031740000244FF46050C4F20100315D01F0EEFA16
:103184004FF46050C4F20100802101F009FB0028D3
:10319400F6D00134AC42ECD370BD00BF70B5204C06
:1031A4002378012B38D01F4D2B68802B23D01E4A47
:1031B40011688B4231D098BF98B222D91B4AC3F10F
:1031C4008001116098B2402920D9403340392B60E6
:1031D4001160402601253246154B1818C021257070
:1031E40002F07EFC2846314602F09AFD2846BDE8EE
:1031F400704002F0F7BC0C4B1968002028600346AD
:1032040059B10A4AC91A11604029DED8CB188EB2C6
:103214002B6000231360DDE770BD0023237070BDB5
:103224007006002078060020740600208406002022
:10323400F005002038B5124B9B79124C072B09D0AE
:10324400082B13D023680F4A0133802B08BF0023B7
:10325400136038BD4FF46050C4F20100256801F0DA
:1032640081FA00F07F00084B5855EBE74FF46050AB
:10327400C4F20100256801F075FA034B5855E1E7E3
:10328400F004002074060020F005002010B54FF271
:10329400AC724FF2B473C1F6FF72C1F6FF734FF212
:1032A400B071C1F6FF7112681B680C68D01800D1A8
:1032B40010BD05490822FFF78FFE2046034904226A
:1032C400BDE81040FFF788BEFE0400200E05002074
:1032D400F0B583B0074601214FF480204FF4806499
:1032E40001F0B4F9C4F600044FF48040012101F068
:1032F400BBF906210722204601F094F82046072155
:103304000A4601F08FF80126204669464FF46055BD
:10331400C4F201054023009302238DF804300323F3
:103324008DF8053000238DF806308DF8076001F024
:1033340013F8204669468023009301F00DF82846CF
:10334400394601F0ADF92846314601F0FDF903B0E4
:10335400F0BD00BF08B540F28863C2F2000300224A
:1033640018464FF4165183E806009A604FF4C06182
:10337400D9605A610C221A61FFF7AAFF4FF460501A
:1033840040F20511C4F20100C0F205010122BDE8BA
:10339400084001F0EBB900BF08B5224B1A79012AA5
:1033A40030D01ED2204A002191605979012930D0B1
:1033B4001DD20021D1609979072920D0082912D182
:1033C400D168194809B14FF4805141601B6816480F
:1033D4001360002353610C231361FFF779FF01206D
:1033E40008BD022A19D0FFF7B5FF002008BD022945
:1033F400F9D14FF4C061D16099790729DED1002158
:103404005160E3E7084A4FF440519160597901292A
:10341400CED14FF48061D160CDE7034A4FF400511F
:103424009160C2E7F00400208806002038B50C46FD
:103434003F2901D9002038BD0A46C0210025064B8A
:103444001D6002F04DFB0120214602F069FC0120C1
:1034540002F0C8FB012038BD2805002008B54FF054
:10346400804000F06DFD074B18601A6892B2B2F507
:10347400004F1A6802DA52421A6008BDD24392B26F
:103484001A6008BDA406002010B502F075F940F2D8
:10349400A46440F2A0630022C2F20004C2F200035A
:1034A4004FF08040114622601A8000F045FDFFF77E
:1034B400D5FFBDE8104002F08BB900BF30B583B032
:1034C40001214FF4003001F0C1F8684600F09CFF80
:1034D400022501244FF0904069468DF804508DF880
:1034E40007404FF48073009300F036FF4FF0904094
:1034F40069464FF40073009300F02EFF4FF09040A4
:1035040008212A4600F08EFF2A464FF090400921F8
:1035140000F088FF2046214601F0B4F8002213464B
:103524004FF08040032100F0ABFE4FF080404FF697
:10353400FF7100F003FD4FF08040214600F010FDC4
:10354400FFF7A2FF03B030BD40F2A463C2F2000350
:10355400186870472DE9F0478AB040F2A8628146A6
:10356400C2F2000240F2AA63C2F2000300EBD07080
:103574004FF48067C4F60007118042104FF4802096
:1035840001210C4600264FF002084FF0030A1A806E
:1035940001F05CF8694638464FF4004300938DF817
:1035A40004408DF806608DF807808DF805A000F0C2
:1035B400D3FE38464FF4804100F032FF4FF480458B
:1035C4003846694600958DF804808DF805A08DF87D
:1035D40006608DF8074000F0BFFE2146402001F050
:1035E40051F8384609220E2100F01CFF40F26C53BA
:1035F400C2F200034CF66B221B68ADF81060C6F6ED
:103604005F32A2FB0312920D2804013A40F4C05029
:1036140002A909F1FF330393ADF80820ADF80A605D
:1036240000F024FC280440F4005005A96023ADF800
:103634001430ADF816400796ADF8208000F09EFCDB
:10364400280440F4C050082100F05AFD280440F436
:10365400C050214600F076FC280440F4C0502146B6
:1036640000F07EFC0AB0BDE8F08700BF38B94FF423
:103674008060C4F600004FF4004100F0D1BE4FF466
:103684008060C4F600004FF4004100F0C7BE00BFE4
:10369400002802D00CDD023000B2074BB3F9003031
:1036A4005A428242C8BF10B29842A8BF1846704717
:1036B400023800B2F1E700BFA806002008B5FFF702
:1036C400E7FF40F2AA63C2F20003B3F90010411805
:1036D4004FF4C050C4F20000BDE8084000F00EBD35
:1036E4000120FFF7C3BF00BF0020FFF7BFBF00BF2B
:1036F40070B540F2C06640F2AC6540F2B863C2F205
:103704000006C2F20005C2F2000340F2B4620024D3
:10371400C2F200025021C82034602C6000251560DC
:103724001C60FFF717FF2046FFF7C8FFBDE8704095
:10373400FFF7DABF70B52DED028B01F019FA264BB5
:103744001A68002A44D01A68821A08EE102AB8EEC1
:10375400488ADFED227A88EE278A214C1860FFF729
:10376400F3FE204A2668116815681F4B301A451964
:1037740007EE105AD3ED007ABAEEEF7A06EE900A0D
:10378400B8EEE66A47EE087A411AC3ED007A106093
:10379400164A92ED007AD3ED005A154BD3ED007A18
:1037A40065EEA77A46EE077A124B93ED007A06EEA1
:1037B400101AF8EEC66A46EE877AFDEEE77A17EE3F
:1037C400900A00B2FFF77AFF2068BDEC028B70BD4F
:1037D4009FED098AC1E700BFB806002000007A44C3
:1037E400C0060020AC060020B40600201C05002002
:1037F400BC060020B006002000000000DFED097ABE
:1038040007EE100AC7EE277A40F2C063C2F2000343
:103814009FED057A67EE877AFDEEE77AC3ED007ACD
:10382400704700BF0000B44300008043704700BFEE
:103834002DE9F04F2DED048B83B0DFF8E8A1DFF81C
:10384400E8B1DFF8E881724CFFF738FEFFF750FF6C
:10385400FFF746FF01F08CF9074602AD9FED6D7A44
:10386400DAED006A06EE100AF8EE467A46EE877A3A
:1038740046F2676945F8040DFCEEE79AB0EE479A04
:10388400DFED658A9FED658A0026C6F26669FFF75B
:10389400E5FD01F06DF9C01B06EE900AB8EE667AFC
:1038A400DAED007A87EE097A4FF07E5187EE277AB7
:1038B40017EE100AFDF7E4FA07EE100A27EE287A4D
:1038C40017EE100AFDF772FADBED007AB0EE486AE3
:1038D40006EE900A06EEE76A16EE100AFFF78EFF70
:1038E400FFF728FF00287ADBDFF834E107230246DC
:1038F4000021002B03DD013112099942FBD102F0B2
:103904000F02013B18F802200EF8012F591CEED1CA
:1039140001363F480A232372092100236372FFF70B
:1039240085FD89FB0632F317C3EBA20303EB830384
:10393400B6EB430F01D1FFF779FF28460A2101F0C6
:10394400B5FA019B19EE902A9A42A0D80020FFF7FD
:1039540055FF2D270026FFF781FDFFF7EBFEB0F1A1
:10396400000E24DB2E48072172460023002903DDC4
:10397400013312098B42FBD102F00F02013918F80E
:10398400023000F8013F4B1CEED1092120482023CE
:1039940023726672FFF74AFD28460A2101F086FA6F
:1039A400FFF75CFDFFF7C6FEB0F1000EDADA277010
:1039B400174CCEF1000E2046062172460023002942
:1039C40003DD013312098B42FBD102F00F020139EE
:1039D40018F8023000F8013F4A1CEED1D5E72D2338
:1039E40023700B4C4042A646062302460021002BBE
:1039F40003DD013112099942FBD102F00F02013BB0
:103A040018F802200EF8012F5A1CEED180E700BFEF
:103A1400C406002000007A44DB0F49400000B44291
:103A2400C30600202405002020050020307500086E
:103A340070B54FF480644FF40075C4F600042E464C
:103A4400A6614FF4FA7001F0FDF925854FF4FA7080
:103A540001F0F8F9F4E700BF2DE9F8432DED028BEE
:103A64001E4E1F4C4FF480654FF48077DFED1D8AA6
:103A74009FED1D8AC4F60005B846B14612E077EE04
:103A8400677AC4ED007AF4EEC87AF1EE10FA02D542
:103A94000023C9F800304FF4FA7001F0D3F920681C
:103AA400FFF7ACFEC5F818804FF4FA7001F0CAF9BC
:103AB4002F85336894ED007AF2EE0E7A002BDED176
:103AC40077EE277AC4ED007AF4EEE87AF1EE10FA94
:103AD400E1DD0123C9F80030DDE700BFD006002096
:103AE400D406002000003042000030C22DE9F0412D
:103AF40082B04FF400300121002400F0A7FD032719
:103B04004FF09040694601264FF002084FF40043FD
:103B140000938DF804408DF807408DF8057000F08F
:103B24001BFC4FF0904069464FF4784300938DF8A6
:103B340004808DF805708DF806408DF8076000F05C
:103B44000BFC4FF090400B210E2200F06BFC4FF069
:103B540090400C210E2200F065FC4FF090400D21A6
:103B6400224600F05FFC4FF090400E21224600F008
:103B740059FC4FF4806532464FF090400F21C4F653
:103B8400000500F04FFC4FF48020314600F05EFD4C
:103B940028466946082300938DF804408DF80740B1
:103BA4008DF8057000F0D8FB284669464CF22033A6
:103BB40000938DF804608DF806408DF807408DF869
:103BC400057000F0C9FB2846694644F2C803009317
:103BD4008DF804808DF805708DF806408DF8076027
:103BE40000F0BAFB28463946324600F01BFC284652
:103BF4000621072200F016FC284607210A4600F099
:103C040011FC28460E21092200F00CFC02B0BDE88C
:103C1400F08100BF2DE9F0418CB00120014600F095
:103C240031FD4020012100F02DFD40F26C53C2F221
:103C340000034CF66B221B68C6F65F32A2FB031826
:103C44004FEA9858002408F1FF384FF0804004A947
:103C54001FFA88F8ADF810404FF6FF730593ADF8DE
:103C64001840ADF8124000F001F94FF080402146B1
:103C7400012200F05DF92246234603214FF08040E3
:103C840000F0FEFA4FF4C05501A8C4F2000500F09C
:103C9400EFFA4FF08047384601A90623ADF80C30FF
:103CA40000F036FA284604A97C6201264FF4E15359
:103CB4000593ADF81080ADF81840ADF8124000F04F
:103CC400D5F8284607A96023ADF81C30ADF81E606E
:103CD40009940223ADF8283000F050F9284607A9CA
:103CE40000F09CF9284607A900F0BEF9284607A968
:103CF40000F0DEF92846082100F002FA2846314691
:103D040000F020F93846314600F02AF928463146B9
:103D140000F026F90CB0BDE8F08100BF38B94FF4CB
:103D24008060C4F600004FF4004100F079BB4FF40A
:103D34008060C4F600004FF4004100F06FBB00BF88
:103D4400FEE700BF704700BFFEE700BFFEE700BF0D
:103D540010B584B03F4CFFF75DF9204600F080FBBE
:103D640002F056FE042000F08BFD626848F21F53F7
:103D7400C5F2EB13A3FB02135909B1F1807F10D2F2
:103D84004EF210034FF46D42CEF20003CEF2000265
:103D940001395960F02182F8231000229A60072229
:103DA4001A604FF46D43CEF2000300244FF44070C8
:103DB40083F8234000F01CFDFFF780F9FFF79AF920
:103DC40002F070FDFFF792FEFFF724FFFFF776FB8A
:103DD400FFF78EFC4FF480604FF40071C4F60000CE
:103DE40000F01CFB0120FFF799FF1B4901230093FE
:103DF40080222346019402940394184800F08AFD1B
:103E040017490223009380222346019402940394C9
:103E1400144800F07FFD12490323009380222346B7
:103E2400019402940394104800F074FD00F068FEBD
:103E34004FF48060C4F600004FF4807100F0EEFA95
:103E44004FF48060C4F600004FF4007100F0E8FA0B
:103E5400FEE700BFD8060020B47600085D3A0008EB
:103E6400C8760008353A00083538000810B44FF415
:103E740080620388C4F200029BB2B0F1804F18BF85
:103E840090420BD04FF440644FF40062C4F200043B
:103E9400C4F20002904218BFA0423BD14FF68F7289
:103EA4004C881A4042EA04034FF4A0544FF4805261
:103EB400C4F20004C4F20002A04218BF90420BD026
:103EC4004FF41C42C4F2000290422AD04FF6FF4243
:103ED4000C891A4042EA040303804B68C3620C88CD
:103EE4004FF488424FF48043C4F20102C4F2010348
:103EF4000485984218BF904209D04FF49043C4F20D
:103F04000103984203D00123838210BC70478B7A4B
:103F14000386F8E74FF4B842C4F201029042C3D1D9
:103F2400BCE703804B68C3620B880385EBE700BFE3
:103F340001858282704700BF41627047C162704749
:103F4400406A7047038829B923F080031B041B0CC3
:103F5400038070479BB243F080030380704700BF27
:103F6400038829B923F001031B041B0C0380704749
:103F74009BB243F001030380704700BF2DE9F001B9
:103F8400038C23F001031B041B0C0384038C84881F
:103F9400028B4F888D89B1F800C022F0730223F0A0
:103FA400020312041B042F434FF488464FF4804548
:103FB400120C1B0CBFB2C4F20106C4F20105A4B278
:103FC40042EA0C023B43A84218BFB0420DD04FF462
:103FD4009045C4F20105A84207D0848002838A6810
:103FE40042630384BDE8F00170474FF6F775B1F8FA
:103FF4000EC0B1F812800F8A8E881D4045EA0C0C61
:104004004FF6FB734FF6FF4548EA07070CEA030334
:104014002540BCB233432C43DFE700BFF0B4038C2C
:1040240023F010031B041B0C0384038C8688028B6F
:104034000F888D894C8822F4E6421204120C23F076
:10404400200342EA07221B04B6B292B21B0C8680FC
:1040540043EA051302838A6843EA04139BB282632A
:104064000384F0BC704700BFF0B4038C23F4807366
:104074001B041B0C0384038C8688828B0F888D8918
:104084004C8822F07302120423F40073120C1B04F4
:10409400B6B23A431B0C868043EA052382838A68BE
:1040A40043EA04239BB2C2630384F0BC704700BF9D
:1040B400F0B4038C23F480531B041B0C0384038C83
:1040C4008688828B0F888D894C8822F4E6421204FC
:1040D400120C23F4005342EA07221B04B6B292B234
:1040E4001B0C868043EA053382838A6843EA0433DF
:1040F4009BB202640384F0BC704700BF4163704705
:10410400038B23F008031B041B0C19430183704722
:10411400F0B40B88048C4E88002B2FD0042B53D082
:10412400082B7DD08F880D8924F480542404240C1A
:104134000484828B038C22F4407223F400731205EE
:104144005B04120D5B0C42EA072243EA063342EA9F
:1041540005329BB292B243F4805382830384838BEF
:10416400CA8823F440631B041B0C8383838B9BB298
:1041740043EA02239BB28383F0BC70478D880F8986
:1041840024F001042404240C0484028B038C22F004
:10419400F3021204120C23F00A0342EA07121B046E
:1041A40092B21B0C46F001042A4323430283038486
:1041B400038BCA8823F00C031B041B0C0383038B9F
:1041C4009BB213430383D7E78D880F8924F010042F
:1041D4002404240C0484028B038C22F44072120500
:1041E40023F0A003120D1B0442EA07321B0C92B207
:1041F40043EA061342EA05229BB292B243F010034B
:1042040002830384038BCA8823F440631B041B0CBE
:104214000383038B9BB243EA02239BB20383ABE782
:104224008D880F8924F480742404240C0484828BE4
:10423400038C22F0F30223F4206312041B04120CF7
:104244001B0C42EA071243EA062392B29BB22A43AA
:1042540043F4807382830384838BCA8823F00C0322
:104264001B041B0C8383838B9BB21343838383E7DD
:1042740000230380438001228280C380038170472E
:1042840070B40589048B068C24F4407426F022064D
:1042940024F00304360425F007052404360C2D0409
:1042A400240C32432D0C44F4807442EA0313294352
:1042B40044F001049EB201810483068470BC7047FB
:1042C40010B48379002B2CD04FF48063C4F2010323
:1042D4000268196821EA02021A605968026821EA30
:1042E40002025A600279016802F1804202F58232C8
:1042F4001468214311609968026821EA02029A60F5
:10430400D968026821EA0202DA604279102A14D0DC
:1043140002F1804202F58232036811680B43136094
:1043240009E00379016803F1804303F582331A68D5
:1043340022EA01021A6010BC7047996802680A43B5
:104344009A60D96802680A43DA60F4E74FF480633C
:10435400C4F20103586170472DE9F00100221346AD
:104364000126032703E001330232102B25D00D6808
:1043740006FA03F42540A542F5D10C79013C012C41
:104384001ED907FA02F4E44305682C4004600C7952
:10439400056804FA02F42C430460C46807FA02F5C1
:1043A40024EA0504C460CC79C56804FA02F42C43F9
:1043B400C46001330232102BD9D1BDE8F00170473B
:1043C400D0F808C007FA02F4E44304EA0C0CC0F87D
:1043D40008C091F805C0D0F808800CFA02FC4CEA39
:1043E400080CC0F808C0B0F804C01FFA8CFC2CEA12
:1043F400050585808D79B0F804C005FA03F545EA12
:104404000C05ADB28580BFE700234FF6FF72026052
:104414000371022242718371C371704781617047D5
:104424000185704730B4CB08083301F0070150F818
:10443400235089000F2404FA01F425EA040440F807
:10444400234050F8234002FA01F2144340F8234079
:1044540030BC7047D823C4F242231860704700BFB1
:1044640070B44FF48053C4F202035A6802F00C0291
:10447400042A02D0082A00F0C5804FF49052C0F2FA
:104484007A0202604FF48053C4F202036C4C596800
:10449400C1F30311615C22FA01F141605D68C5F367
:1044A4000225655D21FA05F585605E68C6F3C226BE
:1044B400A45D21FA04F1C1605C68C4F38134614EE7
:1044C400345DB1FBF4F404615C68C4F3C3645E4E10
:1044D400345DB2FBF4F444611B6B5B0654BF48F2D9
:1044E40012034FF4004383614FF48053C4F2020378
:1044F4001B6BDC065DBF4FF49053C0F27A03C361BB
:10450400C2614FF48053C4F202031B6B9B065DBF70
:104514004FF49053C0F27A03036202624FF4805363
:10452400C4F202031C6B14F0030F08BF416219D0DC
:10453400196B01F00301012908BF426212D0196B03
:1045440001F00301022904BF4FF40043436209D080
:104554001B6B03F00303032B02BF4FF49053C0F211
:104564007A0343624FF48053C4F20203196B11F4CB
:10457400403F08BF85621CD0196B01F44031B1F58E
:10458400803F08BF826214D0196B01F44031B1F549
:10459400003F04BF4FF4004383620AD01B6B03F453
:1045A4004033B3F5403F02BF4FF49053C0F27A0357
:1045B40083624FF48053C4F20203196B11F4402F49
:1045C40008BFC5621CD0196B01F44021B1F5802FDE
:1045D40008BFC26214D01A6B02F44022B2F5002F55
:1045E40004BF4FF40043C3620AD01B6B03F440239F
:1045F400B3F5402F02BF4FF49053C0F27A03C36265
:1046040070BC704759685C68C1F383410231E203AE
:1046140007D44FF41062C0F23D0202FB01F20260C3
:1046240030E7DA6A4FF4905302F00F020132C0F21D
:104634007A03B3FBF2F201FB02F2026022E700BF4D
:10464400400500202C050020300500204FF4805345
:10465400C4F202035A6919B922EA0000586170478A
:1046640010435861704700BF4FF48053C4F20203F3
:104674009A6919B922EA0000986170471043986159
:10468400704700BF4FF48053C4F20203DA6919B9CA
:1046940022EA0000D86170471043D861704700BF18
:1046A40030B58DB004460D46036823F00103036062
:1046B40042688B6822F44052134343600068C9681F
:1046C4006A682B6920F4B0500A4320F00C001343AD
:1046D40003432360A2686B6922F440721343A3600E
:1046E4006846FFF7BDFE4FF46053C4F201039C42D9
:1046F40008BF099907D04FF48843C4F200039C42D1
:104704000CBF0A990B9923682A68180416D5490026
:10471400B1FBF2F302FB1311B1EB520F28BF0133CB
:104724002268120441BF4FF6F072C3F342011A40EB
:1047340041EA02039BB2A3810DB030BDB1FBF2F399
:1047440002FB1311E8E700BF036819B923F0010362
:104754000360704743F0010303607047C905C90D46
:1047640001857047808CC005C00D704710B4CBB272
:10477400C1F30721012404FA03F302290DD003290C
:1047840008BF08302AB9026822EA0303036010BC98
:104794007047026813430360F9E70430F2E700BF8F
:1047A400C36919420CBF00200120704710B4CAB27B
:1047B400C1F30723012404FA02F2A34214D0022B0A
:1047C4000CBF446884682240090CC369012404FABC
:1047D40001F119420CBF00200120002A0CBF002067
:1047E40000F0010010BC704704682240ECE700BFF1
:1047F4004FF46D4340F0BF60CEF2000340F400304C
:10480400D860704770B4C3787BB902784FF46143C1
:10481400510902F01F02CEF200032031012000FAF8
:1048240002F243F8212070BC70474FF46D43CEF27E
:1048340000034578DA6884780378D243C2F302220D
:10484400C2F104010F2626FA02F205FA01F1224010
:104854000A4303F16043120103F56143D2B283F8C2
:10486400002302784FF46143CEF20003510902F0B1
:104874001F02012000FA02F243F82120D3E700BF0F
:104884004EF21003CEF200031A6804280CBF42F063
:10489400040222F004021A60704700BF074B1A6832
:1048A400126822B94FF0FF32054B1A6070471B683B
:1048B400DB68DB685A68024B1A6070470C070020FB
:1048C4005005002010B50E4B19680E4A12680446B4
:1048D400486090420BD30C4A10681968043100F008
:1048E4002BFD0A4B1A68944238BF1C6010BD084A5D
:1048F400106819680431BDE8104000F01DBD00BF08
:10490400BC070020D80700200C0700205005002019
:10491400DC0700202DE9F84F07468A4616469946DB
:104924000A9DDDF830B0002800F08780042D02D9FC
:1049340000F01AFFFEE7502001F026F80446002894
:1049440000F09780BBF1000F00F08780C0F830B012
:104954004FEA86085846A5214246FBF7B5FE236B6D
:10496400013E03EB860323F0070B00261AF806200A
:10497400A31983F834201AF9063001360BB10A2E34
:10498400F4D1002304F1040A504684F83D30E56272
:10499400A564E36400F0C0FC04F1180000F0BCFC62
:1049A400C5F105032461A3616462584639464A4649
:1049B40000F0ACFE20600B9B03B11C6000F0DCFE39
:1049C400424B434F1A6801321A603A68002A3CD0BD
:1049D400DFF81891D9F8003033B93B68DB6A3D4EF3
:1049E4009D4228BF3C6000E03A4EDFF804C1DFF886
:1049F40004E1DCF80030E26ADEF800104FF0010850
:104A0400434408FA02FB02EB82004BEA010B06EB7B
:104A1400800051462364CCF80030CEF800B000F09A
:104A24007FFC00F0D5FED9F800301BB13B68DB6A8F
:104A34009D4205D84046BDE8F88F00F095FEFEE79C
:104A440000F086FE4046BDE8F88F3C601B68214EAE
:104A5400012B12D0DFF89490C7E74FEA860840464E
:104A640000F092FF206300287FF475AF204600F029
:104A7400EDFF4FF0FF30BDE8F88F904608EB88005B
:104A840006EB800008F1010800F03AFCB8F1050FCC
:104A9400F4D1DFF864B0DFF86480DFF85090584652
:104AA40000F02EFC404600F02BFC0B4800F028FCE4
:104AB4000A4800F025FC0A4800F022FC094BC3F820
:104AC40000B0094BC3F800808FE700BFE407002063
:104AD400BC07002044070020C0070020A8070020CE
:104AE400E80700200C070020DC0700201007002046
:104AF400E0070020FC070020180700202C070020F6
:104B040030B585B0002400940194029403941048B5
:104B140010494FF480722346FFF7FCFE0546012836
:104B240005D00DB105B030BD00F01EFEFEE700F06B
:104B340085FC05460128F4D100F016FE064B1D60E5
:104B4400064B1C6005B0BDE8304000F0A1BE00BFBC
:104B5400B94D0008F076000810070020D80700209F
:104B640040F2D473C2F200031A6801321A6070472B
:104B740010B500F001FE40F2D873C2F200031C68C5
:104B840000F026FE204610BD2DE9F84F454B1B686A
:104B9400002B7BD1444B1A6801321A601F688FB90D
:104BA400424B1A68126812B100F0DEFDFEE740497C
:104BB40018680C683F4A1C6008601368013313606E
:104BC400FFF76CFE3C4C23689F421BD24FF0000B56
:104BD4003A4E3B4D2A68D26A3A49096802EB82028E
:104BE40056F82220012A88BF4FF0010B09B9FFF7BC
:104BF400A9F8354A1268002A18BF4FF0010B58462D
:104C0400BDE8F88F2D4E2E4DDFF8C0904FF0000B0D
:104C140040F20C73C2F200031A6812681AB94FF01A
:104C2400FF322260D6E740F20C73C2F200031A6826
:104C3400D268D2F80C80D8F8041008F1040A8F4224
:104C440050462CD300F092FB08F11800D8F8281035
:104C540009B100F08BFBD8F82C10D9F8000001231F
:104C640003FA01FE01EB81014EEA000306EB810029
:104C74005146C9F8003000F053FB2868D8F82C10CE
:104C8400C26A914228BF4FF0010BC1E70D4B1A686D
:104C940001321A60FFF756F84FF0000BA9E72160C4
:104CA40098E700BFD4070020D80700200C07002095
:104CB400DC070020080700205005002044070020DE
:104CC400BC0700204007002000080020FC0700204B
:104CD4002DE9F84F304C236813B900F045FDFEE789
:104CE40000F04AFD2368013B23602368002B3BD17D
:104CF4002A4B1B68002B37D0DFF8B090284D294F82
:104D0400DFF8ACB0CA46012624E0DAF80C30DC68DF
:104D140004F1040804F1180000F028FB404600F0F8
:104D240025FBE36A396806FA03FE03EB83004EEAC7
:104D3400010240F24473C2F2000303EB80004146D7
:104D44003A6000F0EDFADBF80030E16ADB6A994280
:104D540028BF2E60D9F80030002BD6D1124C23681E
:104D640043B92C68012C14D0002400F031FD2046F6
:104D7400BDE8F88F2368002BF3D00126FFF704FF6A
:104D840000B12E602368013B23602368002BF5D11A
:104D9400E7E700F0DDFCE8E7D4070020E4070020A3
:104DA40000080020FC07002040070020C007002066
:104DB400BC0700202DE9F84F1D4E1E4D1E4CDFF898
:104DC4007C80DFF87C90B24606E0236837680133C4
:104DD4002360FFF77DFF5FB92B68002BF5D1D9F86D
:104DE4000030012B01D900F0B3FCFEF7A9FFF3E773
:104DF40000F0C2FCDAF80C30D3F80CB00BF104006C
:104E040000F0B4FAD8F80030013BC8F8003040F2A2
:104E14001472C2F200021368013B136000F0D8FC64
:104E2400DBF8300000F012FE584600F00FFED3E726
:104E3400A807002014070020D4070020E40700205E
:104E44004407002038B5024618B9BDE8384000F0E0
:104E54007FBC124B1968E9B91968114C013119600A
:104E6400104B1D6820680430551900F07FFA48B9CA
:104E740022680D4BD16A1A68012000FA01F122EA76
:104E840001021A602846FFF71DFDFFF721FF0028E5
:104E9400DBD038BD00F068FCFEE700BFD40700207B
:104EA400BC070020D8070020FC07002038B50028E4
:104EB4003BD0002936D01E4A1368002B2FD114682A
:104EC4000368013414601B4A12685C189A421BD3AD
:104ED400A34201D8A24219D2174D046028680430B5
:104EE40000F044FA48B92A68144BD16A1A680120C0
:104EF40000FA01F122EA01021A602046FFF7E2FCFF
:104F0400FFF7E6FE38B138BDA342E3D80460FFF7EB
:104F1400DFFE0028F7D1BDE8384000F019BC00F0EE
:104F240023FCFEE700F020FCFEE700F01DFCFEE79A
:104F3400D4070020D8070020BC070020FC0700206D
:104F440038B5214B1B68002B39D1204C204A136003
:104F54002268236812681B6B9A422AD923681D4968
:104F6400186B1A4D1422FBF7C3FAE0B91A4B1B68ED
:104F7400B3FA83F3DBB2C3F11F0303EB83031749D3
:104F84009B00CA18CB585BB153685B6802F10801F7
:104F940053608B4204BF5B685360DB68236038BD99
:104FA40000F0E2FBFEE7286829683431FEF7CEFE04
:104FB400DCE7206821683431FEF7C8FECEE7012221
:104FC400034B1A6038BD00BFD4070020BC07002083
:104FD40000080020DC760008FC07002044070020BD
:104FE40038B50D46E0B1134C2168183100F0A4F92E
:104FF4002068043000F0BAF948B922680E4BD16A2F
:105004001A68012000FA01F122EA01021A60691CFF
:1050140009D00A4B18682818BDE83840FFF752BC7D
:1050240000F0A2FBFEE7216805480431BDE83840E2
:1050340000F076B9BC070020FC070020D807002048
:10504400E807002038B50D46D0B10F4C216818315F
:1050540000F066F92068043000F088F948B9226845
:105064000A4BD16A1A68012000FA01F122EA01020E
:105074001A60074B18682818BDE83840FFF722BCAF
:1050840000F072FBFEE700BFBC070020FC07002015
:10509400D807002070B5C368DC68002C2CD004F15C
:1050A4001805284600F062F9154B1B68EBB9251D5D
:1050B400284600F05BF9134AE36A1168012606FAF0
:1050C40003F603EB83030E430F4800EB83002946EA
:1050D400166000F025F9E26A0C4B1B68DB6A9A4201
:1050E40008D901200A4B186070BD0A48294600F00F
:1050F40017F9F0E7002070BD00F036FBFEE700BFB3
:10510400D4070020FC07002044070020BC0700202F
:1051140000080020C007002008B530B1044B1A680D
:10512400044B1B6880E80C0008BD00F01DFBFEE783
:1051340008070020D807002038B504460D4620B3E0
:1051440001B300F019FB2968114B1A684B1C17D0E6
:105154002368104800688342636801D09A4202D2EF
:10516400D01A814204D8012400F032FB204638BD15
:105174008A1AD3182B602046FFF7CEFF0024F3E7EA
:105184000024F1E700F0F0FAFEE700F0EDFAFEE7A4
:10519400D80700200807002040F60003C2F20003ED
:1051A40001221A60704700BF054B1B6833B1054BE1
:1051B400186800280CBF02200020704701207047A7
:1051C40010070020D4070020F8B50446C0B1204DD4
:1051D400C36A2A68D26A934212D28269002AA1BFA2
:1051E4002A68D26AC2F1050282611A4E426903EB4F
:1051F400830306EB83039A4203D02B68DB6AC36202
:10520400F8BD071D384600F0B1F8F8B9E36A03EBBE
:10521400830256F82220CAB90F4A1168012000FA05
:1052240003F321EA030313602B681168DB6A012589
:1052340005FA03F503EB83000D43E36206EB8000FC
:1052440039461560BDE8F84000F06AB8024AEBE759
:10525400BC07002044070020FC070020F8B50446E2
:1052640048B1C36C002B2BD0C16A826C013BC36470
:10527400914200D00BB10020F8BD071D384600F064
:1052840075F800BBE26A164D02EB820355F8233031
:10529400E3B1144BA26C1868E2620126C2F1050165
:1052A40006FA02FE02EB82024EEA000EA16105EB51
:1052B40082003946C3F800E000F032F83046F8BD09
:1052C40000F052FAFEE7064D064BE3E7054B19687A
:1052D400012000FA02F221EA02021A60DAE700BFB2
:1052E40044070020FC070020044B1A681AB11A680E
:1052F400D16C0131D1641868704700BFBC0700202D
:1053040000F1080343604FF0FF328260C360036121
:1053140000230360704700BF00230361704700BF90
:1053240043684B609A688A609A6851609960086122
:10533400036801330360704730B40D686B1C18BFF9
:1053440000F1080201D10EE01A4653681C68A54218
:10535400FAD24B6099608A60516008610368013336
:10536400036030BC704702695368F2E742688168A1
:10537400036991608268416851605A68824204BF3F
:1053840082685A6000220261186801381860704708
:10539400F8B5114C00F0F0F925681DB1BDE8F840EE
:1053A40000F016BA0D4F0E4E3846FFF7A9FF3046EF
:1053B400FFF7A6FF0B4B1F600A200C212A460A4B5D
:1053C4001E6001F04FFC206018B1084901F00CFE8A
:1053D400E4E700F0C9F9FEE73408002008080020DB
:1053E4001C0800200408002038080020F876000873
:1053F40010B541600061914205D88169D21A8A4290
:1054040011D3012010BD994234BF002401249A42D3
:1054140028BF0024002CF4D1011D064B1868FFF7A7
:105424008BFF204610BD011D034B1868FFF784FF56
:10543400002010BD040800203808002000B585B005
:10544400FFF7A6FF0A4B1B6873B1002302228DE805
:105454000C0002930393074807494FF40072FFF7C7
:1054640059FA08B105B000BD00F07EF9FEE700BFAF
:1054740034080020515500080077000830B585B085
:10548400114D2C68F4B101910292039005290ADCB4
:10549400FFF78AFE02280ED00022286801A91346CD
:1054A40001F002FC05E0204601A91A46002301F0A0
:1054B4009DFC05B030BD286801A9089A002301F0BD
:1054C400F3FBF6E72046F4E7340800202DE9F04327
:1054D40083B01C4E4FF00008B1460CE0DB68DC687A
:1054E4001F68251D2846FFF741FF2046636A984739
:1054F400E369012B0BD033681A68002AEED1124AF3
:10550400116813600F4B196003B0BDE8F083A36901
:10551400002107EB030E20463A460B46BE4508D948
:10552400C4F804E02461D9F800002946FFF704FF19
:10553400E1E7CDF80080FFF7A1FF0028DBD100F000
:1055440013F9FEE704080020380800202DE9F04F85
:1055540087B05E4E5E4F5F4CB0464FF001093A682B
:105564001368D3F1010A38BF4FF0000A4FF0000B63
:10557400BAF1000F02D1D268D2F800B0FFF7F0FA06
:10558400FFF7F6FA05463268904278D38AF00103B1
:1055940083458CBF002303F00103C8F80000002BEF
:1055A40032D12068C5EB0B0101F032FDFFF790FB0F
:1055B40000286ED00022206803A9134601F068FC7D
:1055C4000028CCD0039B002BF4DB059D6B6913B141
:1055D400281DFFF7CBFEFFF7CBFA834633689842CA
:1055E40054D3039BC6F800B0092BE3D809FA03F39C
:1055F40013F4047A39D113F0C70F18D19B06D9D507
:10560400284600F023FAD5E7FFF762FB3B68DB6826
:10561400D3F80CA00AF10400FFF7A8FEDAF81C3056
:10562400012B39D0DAF8243050469847C2E7049B5E
:10563400A969284659185A46FFF7DAFE0128B9D154
:105644006B6A28469847EB69012BB3D1AA69CDF858
:1056540000A051462846049BD2185346FFF70EFF7C
:105664000028A7D100F080F8FEE70499A96149B3A6
:105674005A46284659445B46FFF7BAFE9AE7FFF7B5
:1056840025FFC8F80050FFF723FB93E7FFF71EFF41
:10569400A7E700F05DF88DE7DAF818105046594492
:1056A4002A465B46FFF7A4FE0128BBD100210091E6
:1056B40050465A460B46FFF7E1FE0028B2D100F0EF
:1056C40053F8FEE700F050F8FEE700BF3008002072
:1056D400040800203408002006480068006880F3AD
:1056E400088862B661B6BFF34F8FBFF36F8F00DFD8
:1056F40000BF000008ED00E0DFF80C00016841F491
:10570400700101607047000088ED00E04FF0807385
:1057140000E90A0045F2B173C0F6000340F80C3CFE
:1057240040F8202C6FF0020340F8243C44387047C2
:10573400064B19680868B0E8F04F80F30988BFF396
:105744006F8F4FF0000080F311887047BC07002072
:105754004EF60453CEF200034FF080521A60BFF3AA
:105764004F8FBFF36F8F7047EFF311804FF05001ED
:1057740081F311887047002008B5FFF7F5FF0A4A46
:10578400136801331360BFF34F8FBFF36F8F012B87
:1057940000D008BD4EF60453CEF200031B68DB06AE
:1057A400F7D0FFF7E1FFFEE75405002008B5054BED
:1057B4001B68013302D0FFF7D7FFFEE7FFF7D4FFE2
:1057C400FEE700BF5405002080F31188704700BF36
:1057D40008B5074B186818B10138186018B108BD2E
:1057E400FFF7C2FFFEE7BDE80840FFF7EDBF00BFCB
:1057F40054050020EFF30980BFF36F8F124B1A6832
:105804001EF0100F08BF20ED108A20E9F04F106041
:105814004DF8043D4FF0500080F31188FFF790FBE2
:105824004FF0000080F3118808BC19680868B0E8DC
:10583400F04F1EF0100F08BFB0EC108A80F30988F7
:10584400BFF36F8F704700BFBC07002008B5FFF798
:105854008BFFFFF799F930B14EF60453CEF20003F3
:105864004FF080521A600020BDE80840FFF7ACBF3B
:105874004EF214024EF21003CEF2000241F63F1132
:10588400CEF20003C0F20101116007221A607047D2
:1058940010B582B04FF46443CEF200031A78254861
:1058A4000192FF221A701B788DF803309DF8034093
:1058B4009DF8032004F0500407231F490C70036073
:1058C40011060DD5062300E00B469DF80320520077
:1058D400D2B28DF803209DF80320591E1206F3D48A
:1058E400019C4FF464411B02CEF200014EF620529B
:1058F400CEF2000203F4E063E4B203600C701368B8
:1059040043F470031360136843F070431360FFF7AC
:10591400AFFF0022094B1A60FFF7EEFE4EF6347318
:10592400CEF200031A6842F040421A60FFF7D4FE38
:10593400FFF73CFF400800203C08002054050020ED
:1059440008B5EFF305820F2A08D94EF2F033CEF2F0
:105954000003D35C0A4A12789A420ED84EF60C53CE
:10596400CEF200031A68074B1B6802F4E0629A4205
:1059740000D808BDFFF7F8FEFEE7FFF7F5FEFEE7E7
:105984003C0800204008002070B50446FFF7E8F802
:10599400294A136873B92948294E0360294921F01B
:1059A400070143F6F87586E80A00456081E821009E
:1059B40001231360002C38D004F108014B071CBFED
:1059C40021F0070108314A1E43F6F6739A422CD897
:1059D4001B4C236801E01C4613465A68914202D9C5
:1059E4001A68002AF7D1154A93421ED01A6825680E
:1059F40022605A68501A083510280DD95E18104CC8
:105A040070605960706800E01446226851688842EA
:105A1400FAD8326026605A680B4B19688A1A1A60E1
:105A2400FFF756F91DB1284670BDFFF751F9FEF78F
:105A34008BF90025284670BD4C48002050480020B2
:105A440044080020540800205805002038B50546B5
:105A5400C8B1FFF785F8A5F1080055F8044C0A4AC7
:105A640000E01A46136859688C42FAD8074945F889
:105A7400083C10600B6855F8042C9B180B60BDE8BB
:105A84003840FFF725B938BD4408002058050020E8
:105A940010B445F6444444F68C0345F64042C4F23F
:105AA4000004C2F20003C4F2000200204FF43F419C
:105AB40020601980116010BC704700BF70B500F001
:105AC4007F0528460E4600F05DF90446284600F09E
