:020000040800F2
:10000000008000201D0F010815CE000819CE000841
:100010001DCE000821CE000825CE000800000000FB
:10002000000000000000000000000000C5FB000808
:1000300029CE00080000000089FC0008E1FC00084F
:10004000710F0108710F0108710F0108710F01088C
:10005000710F0108710F0108710F0108710F01087C
:10006000710F0108710F010821DC0008710F0108F0
:10007000710F0108710F0108710F0108710F01085C
:10008000710F010865DB0008710F0108710F01088D
:10009000710F0108710F0108710F0108710F01083C
:1000A000710F0108710F0108710F0108710F01082C
:1000B000710F0108710F0108710F0108CDD90008F7
:1000C000710F0108710F0108710F0108710F01080C
:1000D000710F010831CE0008710F0108710F01087E
:1000E000710F0108710F0108710F0108710F0108EC
:1000F000710F0108710F01080000000000000000EE
:100100000000000000000000710F0108710F0108DD
:100110000000000000000000710F0108710F0108CD
:10012000710F0108710F0108710F0108710F0108AB
:10013000710F0108710F0108710F0108710F01089B
:10014000710F010800000000000000000000000026
:10015000000000000000000000000000000000009F
:100160000000000000000000710F01082DCE000803
:1001700071CE000800000000710F010800000000AF
:04018000710F0108F2
:1001880081F0004102E000BF83F0004330B54FEA40
:1001980041044FEA430594EA050F08BF90EA020FAD
:1001A8001FBF54EA000C55EA020C7FEA645C7FEA40
:1001B800655C00F0E2804FEA5454D4EB5555B8BF63
:1001C8006D420CDD2C4480EA020281EA030382EAD4
:1001D800000083EA010180EA020281EA0303362D66
:1001E80088BF30BD11F0004F4FEA01314FF4801C39
:1001F8004CEA113102D0404261EB410113F0004F4B
:100208004FEA03334CEA133302D0524263EB430301
:1002180094EA050F00F0A780A4F10104D5F1200E9F
:100228000DDB02FA0EFC22FA05F2801841F10001FA
:1002380003FA0EF2801843FA05F359410EE0A5F1CE
:1002480020050EF1200E012A03FA0EFC28BF4CF0FF
:10025800020C43FA05F3C01851EBE37101F00045B5
:1002680007D54FF0000EDCF1000C7EEB00006EEBC2
:100278000101B1F5801F1BD3B1F5001F0CD349084C
:100288005FEA30004FEA3C0C04F101044FEA4452A3
:1002980012F5800F80F09A80BCF1004F08BF5FEA2A
:1002A800500C50F1000041EB045141EA050130BD0A
:1002B8005FEA4C0C404141EB010111F4801FA4F1AD
:1002C8000104E9D191F0000F04BF01460020B1FA02
:1002D80081F308BF2033A3F10B03B3F120020CDA3A
:1002E8000C3208DD02F1140CC2F10C0201FA0CF018
:1002F80021FA02F10CE002F11402D8BFC2F1200C7D
:1003080001FA02F120FA0CFCDCBF41EA0C01904032
:10031800E41AA2BF01EB0451294330BD6FEA04047B
:100328001F3C1CDA0C340EDC04F11404C4F1200266
:1003380020FA04F001FA02F340EA030021FA04F378
:1003480045EA030130BDC4F10C04C4F1200220FACF
:1003580002F001FA04F340EA0300294630BD21FA0D
:1003680004F0294630BD94F0000F83F4801306BFD3
:1003780081F480110134013D4EE77FEA645C18BFC7
:100388007FEA655C29D094EA050F08BF90EA020F5E
:1003980005D054EA000C04BF1946104630BD91EA56
:1003A800030F1EBF0021002030BD5FEA545C05D159
:1003B8004000494128BF41F0004130BD14F5800498
:1003C8003CBF01F5801130BD01F0004545F0FE410C
:1003D80041F470014FF0000030BD7FEA645C1ABF41
:1003E800194610467FEA655C1CBF0B46024650EA78
:1003F800013406BF52EA033591EA030F41F40021A4
:1004080030BD00BF90F0000F04BF0021704730B529
:100418004FF4806404F132044FF000054FF00001FE
:1004280050E700BF90F0000F04BF0021704730B5BF
:100438004FF4806404F1320410F0004548BF404294
:100448004FF000013EE700BF42004FEAE2014FEAE9
:1004580031014FEA02701FBF12F07F4393F07F4FC4
:1004680081F06051704792F0000F14BF93F07F4FF6
:10047800704730B54FF4607401F0004521F0004139
:1004880020E700BF50EA010208BF704730B54FF0BF
:1004980000050AE050EA010208BF704730B511F0C4
:1004A800004502D5404261EB41014FF4806404F1FC
:1004B80032045FEA915C3FF4DCAE4FF003025FEA7E
:1004C800DC0C18BF03325FEADC0C18BF033202EB06
:1004D800DC02C2F1200300FA03FC20FA02F001FA60
:1004E80003FE40EA0E0021FA02F11444C1E600BFFF
:1004F80080B489B000AFF860B9607A60FB68FB61CE
:10050800BB68BB617B68032B23D9FA69BB691343BA
:1005180003F00303002B1CD1FB697B61BB693B61C2
:100528000FE07B691A683B691B689A4200D00BE0B0
:100538007B6904337B613B6904333B617B68043B23
:100548007B607B68032BECD87B69FB613B69BB61F3
:1005580013E012E0FB691A78BB691B789A4206D04F
:10056800FB691B781A46BB691B78D31A0BE0FB6939
:100578000133FB61BB690133BB617B685A1E7A603A
:10058800002BE7D1002318462437BD465DF8047BCD
:10059800704700BF844641EA000313F003036DD19E
:1005A800403A41D351F8043B40F8043B51F8043B2E
:1005B80040F8043B51F8043B40F8043B51F8043B35
:1005C80040F8043B51F8043B40F8043B51F8043B25
:1005D80040F8043B51F8043B40F8043B51F8043B15
:1005E80040F8043B51F8043B40F8043B51F8043B05
:1005F80040F8043B51F8043B40F8043B51F8043BF5
:1006080040F8043B51F8043B40F8043B51F8043BE4
:1006180040F8043B51F8043B40F8043B51F8043BD4
:1006280040F8043B403ABDD2303211D351F8043B74
:1006380040F8043B51F8043B40F8043B51F8043BB4
:1006480040F8043B51F8043B40F8043B103AEDD223
:100658000C3205D351F8043B40F8043B043AF9D274
:10066800043208D0D2071CBF11F8013B00F8013B47
:1006780001D30B8803806046704700BF082A13D354
:100688008B078DD010F003038AD0C3F10403D21A6C
:10069800DB071CBF11F8013B00F8013B80D331F8A0
:1006A800023B20F8023B7BE7043AD9D3013A11F820
:1006B800013B00F8013BF9D20B7803704B7843708B
:1006C8008B7883706046704780B48BB000AFF86059
:1006D800B9607A60FB687B62BB68DBB27B610DE066
:1006E8007B685A1E7A60002B06D07B6A5A1C7A6295
:1006F800BA68D2B21A7001E0FB685AE07B6A03F06C
:100708000303002BECD17B68032B45D97B6ABB61C3
:100718007B691A027B691343FB61FB691B04FA6955
:100728001343FB6120233B6209E0FA693B6A02FA42
:1007380003F3FA691343FB613B6A5B003B623B6A64
:100748001F2BF2D916E0BB691A1DBA61FA691A6043
:10075800BB691A1DBA61FA691A60BB691A1DBA61C8
:10076800FA691A60BB691A1DBA61FA691A607B686E
:10077800103B7B607B680F2BE5D807E0BB691A1D2F
:10078800BA61FA691A607B68043B7B607B68032B5B
:10079800F4D8BB697B6206E005E07B6A5A1C7A6282
:1007A800BA68D2B21A707B685A1E7A60002BF4D1EC
:1007B800FB6818462C37BD465DF8047B704700BFC0
:1007C8000EB480B585B000AF786007F12003BB6038
:1007D8007B689B6878681946FA69BB6801F098FDE0
:1007E800F860FB6818461437BD46BDE8804003B082
:1007F800704700BF0FB480B584B000AF40F2284303
:10080800C2F200031B68FB6007F11C037B60FB68F6
:100818009B68F8681946BA697B6801F079FDB86089
:10082800BB6818461037BD46BDE8804004B0704725
:100838000CB480B59EB000AF786039604FF4027395
:10084800BB823B68BB60BB68BB616FF000433B6128
:100858003B69FB614FF6FF73FB8207F184033B673B
:1008680007F1080378681946D7F880203B6F00F035
:100878006FF87867BB6800221A707B6F1846783764
:10088800BD46BDE8804002B0704700BF0EB480B5D9
:100898009FB000AF78604FF40273BB827B68BB6087
:1008A800BB68BB616FF000433B613B69FB614FF67E
:1008B800FF73FB8207F188033B6740F22843C2F2CB
:1008C80000031A6807F1080310461946D7F8842070
:1008D8003B6F00F03DF87867BB6800221A707B6FA9
:1008E80018467C37BD46BDE8804003B0704700BF5E
:1008F80020F0030110F00300C0F1000051F8043BA0
:1009080000F1040C4FEACC0C6FF000021CBF22FA75
:100918000CF213434FF0010C4CEA0C2C4CEA0C4C33
:10092800A3EB0C0222EA030212EACC1204BF51F82C
:10093800043B0430F4D013F0FF0F1FBF013013F451
:100948007F4F013013F47F0F18BF013070471846EE
:100958002DE9F047C4B008AFF860B9607A603B6031
:10096800F86805F0BFF903461B68C7F8B430D7F834
:10097800B400FFF7BDFFC7F8B0004FF000024FF01A
:100988000003C7E926230023C7F8E0300023C7F88F
:1009980088300023C7F8C4300023C7F8C030BB68CC
:1009A8009B899BB203F08003002B1CD0BB681B699A
:1009B800002B18D1F868402105F0A4FB0246BB685B
:1009C8001A60BB681A68BB681A61BB681B68002B91
:1009D80006D1FB680C221A604FF0FF3301F018BBF8
:1009E800BB6840225A61D7F804A007F13C04FC67B1
:1009F8000023C7F884300023C7F880300023C7F8E5
:100A0800EC30554601E00AF1010A9AF80030002B53
:100A180003D09AF80030252BF5D152462B46D61A2A
:100A2800002E25D0256033466360D7F884203346EE
:100A38001344C7F884300834D7F880300133C7F836
:100A48008030D7F88030072B0DDD07F17C03F8687C
:100A5800B9681A4607F052F80346002B01D001F096
:100A6800C2BA07F13C04D7F8EC303344C7F8EC308D
:100A78009AF80030002B01D101F0A1BAC7F8ACA058
:100A88000AF1010A00260023C7F8D0300023C7F86E
:100A9800E8304FF0FF33C7F8E430002387F8A3307D
:100AA8000023C7F8DC30534603F1010A1B78994646
:100AB800A9F12003582B00F22D8401A151F823F04D
:100AC8002D0C00081D1300081D1300083F0C00081A
:100AD8001D1300081D1300081D1300081D1300082E
:100AE8001D1300081D130008450C00086B0C0008B6
:100AF8001D130008650C0008730C00081D1300087E
:100B0800D70C0008DD0C0008DD0C0008DD0C00081F
:100B1800DD0C0008DD0C0008DD0C0008DD0C000809
:100B2800DD0C0008DD0C00081D1300081D1300086B
:100B38001D1300081D1300081D1300081D130008CD
:100B48001D1300081D1300081D1300081D130008BD
:100B5800410D0008990D00081D130008990D0008A3
:100B68001D1300081D1300081D1300081D1300089D
:100B78000B0D00081D1300081D1300083310000892
:100B88001D1300081D1300081D1300081D1300087D
:100B98001D1300082B1100081D1300081D13000861
:100BA800691100081D1300081D1300081D13000813
:100BB8001D1300081D1300081D1300081D1300084D
:100BC8001D1300081D1300081D130008230D00083D
:100BD800450D0008990D0008990D0008990D0008A9
:100BE800110D0008450D00081D1300081D1300080D
:100BF800170D00081D130008EB0F00083710000838
:100C0800711000081D0D00081D130008A110000830
:100C18001D1300082F1100081D1300081D130008DC
:100C28007711000897F8A330002B03D1202387F809
:100C3800A33038E737E746F0010634E73B681A1D6A
:100C48003A601B68C7F8E830D7F8E830002B00DBBB
:100C580029E7D7F8E8305B42C7F8E83046F00406E1
:100C680021E72B2387F8A3301DE7534603F1010A38
:100C78001B789946B9F12A0F0FD13B681A1D3A60C3
:100C88001B68C7F8E430D7F8E430002B04DA4FF0DB
:100C9800FF33C7F8E43006E705E74FF000080DE03A
:100CA80043469B0043445B001A46A9F1300302EB1C
:100CB8000308534603F1010A1B789946A9F130034A
:100CC800092BEDD948EAE873C7F8E430F0E646F0B6
:100CD8008006E8E64FF0000843469B0043445B006B
:100CE8001A46A9F1300302EB0308534603F1010A3F
:100CF8001B789946A9F13003092BEDD9C7F8E8808C
:100D0800D6E646F00806CEE646F04006CBE646F0C4
:100D18001006C8E646F01006C5E607F114053B685C
:100D28001A1D3A601B68DBB22B700123C7F8C83064
:100D3800002387F8A330FEE246F0100606F0100301
:100D4800002B04D03B681A1D3A601B680EE006F0C1
:100D58004003002B06D03B681A1D3A601B689BB203
:100D68001BB203E03B681A1D3A601B68C7F8D8300D
:100D7800D7F8D830002B07DAD7F8D8305B42C7F855
:100D8800D8302D2387F8A330012387F8D73022E203
:100D980006F00803002B0BD03B68073323F007034A
:100DA80003F108023A60D3E90023C7E926230AE0E1
:100DB8003B68073323F0070303F108023A60D3E9DD
:100DC8000023C7E92623D7E926231046194606F04B
:100DD8006FFC0346012B21D1D7E92623104619467B
:100DE8004FF000024FF000030AF0B2FC0346002B5C
:100DF80002D02D2387F8A330B9F1470F04DC41F264
:100E0800E445C0F6010503E041F2E845C0F60105F6
:100E18000323C7F8C83026F080068CE2D7E92623DA
:100E28001046194606F044FC0346002B11D1B9F1CF
:100E3800470F04DC41F2EC45C0F6010503E041F23E
:100E4800F045C0F601050323C7F8C83026F0800630
:100E580071E2D7F8E430B3F1FF3F03D10623C7F8B6
:100E6800E4300CE0B9F1670F02D0B9F1470F06D1B1
:100E7800D7F8E430002B02D10123C7F8E43046F458
:100E88008076D7E92623D7F8E4100091019607F178
:100E9800A201029107F194010391CDF8109007F196
:100EA800880105910695F86801F0B8F80546B9F18A
:100EB800670F02D0B9F1470F0FD1D7F8943013F16B
:100EC800030F05DBD7F89420D7F8E4309A4202DD07
:100ED800A9F1020901E04FF06709B9F1650F24DCB7
:100EE800D7F89430013BC7F89430D7F8943007F11D
:100EF8008C02104619464A4601F022F9C7F8E0006C
:100F0800D7F88830D7F8E0201344C7F8C830D7F8A6
:100F18008830012B03DC06F00103002B58D0D7F8EA
:100F2800C8300133C7F8C83052E0B9F1660F28D18C
:100F3800D7F89430002B14DDD7F89430C7F8C830B0
:100F4800D7F8E430002B03D106F00103002B3BD087
:100F5800D7F8E4300133D7F8C8201344C7F8C830AD
:100F680032E0D7F8E430002B03D106F00103002B60
:100F780003D0D7F8E430023300E00123C7F8C830C3
:100F880022E0D7F89420D7F888309A420DDBD7F8BA
:100F98009430C7F8C83006F00103002B14D0D7F8F6
:100FA800C8300133C7F8C8300EE0D7F89430002BAA
:100FB80004DCD7F89430C3F1020300E00123D7F82A
:100FC80088201344C7F8C830D7F89430C7F8DC3005
:100FD80097F8A230002B03D02D2387F8A330AAE17D
:100FE800A9E106F01003002B07D03B681A1D3A60F0
:100FF8001B68D7F8EC201A6015E006F04003002BB8
:1010080008D03B681A1D3A601B68D7F8EC2092B2EA
:101018001A8008E03B681A1D3A601B68D7F8EC2074
:101028001A6000F0CABF00F0C8BF46F0100606F00C
:101038001003002B04D03B681A1D3A601B680DE0B2
:1010480006F04003002B05D03B681A1D3A601B6868
:101058009BB203E03B681A1D3A601B68C7F8D8309A
:10106800002387F8D730B3E03B681A1D3A601B6845
:10107800C7F8D830022387F8D73041F2F443C0F6D6
:101088000103C7F8C43046F0020630233B744FF022
:10109800780978237B749BE03B681A1D3A601D68C9
:1010A800002387F8A330002D0BD141F20855C0F674
:1010B8000105D7F8E430062B28BF0623C7F8C83047
:1010C8002EE0D7F8E430002B23DBD7F8E4302846AD
:1010D80000211A4605F04EFBC7F8A800D7F8A8303B
:1010E800002B10D0D7F8A8202B46D31AC7F8C83041
:1010F800D7F8C820D7F8E4309A4209DDD7F8E430A9
:10110800C7F8C8300CE0D7F8E430C7F8C83007E0B3
:1011180006E02846FFF7ECFB0346C7F8C8300AE1AB
:1011280009E146F0100606F01003002B04D03B68D6
:101138001A1D3A601B680DE006F04003002B05D02D
:101148003B681A1D3A601B689BB203E03B681A1D96
:101158003A601B68C7F8D830012387F8D73037E0E2
:1011680041F21053C0F60103C7F8C43005E041F25C
:10117800F443C0F60103C7F8C43006F01003002B8F
:1011880004D03B681A1D3A601B680DE006F0400366
:10119800002B05D03B681A1D3A601B689BB203E020
:1011A8003B681A1D3A601B68C7F8D830022387F8D5
:1011B800D73006F00103002B0AD0D7F8D830002B1F
:1011C80006D030233B745FFA89F37B7446F002063D
:1011D800002387F8A330D7F8E430C7F8D030D7F821
:1011E800D030002B01DB26F0800607F114052835E6
:1011F800D7F8D830002B03D1D7F8E430002B76D0BD
:1012080097F8D730012B22D0022B4FD0002B61D179
:10121800013DD7F8D830DBB203F00703DBB2303337
:10122800DBB22B70D7F8D830DB08C7F8D830D7F83E
:10123800D830002BECD106F00103002B06D02B7818
:10124800302B03D0013D30232B704FE04EE0D7F810
:10125800D830092B07D8013DD7F8D830DBB2303366
:10126800DBB22B7042E0013DD7F8D8104CF6CD43E5
:10127800CCF6CC43A3FB0123DA0813469B001344A6
:101288005B00CA1AD3B23033DBB22B70D7F8D82040
:101298004CF6CD43CCF6CC43A3FB0213DB08C7F8CE
:1012A800D830D7F8D830002BDDD11FE0013DD7F872
:1012B800D83003F00F03D7F8C42013441B782B70E1
:1012C800D7F8D8301B09C7F8D830D7F8D830002B52
:1012D800ECD10BE041F22455C0F601052846FFF792
:1012E80007FB0346C7F8C83000BF24E00AE097F8B8
:1012F800D730002B06D106F00103002B02D0013DA8
:1013080030232B7007F1140328332A469B1AC7F899
:10131800C83010E0B9F1000F01D100F050BE07F15C
:1013280014055FFA89F32B700123C7F8C83000232E
:1013380087F8A33000BFD7F8C820D7F8D0309A4232
:10134800A8BF1346C7F8CC3097F8A330002B04D0B9
:10135800D7F8CC300133C7F8CC3006F00203002BA5
:1013680004D0D7F8CC300233C7F8CC3006F0840369
:10137800002B57D1D7F8E820D7F8CC30C3EB0208B8
:10138800B8F1000F4EDD25E041F24453C0F60103E9
:10139800236010236360D7F884301033C7F8843093
:1013A8000834D7F880300133C7F88030D7F8803058
:1013B800072B0DDD07F17C03F868B9681A4606F0BB
:1013C8009DFB0346002B01D000F00DBE07F13C0445
:1013D800A8F11008B8F1100FD6DC41F24453C0F65A
:1013E8000103236043466360D7F8842043461344CF
:1013F800C7F884300834D7F880300133C7F8803014
:10140800D7F88030072B0DDD07F17C03F868B96841
:101418001A4606F073FB0346002B01D000F0E3BD2B
:1014280007F13C0497F8A330002B21D007F1A30360
:10143800236001236360D7F884300133C7F8843010
:101448000834D7F880300133C7F88030D7F88030B7
:10145800072B0DDD07F17C03F868B9681A4606F01A
:101468004DFB0346002B01D000F0BDBD07F13C0445
:1014780006F00203002B21D007F11003236002239A
:101488006360D7F884300233C7F884300834D7F85B
:1014980080300133C7F88030D7F88030072B0DDD56
:1014A80007F17C03F868B9681A4606F027FB03467B
:1014B800002B01D000F097BD07F13C0406F084032F
:1014C800802B57D1D7F8E820D7F8CC30C3EB0208E7
:1014D800B8F1000F4EDD25E041F25453C0F6010388
:1014E800236010236360D7F884301033C7F8843042
:1014F8000834D7F880300133C7F88030D7F8803007
:10150800072B0DDD07F17C03F868B9681A4606F069
:10151800F5FA0346002B01D000F065BD07F13C0445
:10152800A8F11008B8F1100FD6DC41F25453C0F6F8
:101538000103236043466360D7F88420434613447D
:10154800C7F884300834D7F880300133C7F88030C2
:10155800D7F88030072B0DDD07F17C03F868B968F0
:101568001A4606F0CBFA0346002B01D000F03BBD2B
:1015780007F13C04D7F8D020D7F8C830C3EB0208ED
:10158800B8F1000F4EDD25E041F25453C0F60103D7
:10159800236010236360D7F884301033C7F8843091
:1015A8000834D7F880300133C7F88030D7F8803056
:1015B800072B0DDD07F17C03F868B9681A4606F0B9
:1015C8009DFA0346002B01D000F00DBD07F13C0445
:1015D800A8F11008B8F1100FD6DC41F25453C0F648
:1015E8000103236043466360D7F8842043461344CD
:1015F800C7F884300834D7F880300133C7F8803012
:10160800D7F88030072B0DDD07F17C03F868B9683F
:101618001A4606F073FA0346002B01D000F0E3BC2B
:1016280007F13C0406F48073002B25D12560D7F818
:10163800C8306360D7F88420D7F8C8301344C7F897
:1016480084300834D7F880300133C7F88030D7F8B1
:101658008030072B40F3298407F17C03F868B968C8
:101668001A4606F04BFA0346002B01D000F0BBBC2B
:1016780007F13C0400F019BCB9F1650F40F3FD8295
:10168800D7E92623104619464FF000024FF0000311
:101698000AF054F80346002B00F0AC8041F24053A6
:1016A800C0F60103236001236360D7F88430013357
:1016B800C7F884300834D7F880300133C7F8803051
:1016C800D7F88030072B0DDD07F17C03F868B9687F
:1016D8001A4606F013FA0346002B01D000F083BC2B
:1016E80007F13C04D7F89420D7F888309A4204DBF5
:1016F80006F00103002B00F0D883D7F8B43023603C
:10170800D7F8B0306360D7F88420D7F8B0301344E6
:10171800C7F884300834D7F880300133C7F88030F0
:10172800D7F88030072B0DDD07F17C03F868B9681E
:101738001A4606F0E3F90346002B01D000F053BC2B
:1017480007F13C04D7F8883003F1FF38B8F1000FEF
:1017580040F3AB8325E041F25453C0F60103236004
:1017680010236360D7F884301033C7F88430083406
:10177800D7F880300133C7F88030D7F88030072B8E
:101788000DDD07F17C03F868B9681A4606F0B6F96A
:101798000346002B01D000F026BC07F13C04A8F159
:1017A8001008B8F1100FD6DC41F25453C0F601030B
:1017B800236043466360D7F8842043461344C7F840
:1017C80084300834D7F880300133C7F88030D7F830
:1017D8008030072B40F3698307F17C03F868B96808
:1017E8001A4606F08BF90346002B00D0FBE307F1FD
:1017F8003C045AE3D7F89430002B00F3CC8041F234
:101808004053C0F60103236001236360D7F8843096
:101818000133C7F884300834D7F880300133C7F86B
:101828008030D7F88030072B0CDD07F17C03F8688F
:10183800B9681A4606F062F90346002B00D0D2E3D5
:1018480007F13C04D7F89430002B08D1D7F888303A
:10185800002B04D106F00103002B00F02683D7F8F3
:10186800B4302360D7F8B0306360D7F88420D7F855
:10187800B0301344C7F884300834D7F880300133C7
:10188800C7F88030D7F88030072B0CDD07F17C03D0
:10189800F868B9681A4606F031F90346002B00D0FB
:1018A800A1E307F13C04D7F89430C3F10008B8F17C
:1018B800000F4CDD24E041F25453C0F601032360CD
:1018C80010236360D7F884301033C7F884300834A5
:1018D800D7F880300133C7F88030D7F88030072B2D
:1018E8000CDD07F17C03F868B9681A4606F006F9BA
:1018F8000346002B00D076E307F13C04A8F110085A
:10190800B8F1100FD7DC41F25453C0F6010323603D
:1019180043466360D7F8842043461344C7F88430AD
:101928000834D7F880300133C7F88030D7F88030D2
:10193800072B0CDD07F17C03F868B9681A4606F036
:10194800DDF80346002B00D04DE307F13C04256089
:10195800D7F888306360D7F88420D7F888301344E4
:10196800C7F884300834D7F880300133C7F880309E
:10197800D7F88030072B40F3988207F17C03F8688A
:10198800B9681A4606F0BAF80346002B00D02AE3D5
:1019980007F13C0489E2C7F8A450D7F88830D7F893
:1019A800A42013441A462B46D31AC7F8BC30D7F8DC
:1019B800BC20D7F8DC309A4203DDD7F8DC30C7F812
:1019C800BC30D7F8BC30002B21DD2560D7F8BC30FF
:1019D8006360D7F88420D7F8BC301344C7F8843044
:1019E8000834D7F880300133C7F88030D7F8803012
:1019F800072B0CDD07F17C03F868B9681A4606F076
:101A08007DF80346002B00D0EDE207F13C04D7F83F
:101A1800BC3023EAE373D7F8DC20D31AC7F8BC300C
:101A2800D7F8BC30002B52DD27E041F25453C0F602
:101A38000103236010236360D7F884301033C7F89C
:101A480084300834D7F880300133C7F88030D7F8AD
:101A58008030072B0CDD07F17C03F868B9681A465B
:101A680006F04CF80346002B00D0BCE207F13C041A
:101A7800D7F8BC30103BC7F8BC30D7F8BC30102BB7
:101A8800D3DC41F25453C0F601032360D7F8BC30CD
:101A98006360D7F88420D7F8BC301344C7F8843083
:101AA8000834D7F880300133C7F88030D7F8803051
:101AB800072B0CDD07F17C03F868B9681A4606F0B5
:101AC8001DF80346002B00D08DE207F13C04D7F83F
:101AD800DC301D44D7F89420D7F888309A4203DBCD
:101AE80006F00103002B23D0D7F8B4302360D7F8D1
:101AF800B0306360D7F88420D7F8B0301344C7F803
:101B080084300834D7F880300133C7F88030D7F8EC
:101B18008030072B0CDD07F17C03F868B9681A469A
:101B280005F0ECFF0346002B00D05CE207F13C0413
:101B3800D7F88830D7F8A42013441A462B46D31A6E
:101B4800C7F8B830D7F88820D7F89430D21AD7F821
:101B5800B8309A4206DAD7F88820D7F89430D31AE2
:101B6800C7F8B830D7F8B830002B21DD2560D7F892
:101B7800B8306360D7F88420D7F8B8301344C7F872
:101B880084300834D7F880300133C7F88030D7F86C
:101B98008030072B0CDD07F17C03F868B9681A461A
:101BA80005F0ACFF0346002B00D01CE207F13C0413
:101BB800D7F88820D7F89430D21AD7F8B83023EA63
:101BC800E373D31AC7F8B830D7F8B830002B53DD11
:101BD80027E041F25453C0F60103236010236360E9
:101BE800D7F884301033C7F884300834D7F88030F9
:101BF8000133C7F88030D7F88030072B0CDD07F1A8
:101C08007C03F868B9681A4605F078FF0346002B8C
:101C180000D0E8E107F13C04D7F8B830103BC7F82A
:101C2800B830D7F8B830102BD3DC41F25453C0F693
:101C380001032360D7F8B8306360D7F88420D7F859
:101C4800B8301344C7F884300834D7F880300133EB
:101C5800C7F88030D7F88030072B0DDD07F17C03FB
:101C6800F868B9681A4605F049FF0346002B00D00A
:101C7800B9E107F13C0418E117E1D7F88830012BE6
:101C880004DC06F00103002B00F0CC802560012362
:101C98006360D7F884300133C7F884300834D7F844
:101CA80080300133C7F88030D7F88030072B0CDD3F
:101CB80007F17C03F868B9681A4605F01FFF034668
:101CC800002B00D08FE107F13C040135D7F8B43080
:101CD8002360D7F8B0306360D7F88420D7F8B030E5
:101CE8001344C7F884300834D7F880300133C7F874
:101CF8008030D7F88030072B0CDD07F17C03F868BB
:101D0800B9681A4605F0FAFE0346002B00D06AE1CE
:101D180007F13C04D7E92623104619464FF0000284
:101D28004FF0000309F00AFD0346002B24D125607B
:101D3800D7F88830013B6360D7F88420D7F888301B
:101D48001344013BC7F884300834D7F88030013396
:101D5800C7F88030D7F88030072B62DD07F17C03A5
:101D6800F868B9681A4605F0C9FE0346002B00D08A
:101D780039E107F13C0474E0D7F8883003F1FF3803
:101D8800B8F1000F4DDD24E041F25453C0F60103D1
:101D9800236010236360D7F884301033C7F8843089
:101DA8000834D7F880300133C7F88030D7F880304E
:101DB800072B0CDD07F17C03F868B9681A4605F0B3
:101DC8009DFE0346002B00D00DE107F13C04A8F16D
:101DD8001008B8F1100FD7DC41F25453C0F60103D4
:101DE800236043466360D7F8842043461344C7F80A
:101DF80084300834D7F880300133C7F88030D7F8FA
:101E08008030072B0DDD07F17C03F868B9681A46A6
:101E180005F074FE0346002B00D0E4E007F13C0413
:101E28001FE01EE0256001236360D7F8843001338A
:101E3800C7F884300834D7F880300133C7F88030C9
:101E4800D7F88030072B0CDD07F17C03F868B968F8
:101E58001A4605F053FE0346002B00D0C3E007F1F5
:101E68003C0407F18C032360D7F8E0306360D7F8AF
:101E78008420D7F8E0301344C7F884300834D7F802
:101E880080300133C7F88030D7F88030072B0CDD5D
:101E980007F17C03F868B9681A4605F02FFE034677
:101EA800002B00D09FE007F13C0406F00403002B50
:101EB80055D0D7F8E820D7F8CC30C3EB0208B8F1F2
:101EC800000F4CDD24E041F24453C0F601032360C7
:101ED80010236360D7F884301033C7F8843008348F
:101EE800D7F880300133C7F88030D7F88030072B17
:101EF8000CDD07F17C03F868B9681A4605F0FEFDA9
:101F08000346002B00D06EE007F13C04A8F110084E
:101F1800B8F1100FD7DC41F24453C0F60103236037
:101F280043466360D7F8842043461344C7F8843097
:101F38000834D7F880300133C7F88030D7F88030BC
:101F4800072B0CDD07F17C03F868B9681A4605F021
:101F5800D5FD0346002B00D045E007F13C04D7F837
:101F6800CC20D7F8E8309A42A8BF1346D7F8EC201F
:101F78001344C7F8EC30D7F88430002B0AD007F1A7
:101F88007C03F868B9681A4605F0B8FD0346002BCB
:101F980000D028E00023C7F8803007F13C04D7F8C8
:101FA800C030002B09D0F868D7F8C01003F0BEFB8A
:101FB8000023C7F8C030FEF724BDFEF722BDD7F8CE
:101FC8008430002B0AD007F17C03F868B9681A46F8
:101FD80005F094FD0346002B00D004E00023C7F869
:101FE800803007F13C04D7F8C030002B04D0F868E3
:101FF800D7F8C01003F09AFBBB689B899BB203F02B
:102008004003002B02D1D7F8EC3001E04FF0FF334A
:102018001846F037BD46BDE8F08700BF80B592B0DE
:1020280006AFF860C7E90023D7E90023C7E904230E
:102038007B69002B09DA3B683B607B6883F00043CF
:102048007B603B6C2D221A7002E03B6C00221A70F8
:10205800BB6C662B02D0BB6C462B02D10323FB6200
:102068000AE0BB6C652B02D0BB6C452B02D1BB6B65
:102078000133BB630223FB62FB6A0093BB6B0193D2
:102088007B6C029307F12003039307F11C0304936D
:10209800F868D7E9002301F04FFF7862BB6C672B23
:1020A80002D0BB6C472B04D1FB6B03F00103002B60
:1020B8003AD0BB6B7A6A1344BB62BB6C662B02D006
:1020C800BB6C462B18D17B6A1B78302B0FD1D7E914
:1020D80000014FF000024FF0000309F02FFB034608
:1020E800002B04D1BB6BC3F101027B6C1A607B6CC3
:1020F8001B68BA6A1344BB62D7E900014FF00002BB
:102108004FF0000309F01AFB0346002B00D107E04B
:10211800BB6AFB6104E0FB695A1CFA6130221A7041
:10212800FA69BB6A9A42F6D3FB691A467B6AD21AE5
:10213800FB6C1A607B6A18463037BD4680BD00BF0D
:10214800B0B487B000AFF860B9607A60FC68234625
:102158005C1C7A68D2B21A70BB68002B07DABB68BD
:102168005B42BB6023465C1C2D221A7003E02346A9
:102178005C1C2B221A7007F110050735BB68092B68
:1021880034DD013DB96846F26763C6F2666383FBD6
:1021980001239A10CB17D21A13469B0013445B00F5
:1021A800CA1AD3B23033DBB22B70BA6846F267630F
:1021B800C6F2666383FB02139910D317CB1ABB6070
:1021C800BB68092BDDDC013DBB68DBB23033DBB219
:1021D8002B7005E023465C1C2A46551C12781A70A1
:1021E80007F1100307339D42F4D30AE023465C1C31
:1021F80030221A7023465C1CBA68D2B23032D2B28E
:102208001A702246FB68D31A18461C37BD46B0BC64
:10221800704700BF90B5ADF2844D00AF07F10C04D4
:1022280020600C4607F108010A603A1D1360A38973
:1022380023F002039BB2A7F82034636EC7F8783402
:10224800E389A7F82234E369C7F83034636AC7F82A
:10225800383407F11403C7F81434D7F81434C7F81E
:1022680024344FF48063C7F81C34D7F81C34C7F8FB
:1022780028340023C7F82C3407F10C0007F2144166
:1022880007F108023B1D006812681B6800F040F85F
:10229800C7F87C04D7F87C34002B0EDB07F10C025E
:1022A80007F214431068194603F050F80346002B50
:1022B80003D04FF0FF33C7F87C34B7F820349BB213
:1022C80003F04003002B04D0A38943F040039BB2E2
:1022D800A381D7F87C34184607F28447BD4690BDE1
:1022E80080B586B000AFF860B9607A6040F22843E4
:1022F800C2F200031B681846F968BA687B6800F0E8
:1023080007F878617B6918461837BD4680BD00BF5D
:102318002DE9F047C6B008AFF860B9607A603B6055
:10232800F86803F0DFFC03461B68C7F8BC30D7F831
:10233800BC00FEF7DDFAC7F8B8004FF000024FF016
:102348000003C7E926230023C7F8E8300023C7F8AD
:1023580088300023C7F8CC300023C7F8C830FB68A2
:10236800C7F8B430D7F8B430002B08D0D7F8B43059
:102378009B6B002B03D1D7F8B40003F041F9BB687D
:102388009B899BB203F40053002B0CD1BB689B893B
:1023980043F400539AB2BB689A81BB685B6E23F41E
:1023A8000052BB685A66BB689B899BB203F008035E
:1023B800002B03D0BB681B69002B0AD1F868B968E9
:1023C80001F034FC0346002B03D04FF0FF3301F03B
:1023D8002BBBBB689B899BB203F01A030A2B0DD158
:1023E800BB68DB891BB2002B08DBF868B9687A6820
:1023F8003B68FFF70FFF034601F016BBD7F804A0B0
:1024080007F13C04FC670023C7F884300023C7F8B1
:1024180080300023C7F8F430554601E00AF1010A7C
:102428009AF80030002B03D09AF80030252BF5D10C
:1024380052462B46D61A002E25D0256033466360B7
:10244800D7F8842033461344C7F884300834D7F8C3
:1024580080300133C7F88030D7F88030072B0DDD86
:1024680007F17C03F868B9681A4606F08BFE034644
:10247800002B01D001F0C3BA07F13C04D7F8F430BF
:102488003344C7F8F4309AF80030002B01D101F03A
:10249800A2BAC7F8B0A00AF1010A00260023C7F8BB
:1024A800D8300023C7F8F0304FF0FF33C7F8EC30CE
:1024B800002387F8A7300023C7F8E430534603F118
:1024C800010A1B789946A9F12003582B00F22E84A3
:1024D80001A151F823F000BF45260008352D00085A
:1024E800352D000857260008352D0008352D000821
:1024F800352D0008352D0008352D0008352D00082C
:102508005D26000883260008352D00087D26000872
:102518008B260008352D0008EF260008F526000850
:10252800F5260008F5260008F5260008F526000817
:10253800F5260008F5260008F5260008F526000807
:10254800352D0008352D0008352D0008352D0008DB
:10255800352D0008352D0008352D0008352D0008CB
:10256800352D0008352D000859270008B127000827
:10257800352D0008B1270008352D0008352D000835
:10258800352D0008352D000823270008352D0008B3
:10259800352D00084B2A0008352D0008352D000878
:1025A800352D0008352D0008352D0008432B00086F
:1025B800352D0008352D0008812B0008352D000821
:1025C800352D0008352D0008352D0008352D00085B
:1025D800352D0008352D0008352D0008352D00084B
:1025E800352D00083B2700085D270008B1270008A3
:1025F800B1270008B1270008292700085D2700082F
:10260800352D0008352D00082F270008352D000826
:10261800032A00084F2A0008892A000835270008DD
:10262800352D0008B92A0008352D0008472B000869
:10263800352D0008352D00088F2B000897F8A73096
:10264800002B03D1202387F8A73037E736E746F079
:10265800010633E73B681A1D3A601B68C7F8F0307B
:10266800D7F8F030002B00DB28E7D7F8F0305B42D2
:10267800C7F8F03046F0040620E72B2387F8A73088
:102688001CE7534603F1010A1B789946B9F12A0F52
:102698000FD13B681A1D3A601B68C7F8EC30D7F8B1
:1026A800EC30002B04DA4FF0FF33C7F8EC3005E7C5
:1026B80004E74FF000080DE043469B0043445B00ED
:1026C8001A46A9F1300302EB0308534603F1010A45
:1026D8001B789946A9F13003092BEDD948EAE8732C
:1026E800C7F8EC30EFE646F08006E7E64FF0000862
:1026F80043469B0043445B001A46A9F1300302EBB2
:102708000308534603F1010A1B789946A9F13003DF
:10271800092BEDD9C7F8F080D5E646F00806CDE6D6
:1027280046F04006CAE646F01006C7E646F0100630
:10273800C4E607F114053B681A1D3A601B68DBB252
:102748002B700123C7F8D030002387F8A730FEE2AA
:1027580046F0100606F01003002B04D03B681A1D43
:102768003A601B680EE006F04003002B06D03B6879
:102778001A1D3A601B689BB21BB203E03B681A1D26
:102788003A601B68C7F8E030D7F8E030002B07DA6A
:10279800D7F8E0305B42C7F8E0302D2387F8A73040
:1027A800012387F8DF3022E206F00803002B0BD064
:1027B8003B68073323F0070303F108023A60D3E9C3
:1027C8000023C7E926230AE03B68073323F0070301
:1027D80003F108023A60D3E90023C7E92623D7E9C1
:1027E80026231046194604F063FF0346012B21D126
:1027F800D7E92623104619464FF000024FF0000390
:1028080008F0A6FF0346002B02D02D2387F8A73037
:10281800B9F1470F04DC41F26455C0F6010503E045
:1028280041F26855C0F601050323C7F8D03026F0F9
:1028380080068CE2D7E926231046194604F038FFB3
:102848000346002B11D1B9F1470F04DC41F26C5556
:10285800C0F6010503E041F27055C0F601050323F7
:10286800C7F8D03026F0800671E2D7F8EC30B3F123
:10287800FF3F03D10623C7F8EC300CE0B9F1670F2E
:1028880002D0B9F1470F06D1D7F8EC30002B02D1AE
:102898000123C7F8EC3046F48076D7E92623D7F829
:1028A800EC100091019607F1A601029107F194013D
:1028B8000391CDF8109007F1880105910695F86805
:1028C80001F0B8F80546B9F1670F02D0B9F1470F22
:1028D8000FD1D7F8943013F1030F05DBD7F8942004
:1028E800D7F8EC309A4202DDA9F1020901E04FF075
:1028F8006709B9F1650F24DCD7F89430013BC7F8B4
:102908009430D7F8943007F18C02104619464A469D
:1029180001F022F9C7F8E800D7F88830D7F8E8209E
:102928001344C7F8D030D7F88830012B03DC06F001
:102938000103002B58D0D7F8D0300133C7F8D03076
:1029480052E0B9F1660F28D1D7F89430002B14DD86
:10295800D7F89430C7F8D030D7F8EC30002B03D133
:1029680006F00103002B3BD0D7F8EC300133D7F841
:10297800D0201344C7F8D03032E0D7F8EC30002B21
:1029880003D106F00103002B03D0D7F8EC30023353
:1029980000E00123C7F8D03022E0D7F89420D7F818
:1029A80088309A420DDBD7F89430C7F8D03006F05B
:1029B8000103002B14D0D7F8D0300133C7F8D0303A
:1029C8000EE0D7F89430002B04DCD7F89430C3F12C
:1029D800020300E00123D7F888201344C7F8D03059
:1029E800D7F89430C7F8E43097F8A630002B03D016
:1029F8002D2387F8A730AAE1A9E106F01003002BE0
:102A080007D03B681A1D3A601B68D7F8F4201A6093
:102A180015E006F04003002B08D03B681A1D3A6009
:102A28001B68D7F8F42092B21A8008E03B681A1D98
:102A38003A601B68D7F8F4201A6000F0CABF00F0AB
:102A4800C8BF46F0100606F01003002B04D03B6800
:102A58001A1D3A601B680DE006F04003002B05D0F4
:102A68003B681A1D3A601B689BB203E03B681A1D5D
:102A78003A601B68C7F8E030002387F8DF30B3E01E
:102A88003B681A1D3A601B68C7F8E030022387F8D4
:102A9800DF3041F27453C0F60103C7F8CC3046F07A
:102AA800020630233B744FF0780978237B749BE04F
:102AB8003B681A1D3A601D68002387F8A730002D6F
:102AC8000BD141F28855C0F60105D7F8EC30062B3A
:102AD80028BF0623C7F8D0302EE0D7F8EC30002BFB
:102AE80023DBD7F8EC30284600211A4603F042FED3
:102AF800C7F8AC00D7F8AC30002B10D0D7F8AC2012
:102B08002B46D31AC7F8D030D7F8D020D7F8EC30F6
:102B18009A4209DDD7F8EC30C7F8D0300CE0D7F886
:102B2800EC30C7F8D03007E006E02846FDF7E0FEB5
:102B38000346C7F8D0300AE109E146F0100606F06E
:102B48001003002B04D03B681A1D3A601B680DE087
:102B580006F04003002B05D03B681A1D3A601B683D
:102B68009BB203E03B681A1D3A601B68C7F8E03067
:102B7800012387F8DF3037E041F29053C0F60103B4
:102B8800C7F8CC3005E041F27453C0F60103C7F82A
:102B9800CC3006F01003002B04D03B681A1D3A60B5
:102BA8001B680DE006F04003002B05D03B681A1D9A
:102BB8003A601B689BB203E03B681A1D3A601B68C9
:102BC800C7F8E030022387F8DF3006F00103002B56
:102BD8000AD0D7F8E030002B06D030233B745FFAD8
:102BE80089F37B7446F00206002387F8A730D7F8EC
:102BF800EC30C7F8D830D7F8D830002B01DB26F0F6
:102C0800800607F114052835D7F8E030002B03D1EA
:102C1800D7F8EC30002B76D097F8DF30012B22D094
:102C2800022B4FD0002B61D1013DD7F8E030DBB249
:102C380003F00703DBB23033DBB22B70D7F8E03098
:102C4800DB08C7F8E030D7F8E030002BECD106F00D
:102C58000103002B06D02B78302B03D0013D302305
:102C68002B704FE04EE0D7F8E030092B07D8013D34
:102C7800D7F8E030DBB23033DBB22B7042E0013DF5
:102C8800D7F8E0104CF6CD43CCF6CC43A3FB012398
:102C9800DA0813469B0013445B00CA1AD3B23033D8
:102CA800DBB22B70D7F8E0204CF6CD43CCF6CC4302
:102CB800A3FB0213DB08C7F8E030D7F8E030002B9D
:102CC800DDD11FE0013DD7F8E03003F00F03D7F85E
:102CD800CC2013441B782B70D7F8E0301B09C7F8B9
:102CE800E030D7F8E030002BECD10BE041F2A455EE
:102CF800C0F601052846FDF7FBFD0346C7F8D030AE
:102D080000BF24E00AE097F8DF30002B06D106F078
:102D18000103002B02D0013D30232B7007F114036F
:102D280028332A469B1AC7F8D03010E0B9F1000FB3
:102D380001D100F050BE07F114055FFA89F32B703A
:102D48000123C7F8D030002387F8A73000BFD7F891
:102D5800D020D7F8D8309A42A8BF1346C7F8D43045
:102D680097F8A730002B04D0D7F8D4300133C7F830
:102D7800D43006F00203002B04D0D7F8D430023345
:102D8800C7F8D43006F08403002B57D1D7F8F020C9
:102D9800D7F8D430C3EB0208B8F1000F4EDD25E0B8
:102DA80041F2C453C0F60103236010236360D7F8CF
:102DB80084301033C7F884300834D7F880300133B2
:102DC800C7F88030D7F88030072B0DDD07F17C037A
:102DD800F868B9681A4606F0D5F90346002B01D001
:102DE80000F00DBE07F13C04A8F11008B8F1100F6F
:102DF800D6DC41F2C453C0F6010323604346636046
:102E0800D7F8842043461344C7F884300834D7F8E9
:102E180080300133C7F88030D7F88030072B0DDDBC
:102E280007F17C03F868B9681A4606F0ABF903465F
:102E3800002B01D000F0E3BD07F13C0497F8A73060
:102E4800002B21D007F1A703236001236360D7F883
:102E580084300133C7F884300834D7F88030013320
:102E6800C7F88030D7F88030072B0DDD07F17C03D9
:102E7800F868B9681A4606F085F90346002B01D0B0
:102E880000F0BDBD07F13C0406F00203002B21D081
:102E980007F11003236002236360D7F884300233FC
:102EA800C7F884300834D7F880300133C7F8803049
:102EB800D7F88030072B0DDD07F17C03F868B96877
:102EC8001A4606F05FF90346002B01D000F097BDC3
:102ED80007F13C0406F08403802B57D1D7F8F02083
:102EE800D7F8D430C3EB0208B8F1000F4EDD25E067
:102EF80041F2D453C0F60103236010236360D7F86E
:102F080084301033C7F884300834D7F88030013360
:102F1800C7F88030D7F88030072B0DDD07F17C0328
:102F2800F868B9681A4606F02DF90346002B01D057
:102F380000F065BD07F13C04A8F11008B8F1100FC6
:102F4800D6DC41F2D453C0F60103236043466360E4
:102F5800D7F8842043461344C7F884300834D7F898
:102F680080300133C7F88030D7F88030072B0DDD6B
:102F780007F17C03F868B9681A4606F003F90346B6
:102F8800002B01D000F03BBD07F13C04D7F8D82056
:102F9800D7F8D030C3EB0208B8F1000F4EDD25E0BA
:102FA80041F2D453C0F60103236010236360D7F8BD
:102FB80084301033C7F884300834D7F880300133B0
:102FC800C7F88030D7F88030072B0DDD07F17C0378
:102FD800F868B9681A4606F0D5F80346002B01D000
:102FE80000F00DBD07F13C04A8F11008B8F1100F6E
:102FF800D6DC41F2D453C0F6010323604346636034
:10300800D7F8842043461344C7F884300834D7F8E7
:1030180080300133C7F88030D7F88030072B0DDDBA
:1030280007F17C03F868B9681A4606F0ABF803465E
:10303800002B01D000F0E3BC07F13C0406F48073D8
:10304800002B25D12560D7F8D0306360D7F88420CD
:10305800D7F8D0301344C7F884300834D7F8803014
:103068000133C7F88030D7F88030072B40F3298424
:1030780007F17C03F868B9681A4606F083F8034636
:10308800002B01D000F0BBBC07F13C0400F019BCD8
:10309800B9F1650F40F3FD82D7E92623104619469A
:1030A8004FF000024FF0000308F048FB0346002BE6
:1030B80000F0AC8041F2C053C0F601032360012345
:1030C8006360D7F884300133C7F884300834D7F800
:1030D80080300133C7F88030D7F88030072B0DDDFA
:1030E80007F17C03F868B9681A4606F04BF80346FE
:1030F800002B01D000F083BC07F13C04D7F89420E2
:10310800D7F888309A4204DB06F00103002B00F060
:10311800D883D7F8BC302360D7F8B8306360D7F8C5
:103128008420D7F8B8301344C7F884300834D7F867
:1031380080300133C7F88030D7F88030072B0DDD99
:1031480007F17C03F868B9681A4606F01BF80346CD
:10315800002B01D000F053BC07F13C04D7F88830AD
:1031680003F1FF38B8F1000F40F3AB8325E041F2DB
:10317800D453C0F60103236010236360D7F884306A
:103188001033C7F884300834D7F880300133C7F8D3
:103198008030D7F88030072B0DDD07F17C03F86805
:1031A800B9681A4605F0EEFF0346002B01D000F07F
:1031B80026BC07F13C04A8F11008B8F1100FD6DCC2
:1031C80041F2D453C0F60103236043466360D7F845
:1031D800842043461344C7F884300834D7F8803035
:1031E8000133C7F88030D7F88030072B40F3698364
:1031F80007F17C03F868B9681A4605F0C3FF03466F
:10320800002B00D0FBE307F13C045AE3D7F89430D5
:10321800002B00F3CC8041F2C053C0F601032360B9
:1032280001236360D7F884300133C7F88430083449
:10323800D7F880300133C7F88030D7F88030072BB3
:103248000CDD07F17C03F868B9681A4605F09AFFA7
:103258000346002B00D0D2E307F13C04D7F89430A2
:10326800002B08D1D7F88830002B04D106F00103D1
:10327800002B00F02683D7F8BC302360D7F8B8308D
:103288006360D7F88420D7F8B8301344C7F884307F
:103298000834D7F880300133C7F88030D7F8803049
:1032A800072B0CDD07F17C03F868B9681A4605F0AE
:1032B80069FF0346002B00D0A1E307F13C04D7F8CF
:1032C8009430C3F10008B8F1000F4CDD24E041F25E
:1032D800D453C0F60103236010236360D7F8843009
:1032E8001033C7F884300834D7F880300133C7F872
:1032F8008030D7F88030072B0CDD07F17C03F868A5
:10330800B9681A4605F03EFF0346002B00D076E365
:1033180007F13C04A8F11008B8F1100FD7DC41F20E
:10332800D453C0F60103236043466360D7F8842072
:1033380043461344C7F884300834D7F88030013343
:10334800C7F88030D7F88030072B0CDD07F17C03F5
:10335800F868B9681A4605F015FF0346002B00D037
:103368004DE307F13C042560D7F888306360D7F84F
:103378008420D7F888301344C7F884300834D7F845
:1033880080300133C7F88030D7F88030072B40F3FE
:10339800988207F17C03F868B9681A4605F0F2FECE
:1033A8000346002B00D02AE307F13C0489E2C7F862
:1033B800A850D7F88830D7F8A82013441A462B46C7
:1033C800D31AC7F8C430D7F8C420D7F8E4309A42E3
:1033D80003DDD7F8E430C7F8C430D7F8C430002B81
:1033E80021DD2560D7F8C4306360D7F88420D7F88A
:1033F800C4301344C7F884300834D7F88030013318
:10340800C7F88030D7F88030072B0CDD07F17C0334
:10341800F868B9681A4605F0B5FE0346002B00D0D7
:10342800EDE207F13C04D7F8C43023EAE373D7F898
:10343800E420D31AC7F8C430D7F8C430002B52DDC3
:1034480027E041F2D453C0F60103236010236360E0
:10345800D7F884301033C7F884300834D7F8803070
:103468000133C7F88030D7F88030072B0CDD07F11F
:103478007C03F868B9681A4605F084FE0346002BF9
:1034880000D0BCE207F13C04D7F8C430103BC7F8C1
:10349800C430D7F8C430102BD3DC41F2D453C0F673
:1034A80001032360D7F8C4306360D7F88420D7F8C5
:1034B800C4301344C7F884300834D7F88030013357
:1034C800C7F88030D7F88030072B0CDD07F17C0374
:1034D800F868B9681A4605F055FE0346002B00D077
:1034E8008DE207F13C04D7F8E4301D44D7F8942066
:1034F800D7F888309A4203DB06F00103002B23D06B
:10350800D7F8BC302360D7F8B8306360D7F8842088
:10351800D7F8B8301344C7F884300834D7F8803067
:103528000133C7F88030D7F88030072B0CDD07F15E
:103538007C03F868B9681A4605F024FE0346002B98
:1035480000D05CE207F13C04D7F88830D7F8A8200F
:1035580013441A462B46D31AC7F8C030D7F8882028
:10356800D7F89430D21AD7F8C0309A4206DAD7F88A
:103578008820D7F89430D31AC7F8C030D7F8C030AD
:10358800002B21DD2560D7F8C0306360D7F8842090
:10359800D7F8C0301344C7F884300834D7F88030DF
:1035A8000133C7F88030D7F88030072B0CDD07F1DE
:1035B8007C03F868B9681A4605F0E4FD0346002B59
:1035C80000D01CE207F13C04D7F88820D7F89430E3
:1035D800D21AD7F8C03023EAE373D31AC7F8C03039
:1035E800D7F8C030002B53DD27E041F2D453C0F6A2
:1035F8000103236010236360D7F884301033C7F8C1
:1036080084300834D7F880300133C7F88030D7F8D1
:103618008030072B0CDD07F17C03F868B9681A467F
:1036280005F0B0FD0346002B00D0E8E107F13C04AB
:10363800D7F8C030103BC7F8C030D7F8C030102BCF
:10364800D3DC41F2D453C0F601032360D7F8C0306D
:103658006360D7F88420D7F8C0301344C7F88430A3
:103668000834D7F880300133C7F88030D7F8803075
:10367800072B0DDD07F17C03F868B9681A4605F0D9
:1036880081FD0346002B00D0B9E107F13C0418E1A5
:1036980017E1D7F88830012B04DC06F00103002B72
:1036A80000F0CC80256001236360D7F884300133B3
:1036B800C7F884300834D7F880300133C7F8803031
:1036C800D7F88030072B0CDD07F17C03F868B96860
:1036D8001A4605F057FD0346002B00D08FE107F18D
:1036E8003C040135D7F8BC302360D7F8B8306360A4
:1036F800D7F88420D7F8B8301344C7F88430083492
:10370800D7F880300133C7F88030D7F88030072BDE
:103718000CDD07F17C03F868B9681A4605F032FD3C
:103728000346002B00D06AE107F13C04D7E92623C1
:10373800104619464FF000024FF0000307F0FEFF55
:103748000346002B24D12560D7F88830013B6360FD
:10375800D7F88420D7F888301344013BC7F8843061
:103768000834D7F880300133C7F88030D7F8803074
:10377800072B62DD07F17C03F868B9681A4605F083
:1037880001FD0346002B00D039E107F13C0474E049
:10379800D7F8883003F1FF38B8F1000F4DDD24E089
:1037A80041F2D453C0F60103236010236360D7F8B5
:1037B80084301033C7F884300834D7F880300133A8
:1037C800C7F88030D7F88030072B0CDD07F17C0371
:1037D800F868B9681A4605F0D5FC0346002B00D0F6
:1037E8000DE107F13C04A8F11008B8F1100FD7DC7F
:1037F80041F2D453C0F60103236043466360D7F80F
:10380800842043461344C7F884300834D7F88030FE
:103818000133C7F88030D7F88030072B0DDD07F16A
:103828007C03F868B9681A4605F0ACFC0346002B1F
:1038380000D0E4E007F13C041FE01EE0256001230E
:103848006360D7F884300133C7F884300834D7F878
:1038580080300133C7F88030D7F88030072B0CDD73
:1038680007F17C03F868B9681A4605F08BFC034633
:10387800002B00D0C3E007F13C0407F18C03236060
:10388800D7F8E8306360D7F88420D7F8E8301344D5
:10389800C7F884300834D7F880300133C7F880304F
:1038A800D7F88030072B0CDD07F17C03F868B9687E
:1038B8001A4605F067FC0346002B00D09FE007F18D
:1038C8003C0406F00403002B55D0D7F8F020D7F8B5
:1038D800D430C3EB0208B8F1000F4CDD24E041F20C
:1038E800C453C0F60103236010236360D7F8843003
:1038F8001033C7F884300834D7F880300133C7F85C
:103908008030D7F88030072B0CDD07F17C03F8688E
:10391800B9681A4605F036FC0346002B00D06EE065
:1039280007F13C04A8F11008B8F1100FD7DC41F2F8
:10393800C453C0F60103236043466360D7F884206C
:1039480043461344C7F884300834D7F8803001332D
:10395800C7F88030D7F88030072B0CDD07F17C03DF
:10396800F868B9681A4605F00DFC0346002B00D02C
:1039780045E007F13C04D7F8D420D7F8F0309A4254
:10398800A8BF1346D7F8F4201344C7F8F430D7F883
:103998008430002B0AD007F17C03F868B9681A460E
:1039A80005F0F0FB0346002B00D028E00023C7F801
:1039B800803007F13C04D7F8C830002B09D0F868EC
:1039C800D7F8C81001F0B2FE0023C7F8C830FEF7D8
:1039D80023BDFEF721BDD7F88430002B0AD007F1AC
:1039E8007C03F868B9681A4605F0CCFB0346002B3F
:1039F80000D004E00023C7F8803007F13C04D7F872
:103A0800C830002B04D0F868D7F8C81001F08EFE33
:103A1800BB689B899BB203F04003002B02D1D7F807
:103A2800F43001E04FF0FF331846F837BD46BDE8E3
:103A3800F08700BF80B592B006AFF860C7E90023F1
:103A4800D7E90023C7E904237B69002B09DA3B681F
:103A58003B607B6883F000437B603B6C2D221A70CF
:103A680002E03B6C00221A70BB6C662B02D0BB6C68
:103A7800462B02D10323FB620AE0BB6C652B02D004
:103A8800BB6C452B02D1BB6B0133BB630223FB62CA
:103A9800FB6A0093BB6B01937B6C029307F12003D5
:103AA800039307F11C030493F868D7E9002300F097
:103AB80043FA7862BB6C672B02D0BB6C472B04D1EE
:103AC800FB6B03F00103002B3AD0BB6B7A6A1344FB
:103AD800BB62BB6C662B02D0BB6C462B18D17B6AD1
:103AE8001B78302B0FD1D7E900014FF000024FF0BF
:103AF800000307F023FE0346002B04D1BB6BC3F180
:103B080001027B6C1A607B6C1B68BA6A1344BB6247
:103B1800D7E900014FF000024FF0000307F00EFE56
:103B28000346002B00D107E0BB6AFB6104E0FB6998
:103B38005A1CFA6130221A70FA69BB6A9A42F6D3A3
:103B4800FB691A467B6AD21AFB6C1A607B6A1846B4
:103B58003037BD4680BD00BFB0B487B000AFF86055
:103B6800B9607A60FC6823465C1C7A68D2B21A7025
:103B7800BB68002B07DABB685B42BB6023465C1C52
:103B88002D221A7003E023465C1C2B221A7007F1C1
:103B980010050735BB68092B34DD013DB96846F2CD
:103BA8006763C6F2666383FB01239A10CB17D21AA8
:103BB80013469B0013445B00CA1AD3B23033DBB2FE
:103BC8002B70BA6846F26763C6F2666383FB02131A
:103BD8009910D317CB1ABB60BB68092BDDDC013DFC
:103BE800BB68DBB23033DBB22B7005E023465C1CCC
:103BF8002A46551C12781A7007F1100307339D42A4
:103C0800F4D30AE023465C1C30221A7023465C1C5D
:103C1800BA68D2B23032D2B21A702246FB68D31ACE
:103C280018461C37BD46B0BC704700BF90B585B07C
:103C380000AF78600C4640F22843C2F200031B68CC
:103C4800FB60FB68002B06D0FB689B6B002B02D146
:103C5800F86801F0D5FCA3899BB203F00803002B98
:103C680033D1A3899BB203F01003002B0AD17B68E0
:103C780009221A60A38943F040039BB2A3814FF045
:103C8800FF335DE0A3899BB203F00403002B17D038
:103C9800236B002B0BD0226B04F140039A4204D013
:103CA800236B7868194601F041FD00232363A3893B
:103CB80023F024039BB2A38100236360236923605C
:103CC800A38943F008039BB2A3812369002B0FD17A
:103CD800A3899BB203F40073002B05D0A3899BB280
:103CE80003F08003002B03D07868214602F02AF8FD
:103CF800A3899BB203F00103002B05D00023A36026
:103D080063695B42A36109E0A3899BB203F00203E4
:103D1800002B01D1636900E00023A3602369002B15
:103D28000DD1A3899BB203F08003002B07D0A38990
:103D380043F040039BB2A3814FF0FF3300E0002320
:103D480018461437BD4690BD80B590B000AF786076
:103D580039603B681B69FB637B681A69FB6B9A4295
:103D680001DA0023E3E03B6814337B62FB6B013B21
:103D7800FB63FB6B9B007A6A13443B627B681433DA
:103D8800FB62FB6B9B00FA6A1344BB62BB6A1A684E
:103D98003B6A1B680133B2FBF3F33B633B6B002BBD
:103DA8005AD00023BB6300237B637B6A1A1D7A62A7
:103DB8001B68FB61FB699BB23A6B02FB03F27B6BEE
:103DC8001344BB61FB691B0C3A6B02FB03F2BB6932
:103DD8001B0C13447B617B691B0C7B63FB6A1B68B0
:103DE8009AB2BB699BB2D21ABB6B13443B613B6965
:103DF8001B14BB63FB6A1B681A0C7B699BB2D21A43
:103E0800BB6B1344FB60FB681B14BB63FB6A1A1D86
:103E1800FA62FA6811043A6992B20A431A607A6A35
:103E28003B6A9A42C1D9BB6A1B68002B14D17B68D4
:103E38001433FB6202E0FB6B013BFB63BB6A043B90
:103E4800BB62BA6AFB6A9A4203D9BB6A1B68002B39
:103E5800F1D07B68FA6B1A617868396803F0D4F896
:103E68000346002B62DB3B6B01333B630023BB63E0
:103E780000237B637B681433FB623B6814337B62EB
:103E88007B6A1A1D7A621B68FB61FB699AB27B6BBD
:103E98001344BB61FB691A0CBB691B0C13447B619F
:103EA8007B691B0C7B63FB6A1B689AB2BB699BB27C
:103EB800D21ABB6B13443B613B691B14BB63FB6A9F
:103EC8001B681A0C7B699BB2D21ABB6B1344FB604C
:103ED800FB681B14BB63FB6A1A1DFA62FA681104BB
:103EE8003A6992B20A431A607A6A3B6A9A42C7D917
:103EF8007B681433FB62FB6B9B00FA6A1344BB625A
:103F0800BB6A1B68002B11D102E0FB6B013BFB6312
:103F1800BB6A043BBB62BA6AFB6A9A4203D9BB6AB2
:103F28001B68002BF1D07B68FA6B1A613B6B184653
:103F38004037BD4680BD00BF2DE9B043B0B002AFE9
:103F4800F860C7E900230023BB66D7E90023C7E967
:103F58000823FB681B6C002B15D0FB681B6CFA68E8
:103F6800526C5A60FB681B6CFA68526C012101FAAA
:103F780002F29A60FB681B6CF868194602F0D4FCE0
:103F8800FB6800221A647B6A002B08DAD7F8DC3059
:103F980001221A607B6A23F000437B6203E0D7F8B2
:103FA800DC3000221A607A6A0023C7F6F0731340E7
:103FB8000022C7F6F07293422AD1D7F8D83042F2DD
:103FC8000F721A603B6A002B09D17B6AC3F3130393
:103FD800002B04D141F2E453C0F6010303E041F29F
:103FE800F053C0F601037B65D7F8E030002B0CD006
:103FF8007B6D03331B78002B02D07B6D083301E007
:104008007B6D0333D7F8E02013607B6D01F0AFB808
:10401800D7E90823104619464FF000024FF0000375
:1040280007F08CFB0346002B14D0D7F8D8300122B8
:104038001A6041F2F453C0F601037B65D7F8E0300B
:10404800002B04D07B6D5A1CD7F8E0301A607B6DCA
:1040580001F08DB8D7E9082307F12C01009107F189
:1040680030010191F86803F08BF9F8667B6A1B0D43
:10407800C3F30A03C7F8A830D7F8A830002B16D026
:10408800D7E90823C7E90623FB69C3F31303FB61D8
:10409800FB6943F07F5343F44013FB61D7F8A83022
:1040A800A3F2FF33C7F8A83000233B6733E03A6B2D
:1040B800FB6A134403F23243C7F8A830D7F8A83094
:1040C800202B0DDD7A6AD7F8A830C3F140039A4057
:1040D800396AD7F8A830203B21FA03F3134306E0E6
:1040E8003A6AD7F8A830C3F1200302FA03F33B6514
:1040F800386DFCF787F902460B46C7E90623FB69CA
:10410800A3F1F873FB61D7F8A830A3F23343C7F8DB
:10411800A83001233B67D7E90623104619464FF01C
:1041280000024FF00003C3F6F873FCF72DF80246BF
:104138000B46104619460FF68033D3E9002307F0E3
:1041480095F802460B46104619460FF67433D3E924
:104158000023FCF71BF802460B4690469946D7F811
:10416800A800FCF75FF902460B46104619460FF601
:104178005833D3E9002307F079F802460B46404646
:104188004946FCF703F802460B46C7E91623D7E968
:10419800160107F005FB0346C7F89430D7E9160166
:1041A8004FF000024FF0000307F0D2FA0346002B4D
:1041B80013D0D7F89400FCF735F902460B461046A1
:1041C8001946D7E9162307F0B9FA0346002B04D19C
:1041D800D7F89430013BC7F894300123C7F89030E2
:1041E800D7F89430002B1CDBD7F89430162B18DC4A
:1041F800D7E9080141F21863C0F60103D7F8942003
:10420800D2001344D3E9002307F0A2FA0346002B97
:1042180004D0D7F89430013BC7F894300023C7F88E
:1042280090303A6BD7F8A830D31A013BC7F89830CA
:10423800D7F89830002B07DB0023C7F8B430D7F83D
:104248009830C7F8803007E0D7F898305B42C7F855
:10425800B4300023C7F88030D7F89430002B0DDB3A
:104268000023C7F8B030D7F89430FB67D7F8802020
:10427800D7F894301344C7F880300DE0D7F8B4204D
:10428800D7F89430D31AC7F8B430D7F894305B42D3
:10429800C7F8B0300023FB67D7F8D030002B03DB1A
:1042A800D7F8D030092B02DD0023C7F8D03001231E
:1042B8007B67D7F8D030052B06DDD7F8D030043B24
:1042C800C7F8D03000237B670123C7F88C304FF044
:1042D800FF33C7F89C30D7F89C30C7F8A030D7F820
:1042E800D030052B47D801A252F823F00D4300081F
:1042F8000D4300081B4300084943000821430008F8
:104308004F4300081223C7F8A8300023C7F8D43059
:1043180031E00023C7F88C30D7F8D430002B02DC0A
:104328000123C7F8D430D7F8D430C7F8A830D7F865
:10433800A830C7F89C30D7F89C30C7F8A0301AE0EE
:104348000023C7F88C30D7F8D420D7F8943013441A
:104358000133C7F8A830D7F8A830C7F8A030D7F885
:10436800A830013BC7F89C30D7F8A830002B02DCF6
:104378000123C7F8A8300423C7F89830FB68002247
:104388005A6409E0FB685B6C5A1CFB685A64D7F8EE
:1043980098305B00C7F89830D7F8983003F11402CA
:1043A800D7F8A8309A42EDD9FB685B6CF8681946D3
:1043B80002F06AFA0246FB681A64FB681B6CFB642D
:1043C800FB6C7B65D7F8A030002BC0F28782D7F84A
:1043D800A0300E2B00F382827B6F002B00F07E82D0
:1043E8000023C7F8A830D7E90823C7E90623D7F878
:1043F8009430BB64D7F8A0307B640223C7F8A4309C
:10440800D7F89430002B6BDDD7F8943003F00F0207
:1044180041F21863C0F60103D2001344D3E9002324
:10442800C7E91623D7F894301B11C7F89830D7F886
:10443800983003F01003002B19D0D7F8983003F008
:104448000F03C7F89830D7E9080141F2E063C0F6D6
:104458000103D3E9082307F033F802460B46C7E9FE
:104468000823D7F8A4300133C7F8A43027E026E0A2
:10447800D7F8983003F00103002B16D0D7F8A430F2
:104488000133C7F8A43041F2E063C0F60103D7F85E
:10449800A820D2001344D3E90023D7E9160106F077
:1044A800E5FE02460B46C7E91623D7F898305B109D
:1044B800C7F89830D7F8A8300133C7F8A830D7F82C
:1044C8009830002BD4D1D7E9082310461946D7E9EC
:1044D800162306F0F5FF02460B46C7E9082349E014
:1044E800D7F894305B423B643B6C002B42D0D7E951
:1044F80008013B6C03F00F0241F21863C0F6010398
:10450800D2001344D3E9002306F0B0FE02460B465E
:10451800C7E908233B6C1B11C7F8983026E0D7F889
:10452800983003F00103002B16D0D7F8A4300133DC
:10453800C7F8A430D7E9080141F2E063C0F60103E7
:10454800D7F8A820D2001344D3E9002306F08EFE42
:1045580002460B46C7E90823D7F898305B10C7F81E
:104568009830D7F8A8300133C7F8A830D7F8983072
:10457800002BD4D1D7F89030002B35D0D7E90823B9
:10458800104619464FF000024FF00003C3F6F073CF
:1045980007F0DEF80346002B26D0D7F8A030002B12
:1045A80022DDD7F89C30002B00DC8BE1D7F89C305B
:1045B800C7F8A030D7F89430013BC7F89430D7E952
:1045C8000823104619464FF000024FF00003C4F2CA
:1045D800240306F04BFE02460B46C7E90823D7F82A
:1045E800A4300133C7F8A430D7F8A400FBF71AFFAA
:1045F800D7E9082306F03AFE02460B46104619464C
:104608004FF000024FF00003C4F21C03FBF7BEFD9D
:1046180002460B46C7E904237B69A3F150737B610B
:10462800D7F8A030002B2DD100237B667B6E3B662C
:10463800D7E90823104619464FF000024FF000034F
:10464800C4F21403FBF7A0FD02460B46C7E9082392
:10465800D7E90801D7E9042307F098F80346002BA7
:1046680000D0E0E3D7E90801D7E90423144683F032
:10467800004522462B4607F06BF80346002B00D175
:1046880020E1CAE3D7F88C30002B00F09080D7F8EF
:10469800A0305A1E41F21863C0F60103D200134439
:1046A800D3E900234FF000004FF00001C3F6E0719A
:1046B80006F006FF02460B4610461946D7E90423C2
:1046C800FBF762FD02460B46C7E904230023C7F83F
:1046D800A830D7E908231046194607F061F80346C1
:1046E800FB63D7E90845F86BFBF79CFE02460B46CF
:1046F80020462946FBF748FD02460B46C7E9082332
:104708007B6D5A1C7A65FA6BD2B23032D2B21A700B
:10471800D7E90801D7E9042307F01AF80346002B64
:1047280001D000F00EBDD7E908234FF000004FF08C
:104738000001C3F6F071FBF727FD02460B46104651
:104748001946D7E9042307F003F80346002B00D0E5
:104758005FE1D7F8A8300133C7F8A830D7F8A82008
:10476800D7F8A0309A4201DB00BFABE0D7E90423B9
:10477800104619464FF000024FF00003C4F224031C
:1047880006F074FD02460B46C7E90423D7E908235F
:10479800104619464FF000024FF00003C4F22403FC
:1047A80006F064FD02460B46C7E9082391E7D7E9FE
:1047B8000401D7F8A0305A1E41F21863C0F601036D
:1047C800D2001344D3E9002306F050FD02460B46FD
:1047D800C7E904230123C7F8A830D7E908231046FE
:1047E800194606F0DDFF0346FB63D7E90845F86B79
:1047F800FBF718FE02460B4620462946FBF7C4FC89
:1048080002460B46C7E908237B6D5A1C7A65FA6B8A
:10481800D2B23032D2B21A70D7F8A820D7F8A03066
:104828009A4239D1D7E90845D7E9042310461946F1
:104838004FF000024FF00003C3F6E073FBF7A6FC4D
:1048480002460B462046294606F0A0FF0346002BE9
:1048580000D0DEE0D7E90845D7E904234FF000008F
:104868004FF00001C3F6E071FBF78EFC02460B46E1
:104878002046294606F06CFF0346002B00D121E0B4
:104888007B6D013B7B657B6D1B78302BF8D07B6D96
:1048980001337B6500F055BCD7F8A8300133C7F861
:1048A800A830D7E90823104619464FF000024FF008
:1048B8000003C4F2240306F0D9FC02460B46C7E9FC
:1048C80008238AE7FB6C7B65D7E90623C7E9082339
:1048D800BB6CC7F894307B6CC7F8A030FB6A002B20
:1048E800C0F2DA80D7F894300E2B00F3D58041F26D
:1048F8001863C0F60103D7F89420D2001344D3E913
:104908000023C7E91623D7F8D430002B23DAD7F8C9
:10491800A030002B1FDC00237B667B6E3B66D7F83C
:10492800A030002BC0F27982D7E90845D7E91601F3
:104938004FF000024FF00003C4F2140306F096FC97
:1049480002460B462046294606F00CFF0346002B7C
:1049580040F0638267E20123C7F8A830D7E908234B
:1049680010461946D7E9162306F0AAFD02460B465B
:104978001046194606F014FF0346FB63D7E90845BD
:10498800F86BFBF74FFD02460B4610461946D7E970
:10499800162306F06BFC02460B4620462946FBF719
:1049A800F3FB02460B46C7E908237B6D5A1C7A6560
:1049B800FA6BD2B23032D2B21A70D7F8A820D7F830
:1049C800A0309A4243D1D7E9082310461946FBF78D
:1049D800DDFB02460B46C7E90823D7E90823104642
:1049E8001946D7E9162306F0D1FE0346002B10D14D
:1049F800D7E9082310461946D7E9162306F09EFE84
:104A08000346002B00D146E0FB6B03F00103002BAB
:104A18001CD00CE07A6DFB6C9A4208D1D7F8943020
:104A28000133C7F894307B6D30221A7006E07B6D35
:104A3800013B7B657B6D1B78392BEBD07B6D5A1C5A
:104A48007A651A780132D2B21A7024E023E0D7E9E5
:104A58000823104619464FF000024FF00003C4F235
:104A6800240306F003FC02460B46C7E90823D7E9EE
:104A78000823104619464FF000024FF0000306F0D5
:104A88005DFE0346002B00D005E0D7F8A8300133BF
:104A9800C7F8A83062E754E3D7F8B430C7F88830CD
:104AA800D7F8B030C7F884300023BB66BB6E7B668E
:104AB800D7F88C30002B5ED0D7F8D030012B0CDC27
:104AC8003B6F002B03D0FB6A03F2334302E03B6BDE
:104AD800C3F13603C7F8A8303AE0D7F8A030013B55
:104AE800C7F89830D7F88420D7F898309A4207DB6F
:104AF800D7F88420D7F89830D31AC7F8843015E04F
:104B0800D7F89820D7F88430D31AC7F89830FA6FB6
:104B1800D7F898301344FB67D7F8B020D7F8983007
:104B28001344C7F8B0300023C7F88430D7F8A03052
:104B3800C7F8A830D7F8A830002B09DAD7F88820AA
:104B4800D7F8A830D31AC7F888300023C7F8A83098
:104B5800D7F8B420D7F8A8301344C7F8B430D7F83A
:104B68008020D7F8A8301344C7F88030F8680121AE
:104B780002F040F87866D7F88830002B21DDD7F8A6
:104B88008030002B1DDDD7F88020D7F888309A4276
:104B9800B8BF1346C7F8A830D7F8B420D7F8A8305C
:104BA800D31AC7F8B430D7F88820D7F8A830D31A62
:104BB800C7F88830D7F88020D7F8A830D31AC7F8B4
:104BC8008030D7F8B030002B34DDD7F88C30002B8C
:104BD80029D0D7F88430002B12DDF868796ED7F821
:104BE800842002F01BF97866F868796EFA6E02F094
:104BF80017F8B863F868F96E01F096FEBB6BFB66B0
:104C0800D7F8B020D7F88430D31AC7F89830D7F837
:104C18009830002B0ED0F868F96ED7F8982002F07B
:104C2800FDF8F86606E0F868F96ED7F8B02002F0EB
:104C3800F5F8F866F868012101F0DCFF3866FB6FCB
:104C4800002B05DDF868396EFA6F02F0E7F8386670
:104C58000023BB67D7F8D030012B1ADC3B6A002B46
:104C680017D17B6AC3F31303002B12D17A6A00238E
:104C7800C7F6F0731340002B0BD0D7F8B4300133CC
:104C8800C7F8B430D7F880300133C7F88030012333
:104C9800BB67FB6F002B1BD03B6E1B69013B3A6E59
:104CA80004339B0013445B68184601F02FFF03464A
:104CB800C3F120030DE000BF61436F63A787D23FB4
:104CC800B3C8608B288AC63FFB799F501344D33FF3
:104CD8000123D7F88020134403F01F03C7F8A83036
:104CE800D7F8A830002B05D0D7F8A830C3F1200397
:104CF800C7F8A830D7F8A830042B1ADDD7F8A830A1
:104D0800043BC7F8A830D7F8B420D7F8A830134424
:104D1800C7F8B430D7F88820D7F8A8301344C7F8B4
:104D28008830D7F88020D7F8A8301344C7F88030E7
:104D38001DE0D7F8A830032B19DCD7F8A8301C33AE
:104D4800C7F8A830D7F8B420D7F8A8301344C7F864
:104D5800B430D7F88820D7F8A8301344C7F888307B
:104D6800D7F88020D7F8A8301344C7F88030D7F890
:104D7800B430002B06DDF868F96ED7F8B42002F0DD
:104D8800BBF8F866D7F88030002B06DDF868396E76
:104D9800D7F8802002F0B0F83866D7F89030002BAA
:104DA80021D0F86E396E02F02FF90346002B1ADA7B
:104DB800D7F89430013BC7F89430F868F96E0A22A6
:104DC800002301F0CFFDF866D7F88C30002B06D011
:104DD800F868796E0A22002301F0C4FD7866D7F8D6
:104DE8009C30C7F8A030D7F8A030002B26DCD7F8C5
:104DF800D030022B22DDD7F8A030002B0DDBF8686D
:104E0800396E0522002301F0ADFD3866F86E396E63
:104E180002F0FAF80346002B05DCD7F8D430DB4360
:104E2800C7F8943077E17B6D5A1C7A6531221A7085
:104E3800D7F894300133C7F894306CE1D7F88C3048
:104E4800002B00F0FF80D7F88830002B06DDF868CB
:104E5800796ED7F8882002F04FF878667B6EBB66CB
:104E6800BB6F002B1BD07B6E5B68F868194601F09E
:104E78000BFD78667B6E03F10C01BB6E03F10C022F
:104E8800BB6E1B6902339B00084611461A46FBF7A6
:104E980081FBF868796E012202F02EF8786601230A
:104EA800C7F8A830F86E396EFEF74EFF0346303368
:104EB800C7F8AC30F86EB96E02F0A6F8C7F89800DB
:104EC800F868396E7A6E02F0E9F878637B6BDB6814
:104ED800002B05D1F86E796B02F096F8034600E0D6
:104EE80001233B64F868796B01F01EFD3B6C002BD5
:104EF8001ED1D7F8D030002B1AD13B6A03F001033A
:104F0800002B15D1D7F8AC30392B00D152E0D7F8A7
:104F18009830002B04DDD7F8AC300133C7F8AC303B
:104F28007B6D5A1C7A65D7F8AC20D2B21A70F2E0C1
:104F3800D7F89830002B0CDBD7F89830002B32D1FB
:104F4800D7F8D030002B2ED13B6A03F00103002B99
:104F580029D13B6C002B1EDDF868F96E012201F0A7
:104F6800CBFFF866F86E396E02F04EF838643B6C89
:104F7800002B08DC3B6C002B0DD1D7F8AC3003F0CC
:104F88000103002B07D0D7F8AC305A1CC7F8AC2067
:104F9800392B00D10EE07B6D5A1C7A65D7F8AC200E
:104FA800D2B21A70B7E03B6C002B13DDD7F8AC30E7
:104FB800392B05D17B6D5A1C7A6539221A7081E02C
:104FC8007B6D5A1C7A65D7F8AC20D2B20132D2B2C6
:104FD8001A70A0E07B6D5A1C7A65D7F8AC20D2B263
:104FE8001A70D7F8A820D7F8A0309A4201D100BF8C
:104FF8004EE0F868F96E0A22002301F0B3FCF86667
:10500800BA6E7B6E9A4209D1F868796E0A2200233B
:1050180001F0A8FC78667B6EBB660DE0F868B96E97
:105028000A22002301F09EFCB866F868796E0A220D
:10503800002301F097FC7866D7F8A8300133C7F849
:10504800A8302FE70123C7F8A8307C6D631C7B6567
:10505800F86E396EFEF778FE03463033C7F8AC3089
:10506800D7F8AC30DBB22370D7F8A820D7F8A03037
:105078009A4200DB0CE0F868F96E0A22002301F07E
:1050880071FCF866D7F8A8300133C7F8A830DCE718
:10509800F868F96E012201F02FFFF866F86E396E94
:1050A80001F0B2FFC7F89800D7F89830002B09DC58
:1050B800D7F89830002B24D1D7F8AC3003F001038F
:1050C800002B1ED00EE07A6DFB6C9A420AD1D7F8FD
:1050D80094300133C7F894307B6D5A1C7A653122BD
:1050E8001A7018E07B6D013B7B657B6D1B78392B53
:1050F800E9D07B6D5A1C7A651A780132D2B21A70DF
:1051080009E07B6D013B7B657B6D1B78302BF8D00C
:105118007B6D01337B65F868396E01F005FC7B6EA9
:10512800002B0ED0BB6E002B07D0BA6E7B6E9A4256
:1051380003D0F868B96E01F0F7FBF868796E01F0F2
:10514800F3FBF868F96E01F0EFFB7B6D00221A7033
:10515800D7F894305A1CD7F8D8301A60D7F8E0300E
:10516800002B03D0D7F8E0307A6D1A60FB6C184634
:10517800B837BD46BDE8B0832DE9F04186B000AF31
:1051880078600C46A389FB81FB8903F00803002B98
:1051980040F0A780A38943F400639BB2A3816368AE
:1051A800002B03DCE36B002B40F39980A36A002BF0
:1051B80000F095807B681B68BB607B6800221A60E2
:1051C800A3899BB203F48053002B02D0236D7B612B
:1051D80027E0A56AE3697868194600220123A847F1
:1051E80078617B69B3F1FF3F1BD17B681B68002B9B
:1051F80017D04FF0FF333B617B681B681D2B03D032
:105208007B681B68162B05D100233B617B68BA6855
:105218001A6004E0A38943F040039BB2A3813B6971
:105228008EE0A3899BB203F00403002B0AD06368C5
:105238007A69D31A7B61236B002B03D0E36B7A69FD
:10524800D31A7B61A56AE369786819467A690023ED
:10525800A84778617B69B3F1FF3F0BD17B681B6876
:10526800002B07D07B681B681D2B03D07B681B684D
:10527800162B2CD1A38923F400639BB2A3810023AE
:10528800636023692360A3899BB203F48053002BD6
:1052980009D07B69B3F1FF3F03D17B681B68002B02
:1052A80001D17B6923657B68BA681A60236B002B80
:1052B8000CD0226B04F140039A4204D0236B786827
:1052C800194600F033FA0023236308E007E0A389B6
:1052D80043F040039BB2A3814FF0FF3330E000233B
:1052E8002EE02569002D01D1002329E023681A4604
:1052F8002B46D61A2560FB8903F00303002B01D146
:10530800636900E00023A36017E0D4F824C0E369D0
:10531800786819462A463346E0478046B8F1000FB8
:1053280007DCA38943F040039BB2A3814FF0FF330E
:1053380006E043461D44C8EB0606002EE5DC0023C4
:1053480018461837BD46BDE8F08100BF90B585B056
:1053580000AF78600C467B68FB60FB68002B06D0CA
:10536800FB689B6B002B02D1F86800F049F9A38910
:10537800002B01D1002305E078682146FFF7FCFEE9
:10538800B860BB6818461437BD4690BD80B500AFFD
:105398000246002A0DD141F2FC53C0F601031B68F6
:1053A800184645F25531C0F6000100F007FC0346E7
:1053B80009E040F22843C2F200031B681846114670
:1053C800FFF7C4FF0346184680BD00BF80B584B010
:1053D80000AFF860B9607A603B60FB6800221A6031
:1053E800FB6800225A60FB6800229A60BB689AB288
:1053F800FB689A81FB6800225A667B689AB2FB6850
:10540800DA81FB6800221A61FB6800225A61FB6896
:1054180000229A61FB685C33184600210822FBF7DA
:1054280053F9FB68FA68DA61FA6847F2C173C0F6A3
:1054380000031362FA6847F62103C0F600035362BB
:10544800FA6847F67503C0F600039362FA6847F6F0
:10545800C103C0F60003D3621037BD4680BD00BF4C
:1054680090B585B000AF78600C46631E682202FBD9
:1054780003F374337868194600F044FEF860FB685B
:10548800002B01D1002316E0FB6800221A60FB689C
:105498005C60FB6803F10C02FB689A60FB6803F12F
:1054A8000C022346682101FB03F3104600211A462B
:1054B800FBF70AF9FB6818461437BD4690BD00BFD4
:1054C80080B586B000AF786000F0DCF841F2FC539C
:1054D800C0F601031B689B6B002B07D141F2FC53FC
:1054E800C0F601031B68184600F08AF841F2FC5325
:1054F800C0F601031B6803F53873FB60FB689B6803
:105508007B61FB685B683B613AE07B699B89002BA8
:1055180033D100BF7B694FF6FF72DA817B690122C4
:105528009A817B6900225A6600F0B2F87B690022F2
:105538001A607B6900229A607B6900225A607B6945
:1055480000221A617B6900225A617B6900229A61F4
:105558007B695C33184600210822FBF7B5F87B69A4
:1055680000221A637B6900225A637B6900225A640D
:105578007B6900229A647B6923E07B6968337B61DD
:105588003B69013B3B613B69002BBEDAFB681B684A
:10559800002B12D178680421FFF762FF0246FB68EE
:1055A8001A60FB681B68002B07D100BF00F070F879
:1055B8007B680C221A60002303E0FB681B68FB6011
:1055C8009CE718461837BD4680BD00BF80B582B03D
:1055D80000AF786078684AF2A511C0F6000100F0C3
:1055E800BFFA0837BD4680BD80B500AF41F2FC5315
:1055F800C0F601031B681846FFF7E8FF80BD00BF2F
:1056080080B582B000AF786000F048F87B689B6B8B
:10561800002B02D000F048F830E07A6845F2D55304
:10562800C0F60003D3637B680022C3F8E0227B68DE
:105638000322C3F8E4227B6803F53B727B68C3F856
:10564800E8227B685B681846042100227B68FFF724
:10565800BDFE7B689B681846092101227B68FFF71D
:10566800B5FE7B68DB681846122102227B68FFF7CB
:10567800ADFE7B6801229A6300F016F80837BD4634
:1056880080BD00BF80B400AFBD465DF8047B7047A5
:1056980080B400AFBD465DF8047B704780B400AFAE
:1056A800BD465DF8047B704780B400AFBD465DF829
:1056B800047B704780B483B000AF7860002318463D
:1056C8000C37BD465DF8047B704700BF80B483B0DB
:1056D80000AF7860002318460C37BD465DF8047BA0
:1056E800704700BF80B500AFFFF7CCFF40F22843FA
:1056F800C2F200031B68184645F2BD61C0F60001FE
:1057080000F02EFA80BD00BF80B500AF40F22843FC
:10571800C2F200031B68184645F2D561C0F60001C5
:1057280000F01EFAFFF7B4FF80BD00BF80B58CB053
:1057380000AF786039603B68002B00D176E178686B
:1057480001F08EF83B68083BFB62FB6A5B68BB6153
:10575800BB6923F00103BB62FA6ABB6A13447B612D
:105768007B695B6823F003033B6140F2AC43C2F200
:1057780000039A687B699A4240D1BA6A3B6913442C
:10578800BB62BB6903F00103002B17D1FB6A1B68DE
:10579800FB60FB685B42FA6A1344FB62BA6AFB6807
:1057A8001344BB62FB6ADB687B62FB6A9B683B62F3
:1057B8003B6A7A6ADA607B6A3A6A9A60BB6A43F043
:1057C8000102FB6A5A6040F2AC43C2F20003FA6A73
:1057D8009A6040F6B403C2F200031B68BA6A9A42A0
:1057E80008D340F60823C2F200031B6878681946FC
:1057F80000F022F9786801F03DF817E17B693A6911
:105808005A600023FB61BB6903F00103002B1FD121
:10581800FB6A1B68FB60FB685B42FA6A1344FB6225
:10582800BA6AFB681344BB62FB6A9A68814B9A4266
:1058380002D10123FB610BE0FB6ADB687B62FB6A38
:105848009B683B623B6A7A6ADA607B6A3A6A9A606A
:105858007A693B6913445B6803F00103002B27D185
:10586800BA6A3B691344BB62FB69002B14D17B699C
:105878009A68704B9A420FD10123FB616D4A6D4BB8
:10588800F96AD960DB689360FB6A6A4ADA60FB6A86
:10589800DA68FB6A9A600BE07B69DB687B627B698C
:1058A8009B683B623B6A7A6ADA607B6A3A6A9A600A
:1058B800BB6A43F00102FB6A5A60FA6ABB6A134486
:1058C800BA6A1A60FB69002B40F0AD80BB6AB3F579
:1058D800007F30D2BB6ADB08BB6040F2AC42C2F248
:1058E800000240F2AC43C2F200035968BB68D81CFE
:1058F800002BB8BF03469B10012000FA03F30B43AB
:105908005360BB685B009A0040F2AC43C2F20003EC
:1059180013447B627B6A9B683B62FB6A7A6ADA6043
:10592800FB6A3A6A9A607B6AFA6A9A607B6A9A6842
:105938003B6ADA6077E0BB6A5B0A002B02D1BB6A7C
:10594800DB082BE0BB6A5B0A042B03D8BB6A9B0904
:10595800383323E0BB6A5B0A142B03D8BB6A5B0AA3
:105968005B331BE0BB6A5B0A542B03D8BB6A1B0B77
:105978006E3313E0BB6A5B0AB3F5AA7F03D8BB6A30
:10598800DB0B77330AE0BB6A5A0A40F254539A4257
:1059980003D8BB6A9B0C7C3300E07E23BB60BB68EA
:1059A8005B009A0040F2AC43C2F2000313447B62EE
:1059B8007B6A9B683B623A6A7B6A9A4214D140F2DE
:1059C800AC42C2F2000240F2AC43C2F20003596892
:1059D800BB68D81C002BB8BF03469B10012000FAF7
:1059E80003F30B43536011E002E03B6A9B683B62A0
:1059F8003A6A7B6A9A4206D03B6A5B6823F00302E4
:105A0800BB6A9A42F1D83B6ADB687B62FB6A7A6AB6
:105A1800DA60FB6A3A6A9A607B6AFA6A9A607B6A19
:105A28009A683B6ADA60786800F024FF3037BD4630
:105A380080BD00BFB404002080B588B000AF786096
:105A480039604FF48053FB61786800F009FF40F239
:105A5800AC43C2F200039B685B6823F00303BB619D
:105A6800BA693B68D21AFB691344A3F11102FB69B6
:105A7800B2FBF3F3013BFA6902FB03F37B61FA69BA
:105A88007B699A4204DD786800F0F4FE002363E045
:105A98007868002101F06AFE386140F2AC43C2F236
:105AA80000039A68BB691A443B699A4204D0786833
:105AB80000F0E0FE00234FE07B695B4278681946FE
:105AC80001F054FEF860FB68B3F1FF3F29D1786814
