:020000040800F2
:1000000000100020B1220008B9200008BB20000821
:1000100000000000000000000000000000000000E0
:10002000000000000000000000000000BF200008E9
:100030000000000000000000C1200008C3200008EC
:100040000123000801230008012300080123000800
:1000500001230008012300080123000801230008F0
:1000600001230008012300080123000801230008E0
:1000700001230008012300080123000801230008D0
:1000800001230008012300080000000001230008EC
:1000900001230008012300080123000801230008B0
:1000A000012300080123000801230008252200087D
:1000B00001230008000000000123000800000000E8
:0400C0005FF808F1EC
:1000C40008B59023DB05984217D0224B98421FD0E5
:1000D400214B984227D0214B98422FD0204B984255
:1000E40000D008BD8020C003012100F065FB802002
:1000F400C003002100F060FBF3E7802080020121AF
:1001040000F05AFB80208002002100F055FBE8E754
:100114008020C002012100F04FFB8020C00200219A
:1001240000F04AFBDDE780200003012100F044FBDE
:1001340080200003002100F03FFBD2E78020400331
:10014400012100F039FB80204003002100F034FB42
:10015400C7E7C0460004004800080048000C0048F7
:1001640000140048F0B55F46564644464D46F0B488
:1001740083B001910F6803210022002301268846E1
:1001840003E001330232102B2CD0341C9C403D1C64
:100194002540A542F5D1019C012124794942A34679
:1001A4008C46DC446446E4B2012C22D94546954091
:1001B400ED43AC46056864462540056005685C4629
:1001C40094402C430460C468454695400199AC436F
:1001D400C460CC79C56894402C430133C4600232B6
:1001E400102BD2D103B03CBC90469946A246AB46F4
:1001F400F0BD444681689440E44321408160019904
:10020400A4464979846891402143816041688CB255
:100214000199AC4384808979456899400D43ADB216
:100224008580C7E7044B02220360002303714271F7
:100234008371C3717047C046FFFF0000802382B002
:100244005B020193019B0B430193019BC361C16159
:10025400019BC361C3690193C369019302B07047F1
:1002640000690840431E9841C0B27047006980B2DB
:100274007047C04640690840431E9841C0B2704769
:10028400406980B27047C0468161704701857047FC
:1002940000B5002A01D1018500BD8161FCE7C0469B
:1002A4008182704707230B40C9088900401810B5A4
:1002B400016A9B000F249C40A1430162016A9A4099
:1002C400131C0B43036210BD837870B5002B09D156
:1002D40003781F21194001238B40124A191C8023E3
:1002E400D15070BD05780F4BAA089200D218032193
:1002F400C0239B000D40FF24D658E900251C8D40E7
:10030400AE43351C4678B60134408C40291C214349
:10031400D15003781F221A40012393401A1C014B29
:100324001A60DEE700E100E0054B00B51A69002918
:1003340002D182431A6100BD10431861FBE7C04635
:1003440000ED00E0054B00B51A68042803D0042131
:100354008A431A6000BD10431860FBE710E000E018
:10036400114B012219681143196058680F49014063
:10037400596018680E490140196018680D49014018
:10038400196058680C4901405960D96A0F208143AB
:10039400D962186B094901401963596B91430022D2
:1003A40059639A607047C046001002400CB8FFF8C9
:1003B400FFFFF6FEFFFFFBFFFFFFC0FFACFEFFFFEA
:1003C400024B00221A7018707047C0460210024097
:1003D400034BF8211A68C0008A4310431860704721
:1003E4000010024000B5064B002804D11A68012110
:1003F4008A431A6000BD196801220A431A60F9E7AA
:1004040000100240034BF8215A6BC0008A4310438A
:10041400586370470010024000B5064B002804D111
:100424005A6B01218A435A6300BD596B01220A4366
:100434005A63F9E70010024000B5064B002804D1C6
:10044400596B04220A435A6300BD5A6B04218A4340
:100454005A63F9E700100240064B01211A6A8A43E5
:100464001A621A6A04218A431A621A6A10431862C9
:100474007047C04600100240044B18211A6A8A4390
:100484001A621A6A104318627047C046001002408C
:1004940000B5064B002804D15A6A01218A435A62E6
:1004A40000BD596A01220A435A62F9E7001002406A
:1004B400054B10B5054A5C6822405A605A681143DE
:1004C4000843586010BDC04600100240FFFFC2FF41
:1004D400064B00B51968002803D1054A0A401A6082
:1004E40000BD802252040A431A60F9E7001002405A
:1004F400FFFFFFFE034B0F21DA6A8A431043D862E1
:100504007047C04600100240064B00B51968002829
:1005140003D1054A0A401A6000BD802212030A432F
:100524001A60F9E700100240FFFFF7FF014B187053
:100534007047C04607100240034B03215A688A43A0
:10054400104358607047C04600100240024B0C2014
:100554005B6818407047C04600100240034BF0210E
:100564005A688A43104358607047C04600100240DE
:10057400034B044A59680A40104358607047C04608
:1005840000100240FFF8FFFF094B0A4A59680A406D
:100594005A6059680204120C0A435A60196B064ADD
:1005A400000C0A401A631A6B104318637047C04664
:1005B40000100240FFBFFFFFFFFEFFFF044B40217E
:1005C4001A6B8A431A631A6B104318637047C04648
:1005D40000100240044B10211A6B8A431A631A6BF1
:1005E400104318637047C04600100240044B0321B7
:1005F4001A6B8A431A631A6B104318637047C04618
:10060400001002403B4A38B553680C21041C0B40CF
:10061400042B01D0082B52D037482060354B374982
:100624005A68051C1206120F8A5CD54065602A1CA4
:100634005D686D056D0F495DCA40A260111C1A6B9F
:10064400D50521D42E4BE3602A4B1B6B5D0624D4C5
:100654002C4B2361274B1B6BDA0625D4264B254AEA
:100664006361156B03232B4224D0116B19400129BC
:100674003AD0116B1940022938D0126B1340032B66
:1006840001D11D4BA36138BD5B685A0414D44B08D7
:10069400E360184B1B6B5D06DAD580231B022361D4
:1006A400144B1B6BDA06D9D5124A6061156B032310
:1006B4002B42DAD1A161E6E78B08E360C4E7556811
:1006C4005368AD022D0F0235D90303D40E48684395
:1006D4002060A3E7D36A0F2119400131064801F0D5
:1006E40059FA6843206099E7A061CCE780231B0294
:1006F400A361C8E70010024000127A000000002045
:10070400809FD5001280000000093D00024B1A6A48
:10071400104318627047C04600100240064B00B5F3
:10072400196A002803D1054A0A401A6200BD8022D2
:1007340012020A431A62F9E700100240FF7FFFFF2A
:10074400064B00B5196A002803D1054A0A401A620B
:1007540000BD802252020A431A62F9E700100240E7
:10076400FFFFFEFF054B00B55A69002902D1824301
:100774005A6100BD10435861FBE7C04600100240B7
:10078400054B00B59A69002902D182439A6100BDE4
:1007940010439861FBE7C04600100240054B00B5CA
:1007A400DA69002902D18243DA6100BD1043D861BD
:1007B400FBE7C04600100240054B00B59A6A0029C9
:1007C40002D182439A6200BD10439862FBE7C0469F
:1007D40000100240054B00B5DA68002902D18243BB
:1007E400DA6000BD1043D860FBE7C0460010024049
:1007F400054B00B51A69002902D182431A6100BD74
:1008040010431861FBE7C0460010024000B5054BD9
:100814001A78002902D182431A7000BD104318705F
:10082400FBE7C0460910024000B5430908D10B4B51
:100834001A681F231840C240101C0123184000BD31
:10084400012B04D0022B05D0044B5A6BF1E7034B68
:100854001A6AEEE7014B5A6AEBE7C0460010024001
:1008640010B5002382B0A0240193E40001E0002825
:1008740008D11120FFF7D8FF019B01330193019B9D
:10088400A342F4D11120FFF7CFFF431E9841C0B219
:1008940002B010BD034B8022596A52040A435A62C3
:1008A4007047C04600100240034B9B681840431E2B
:1008B4009841C0B27047C04600100240014B187006
:1008C4007047C0460A10024008B5364B984221D002
:1008D4008023DB05984228D0334B98422ED0334BEB
:1008E400984234D0324B98423AD0324B984242D05C
:1008F400314B98424AD0314B984200D008BD8020F9
:10090400C0020121FFF766FF8020C0020021FFF72B
:1009140061FFF3E7802000010121FFF75BFF8020E6
:1009240000010021FFF756FFE8E701200121FFF74E
:100934005FFF01200021FFF75BFFDFE702200121B9
:10094400FFF756FF02200021FFF752FFD6E71020E1
:100954000121FFF74DFF10200021FFF749FFCDE7EC
:10096400802040000121FFF743FF80204000002148
:10097400FFF73EFFC2E7802040020121FFF72AFF74
:10098400802040020021FFF725FFB7E78020800286
:100994000121FFF71FFF802080020021FFF71AFFCB
:1009A400ACE7C046002C01400004004000100040A9
:1009B4000020004000400140004401400048014044
:1009C40003681B4A10B59BB2904224D08022D20502
:1009D400904220D0174A90421DD0174A904221D00D
:1009E400164C0A892340134303804B68C3620B8867
:1009F40003850F4B98420BD0114B984208D0114BF2
:100A0400984205D0104B984202D00123838210BD36
:100A14008B7A0386F9E7702293434A881343064A84
:100A24009042DDD103804B68C3620B880385ECE7F9
:100A3400002C01400004004000100040FFFCFFFFB8
:100A440000400140004401400048014001235B4252
:100A54004360002303800381438083727047C04650
:100A6400018582827047C0460268024B13401943D5
:100A7400018070478FFF000041627047C162704778
:100A8400406A7047806A80B27047C04600B500294A
:100A940004D10268044B1340038000BD03680222A2
:100AA4009BB213430380F8E7FDFF000000B5002963
:100AB40004D10268044B1340038000BD0368042280
:100AC4009BB213430380F8E7FBFF000000B5002945
:100AD40004D10268044B1340038000BD03688022E4
:100AE4009BB213430380F8E77FFF00000268044BC6
:100AF4001340038003689BB2194301807047C046CA
:100B0400F7FF00000268044B1340038003689BB2A4
:100B1400194301807047C046FFFC000000B500295E
:100B240004D10268044B1340038000BD0368012212
:100B34009BB213430380F8E7FEFF00000B884A884A
:100B44001A438B881A43CB881A430B891A434B895F
:100B54001A438B891A434423C252704700230380EB
:100B640043808380C3800381438183817047C0466F
:100B740000B5426C002904D15204520C4423C252E1
:100B840000BD034B1A4392B24423C252F8E7C04655
:100B94000080FFFF026A194B70B513400384056A95
:100BA400174B426884694E881C400B8892B21C43E0
:100BB400144B1D408B8933432B43134DA8420ED055
:100BC400124DA8420BD0124DA84208D0114DA84294
:100BD40005D082808A6804834263038470BD08253B
:100BE400AB43CD894E8A2B430425AB438D882B43DD
:100BF400094D2A400D8A35432A43EAE7FEFF0000E7
:100C04008CFF0000FDFF0000002C0140004001406B
:100C14000044014000480140FFFCFFFF026A1B4BF7
:100C240030B513400384056A194B4268846992B253
:100C34001C400B881B021C43164BA4B22B408D890D
:100C44002D012B434D889BB22D012B43124D9BB29A
:100C5400A84205D082808A6804838263038430BDFD
:100C64008025AB43CD892D012B430C4D2B408D8822
:100C74002D012B430A4D9BB22A400D8AAD002A4315
:100C84004D8A92B2AD002A4392B2E3E7EFFF00002F
:100C9400FF8C0000DFFF0000002C0140BFFF0000BC
:100CA400FFF3FFFF026A1A4B30B513400384056A51
:100CB400184B4268C46992B21C400B881C43164B03
:100CC4002B408D892D022B434D889BB22D022B4343
:100CD400124D9BB2A84205D082808A688483C26385
:100CE400038430BD0E4D2B40CD892D022B430D4D79
:100CF4002B408D882D022B430B4D9BB22A400D8A2D
:100D04002D012A434D8A92B22D012A4392B2E3E780
:100D1400FFFE00008CFF0000FFFD0000002C0140DE
:100D2400FFF7FFFFFFFB0000FFCFFFFF026A144B3A
:100D340030B513400384056A124A4368C4699BB200
:100D440014400A88120214430F4AA4B22A408D891F
:100D54002D032A434D8892B22D032A430B4D92B2A0
:100D6400A84205D083808B6884830364028430BDE9
:100D7400074D2B400D8AAD012B439BB2F2E7C046D1
:100D8400FFEF0000FF8C0000FFDF0000002C01409B
:100D9400FFBFFFFF00230380438083808360838140
:100DA400C38103824382704730B5036A01249BB236
:100DB4008C40A343051C03840823081C183598435E
:100DC4000DD0043989B2490849190868094B12023F
:100DD40003400B600B6892B21A430A6030BD4908A5
:100DE40069180B68702083430B600B681A430A6010
:100DF400F4E7C046FF8FFFFF41637047816370478C
:100E0400C1637047016470478269024B1340194300
:100E1400018370478FFF00008269044B1A400B0264
:100E2400111C194389B201837047C046FF8F00002B
:100E3400C269024B13401943818370478FFF00003E
:100E4400C269044B1A400B02111C194389B28183F5
:100E54007047C046FF8F000000B5002904D14268E6
:100E6400044B1340838000BD436801229BB21343AB
:100E74008380F8E7FEFF00008269024B13401943A8
:100E840001837047F7FF00008269044B1A400B028C
:100E9400111C194389B201837047C046FFF7000053
:100EA400C269024B1340194381837047F7FF000066
:100EB400C269044B1A400B02111C194389B2818385
:100EC4007047C046FFF700008269024B1340194384
:100ED40001837047FBFF00008269044B1A400B0238
:100EE400111C194389B201837047C046FFFB0000FF
:100EF400C269024B1340194381837047FBFF000012
:100F0400C269044B1A400B02111C194389B2818334
:100F14007047C046FFFB00008269024B134019432F
:100F2400018370477FFF0000836909025B045B0C47
:100F3400194389B201837047C269024B13401943B4
:100F4400818370477FFF0000C36909025B045B0C67
:100F5400194389B281837047026A024B13401943D3
:100F640001847047FDFF0000026A024B13401943DD
:100F740001847047F7FF0000026A044B1A400B011A
:100F8400111C194389B201847047C046DFFF000079
:100F9400026A044B1A400B01111C194389B20184E3
:100FA4007047C0467FFF0000026A044B1A400B02E0
:100FB400111C194389B201847047C046FFFD00002B
:100FC400026A044B1A400B02111C194389B20184B2
:100FD4007047C046FFF70000026A044B1A400B0337
:100FE400111C194389B201847047C046FFDF000019
:100FF4008268044B1340038183689BB219430181C7
:101004007047C046F7FF0000036A10B501248C4006
:101014009BB2A3430384036A8A40111C194389B217
:10102400018410BD036A10B504248C409BB2A34311
:101034000384036A8A40111C194389B2018410BDD8
:1010440000B5002904D14268044B1340838000BDDD
:10105400436804229BB213438380F8E7FBFF00003C
:101064000B88F0B5002B2BD0042B4AD0082B00D1D1
:101074006DE0056A474A4B882A408E880C890284B1
:10108400C769454A36023A403243240392B2056A9C
:101094002243424C1B032C401C438023A4B25B011B
:1010A40092B22343828303843D4ACB88C1691B02E5
:1010B4000A408283C26992B213439BB28383F0BD18
:1010C400046A384A8B8822404D880E8902848769D5
:1010D400354A36013A40324392B2046A1A43334BDA
:1010E40002831C4001232B4323439BB20384CA88FD
:1010F4002F4B81690B40038383699BB213430383A2
:10110400DDE7056A2B4A4C882A408B880E890284C5
:101114008769214A36033A4032431B0292B2056A78
:101124001A43254B24012B4023439BB2102492B233
:101134002343028303841A4ACB8881691B020A4031
:101144000283826992B213439BB20383B7E7056AB1
:101154001A4A8C882A404B880E890284C769124A2D
:1011640036013A40324392B2056A2243144C1B02C0
:101174002C401C438023A4B25B002343828303845A
:10118400CA880B4BC1690B408383C3699BB2134369
:10119400838394E7FFEF0000FF0C0000FF5F000073
:1011A400FFF30000FEFF00000CFF0000F5FF00004D
:1011B400F3FF0000EFFF00005FFF0000FFFE0000F0
:1011C400FFF5000000230122038043808280C38056
:1011D400038170474B88F0B55C425C41620057461E
:1011E40092468A884E464546E0B4551E6E1EB54169
:1011F4000226751B0E88002E4ED0076A4F4EBC4641
:10120400371C664637400C8907848669076AB046EE
:101214004B4EBC4647463740B846464627033743FD
:10122400BEB2484F120232431E013B1C67463B408C
:1012340033439BB21026334392B202830384424A5F
:10124400CB88816957460A4002838269190292B2A7
:101254000A4392B20283016A3C4A0A4002848669C4
:1012640022013B4C016A344014433A4AA4B20A4076
:1012740001210A4325431743ADB2058307848169DD
:10128400354A0A400283826992B2134303831CBC29
:1012940090469946A246F0BD0E89076AB2462B4E87
:1012A400BC46371C6646374007848669076AB046E1
:1012B400274EBC4647463740B846574646463F0148
:1012C4003743BFB23A430126224F90466246B446A2
:1012D4001740624613433B439BB24646068303844E
:1012E4001D4ACB88816956460A40028382692D02D1
:1012F40092B21A430283016A104A1B020A40028412
:1013040087690F4A016A174032033E1C16430D4A8F
:10131400B6B2114010221143354362010C1C144330
:10132400ADB2058304848169074A0A400283826955
:1013340092B213439BB20383A9E7C046EFFF0000B8
:10134400FF0C00005FFF0000FFF30000FEFF000041
:101354000CFF0000F5FF0000F3FF0000406B704736
:10136400806B7047C06B7047006C70478269044B98
:101374001340038383699BB2194301837047C046BA
:10138400F3FF00008269054B09021340038383695C
:101394009BB2194389B201837047C046FFF3000032
:1013A400C269044B13408383C3699BB2194381838D
:1013B4007047C046F3FF0000C269054B09021340A1
:1013C4008383C3699BB2194389B281837047C04642
:1013D400FFF30000C36800B59BB2002A02D18B431F
:1013E400838100BD19438181FBE7C0468182704738
:1013F40000690840431E9841C0B27047C94389B28E
:101404000182704700B50369C06882B200200B42B4
:1014140003D011404A1E9141C8B200BDC94389B2EC
:101424000182704711434823C1527047C36800B515
:101434009BB2002A02D18B43838100BD1943818171
:10144400FBE7C04600B5002904D14268044B1340B1
:10145400838000BD436808229BB213438380F8E76E
:10146400F7FF00008268024B134003817047C046B7
:10147400F8FF00008268054B13401943018183681B
:1014840007229BB2134303817047C0468FFF0000BD
:1014940070B5056A60291ED01B4C1B012C400484C6
:1014A40085691A4C066A254001242543ADB22B43B5
:1014B400174D9BB235402C43A4B2224303830284CC
:1014C4008268144B134019430181836807229BB23D
:1014D4001343038170BD104C2C40048486690F4C67
:1014E400056A26408024640026431C03331C2343DE
:1014F4000B4C9BB225401024254314012A1C224383
:1015040092B203830284DBE7FEFF00000CFF0000BD
:10151400F5FF00008FFF0000EFFF0000FF0C00004C
:101524005FFF000010B51B0284681A43FF231C40B0
:10153400224392B2114301818268034B1340772204
:101544001343038110BDC04688FF000010B51B0281
:1015540084681A43FF231C40224392B21143018141
:101564008268802392B2DB011343038110BDC0461D
:101574008268024B13401943018170478FFF0000BA
:101584004268044B1340838043689BB219438180B3
:101594007047C0468FFF00008268044B13400381EC
:1015A40083689BB2194301817047C046F8FF00006D
:1015B4008268044B1340038183689BB21943018101
:1015C4007047C0467FFF000030B58568FF242C407B
:1015D40021430A431B021A4392B2028130BDC04622
:1015E400F0B58768094C85693C402143084C066A7C
:1015F4002C400225FF352C43064D1B0135402A4360
:101604001A4392B2018104830284F0BDF8FF000002
:10161400FCFC000055FF000000B5002904D142681D
:10162400044B1340838000BD436880229BB2134364
:101634008380F8E77FFF00005023C1527047C04603
:1016440008B50E4B98420ED00D4B984200D008BD01
:10165400802080020121FFF7CBF880208002002146
:10166400FFF7C6F8F3E78020C0010121FFF7B2F8C5
:101674008020C0010021FFF7ADF8E8E70038014001
:1016840000440040036801229343F0B503604268BC
:101694001F4B0D1C896813400B43436002681D4BAC
:1016A40069681A40EB6889B00B432969041C0B4331
:1016B400134303608268184B13406A6913438360C1
:1016C40001A8FEF79FFF154B9C421FD0039E236881
:1016D400190400D576002F68301C391C00F05AFA22
:1016E400391C051C301C00F099FA7F080023B9420C
:1016F4005B41ED1823681A0404D5094A2B075B0FD4
:1017040015401D43ADB2A58109B0F0BD079EDEE7CB
:10171400FFCFFFFFF3E9FFFFFFFCFFFF00380140AD
:10172400F0FF000096239B0103600C22002343601A
:101734008360C360026143617047C0464268064BE0
:1017440010B51A400C684B6823438C68C96823435E
:101754000B431343436010BDFFF0FFFF00230360FE
:1017640043608360C360704700B5002904D10368F7
:1017740001229343036000BD026801231343036005
:10178400F9E7C04600B50368002A02D18B43036021
:1017940000BD19430160FBE700B50268002903D1CD
:1017A400044B1340036000BD80231B0213430360FA
:1017B400F9E7C046FF7FFFFF00B58268002903D127
:1017C400044B1340836000BD80231B0113438360DB
:1017D400F9E7C046FFF7FFFF00B54268002903D1CF
:1017E400044B1340436000BD80231B031343436039
:1017F400F9E7C046FFFFF7FF00B54268002903D1AF
:10180400044B1340436000BD8023DB021343436059
:10181400F9E7C046FFFFFBFF00B54368002A02D189
:101824008B43436000BD19434160FBE700B5426848
:10183400002903D1044B1340436000BD80231B02E5
:1018440013434360F9E7C046FF7FFFFF00B54268DA
:10185400002903D1044B1340436000BD80231B04C3
:1018640013434360F9E7C046FFFF7FFF43691B0E44
:101874001B06436143691943416170470269FF23B1
:101884001B021340038203699BB219430182704710
:1018940000B5002904D1036802229343036000BD0C
:1018A4000268022313430360F9E7C0468268034BCE
:1018B400134083608368194381607047FFFFCFFF43
:1018C40000B54268002903D1044B1340436000BDB6
:1018D40080235B0313434360F9E7C046FFFFEFFF38
:1018E4004268034B134043604368194341607047A7
:1018F400FFFF9FFFC905C90D01857047406AC005F8
:10190400C00D7047436809061B021B0A4360436805
:10191400194341607047C04600B50268002903D1ED
:10192400044B1340036000BD80239B0113430360F9
:10193400F9E7C046FFDFFFFF0268034B1340036073
:101944000368194301607047FFF7FFFF43681022E3
:1019540093434360436819434160704743682022BE
:1019640093434360436819434160704700B542683C
:10197400002903D1044B1340436000BD8023DB01E5
:1019840013434360F9E7C046FFBFFFFF00B50029DA
:1019940004D1836808229343836000BD82680823CE
:1019A40013438360F9E7C0460269FF2313400382AF
:1019B400036909029BB219430182704700B50029EB
:1019C40004D1836820229343836000BD826820236E
:1019D40013438360F9E7C04600B5002904D1836846
:1019E40010229343836000BD8268102313438360F5
:1019F400F9E7C0468268044B490413408360836856
:101A0400194381607047C046FFFFF1FF436909062F
:101A14001B021B0A43614369194341617047C04675
:101A24008368042293438360836819438160704709
:101A340000B5002904D1836802229343836000BD6A
:101A44008268022313438360F9E7C04600B58268C5
:101A5400002903D1044B1340836000BD8023DB01C4
:101A640013438360F9E7C046FFBFFFFF8268034B5F
:101A7400134083608368194381607047FF7FFFFFD1
:101A84000268044B4905134003600368194301606D
:101A94007047C046FFFF1FFC0268044B0904134053
:101AA40003600368194301607047C046FFFFE0FF0D
:101AB40000B58368002A02D18B43836000BD1943BB
:101AC4008160FBE78268034B13408360836819439A
:101AD40081607047FFDFFFFF10B5FF248BB2214008
:101AE40001248C401B0A211C022B0AD0032B0AD090
:101AF4000368002A02D18B43036010BD19430160BF
:101B0400FBE70430F4E70830F2E7C04600B5836928
:101B1400002A03D19BB28B43038300BD194389B2CE
:101B24000183FAE78268034B134083608368194397
:101B340081607047FFEFFFFFC0690840431E984172
:101B4400C0B2704701627047FF220A4010B50124F9
:101B54008BB294401B0A221C012B0FD0022B10D0F5
:101B640084682240C3690020002A06D0090C0120A1
:101B740088400340581E8341D8B210BD04682240F7
:101B8400F0E744682240EDE7090C01238B4003622F
:101B94007047C046002934D00123002210B4884283
:101BA4002CD301242407A14204D2814202D2090188
:101BB4001B01F8E7E400A14204D2814202D24900A9
:101BC4005B00F8E7884201D3401A1A434C08A0424C
:101BD40002D3001B5C0822438C08A04202D3001BE2
:101BE4009C082243CC08A04202D3001BDC082243F9
:101BF400002803D01B0901D00909E3E7101C10BC1D
:101C04007047002801D00020C04307B4024802A155
:101C14004018029003BDC046190000000029F0D00E
:101C240003B5FFF7B9FF0EBC4243891A1847C046F3
:101C34007047C04680B582B000AF164A164BD31A1F
:101C44009B103B6000237B6007E0134B7A68920093
:101C5400D35898477B6801337B607A683B689A4223
:101C6400F3D300F05BFB0D4A0D4BD31A9B103B6082
:101C740000237B6007E00A4B7A689200D3589847A8
:101C84007B6801337B607A683B689A42F3D3BD4634
:101C940002B080BD00000000000000000000000051
:101CA4000000000073B5802080020121FEF75AFD78
:101CB4000F4B9020012500240326009369466B46B0
:101CC400C0051D715E719C71DC71FEF74BFA8020BA
:101CD400291CC002FEF746FD0823009305486B4605
:101CE40069461D715E719C71DC71FEF73BFA73BD30
:101CF4008480000000040048F0B580208FB000010B
:101D04000121FEF73DFD802040000121FEF746FD44
:101D14009025C423ED059B00002401A90126022778
:101D2400281C019303234B710F718C71CE71FEF744
:101D340019FA0421281C0A1CFEF7B4FA281C3A1CC0
:101D44000821FEF7AFFA3A1C281C0921FEF7AAFA6B
:101D5400254B26491868FFF71DFF254F06AD254B77
:101D64000138291C2880381C07932C816C80FEF7CD
:101D740027FE09A96023381C0B804E808C608C815F
:101D8400FEF708FF381C311CFEF7A0FE381C211C8E
:101D9400FFF772F8381C311CFEF7C0FE381C311CEA
:101DA400154FFEF7E5FE154B381C291C2C806B6083
:101DB4002C816C80FEF704FE03AD221C231C381C0E
:101DC4000321FFF70DFC281CFFF7FCF90623381C40
:101DD400291C2B81FFF744F97C62381C311CFEF767
:101DE4009DFE0FB0F0BDC0462000002080841E0080
:101DF40000200040E7030000002C01400F0E00000B
:101E040008B5011C0148FEF7F7FF08BD002000409B
:101E140007B50190019A034B1A601A68002AFCD195
:101E240007BDC0462400002070B53C4C9025236AB1
:101E3400ED051B021B0A2362FFF734FF00F006F9CD
:101E4400374BFA2118688900FFF7A4FE354B013897
:101E54005860216AC0220902090A12060A43226252
:101E64009621072200249C6009021A60012000F0D8
:101E74002BF980262C4800F0C9F92E85FFF73CFF8A
:101E8400AE61E1239B00201E984202DDE120C000E8
:101E9400001BFFF7B5FF254A9023DB05244D1A8567
:101EA400FA200823AB614000FFF7B2FF2148FEF798
:101EB400E7FD214B020E1860204B00D120221A703E
:101EC400020CD2B2002A00D120225A70020AD2B2E5
:101ED400002A00D12022C0B29A70002801D0D87004
:101EE40001E02022DA700A22181C00261A715E71A1
:101EF40000F08CF9802290231202DB059A61FA200B
:101F040008232B8540003234FFF782FFE123E20FE0
:101F1400DB00A342564176423440B2E700ED00E0D4
:101F24002000002010E000E0132300080080FFFFE1
:101F340000040048002C0140280000203400002048
:101F4400044B00B51A68002A02D01A68013A1A60D4
:101F540000BDC04624000020354B13B5196801228A
:101F640011431960586833490F24014059601868B7
:101F740031490140196018683049014019605868B6
:101F84002F4908405860D86AA043D8621C6B2D487A
:101F940020401863586B80249043002258639A6051
:101FA4000092019218688022520202431A60A02211
:101FB400A402D200186820400190009801300090DB
:101FC4000198002802D100989042F3D11868802229
:101FD4009202024000D001220192019A012A26D1E4
:101FE400194A112010605A685A605A685A605A682F
:101FF400114059605968882252030A435A6019688B
:10200400802282400A4380211A6089041868084AA1
:102014000842FBD05168032081435160516802207B
:10202400014351600C215A680A40082AFBD113BDB0
:10203400001002400CB8FFF8FFFFF6FEFFFFFBFFA5
:10204400FFFFC0FFACFEFFFF0020024070B5144D3F
:102054000C236A68134C1340042B01D0082B02D0C4
:10206400114B236012E06E686B68B602360F0236BD
:10207400DA0302D40D4B5E4307E0E96A0F231940EB
:1020840001310948FFF786FD464326606B68084A1C
:102094001B061B0FD35C2268DA40226070BDC04669
:1020A400001002402000002000127A0000093D00C8
:1020B40010000020704700B5FEE77047704708B570
:1020C400FFF73EFF08BD0000F0B587B0041C019186
:1020D40001284ED1284F294B8020C001211C3B6090
:1020E400FEF74EFB9020C0050221221CFEF7DAF811
:1020F4009020221CC0050321FEF7D4F804AD02236E
:102104002B71902004230026291C0493C00503236B
:102114006B71AE71EC71FEF725F802239020291C37
:102124002B71C00508230493FEF71CF803A81B2396
:102134000370022343708470FEF7C6F8104B114AF3
:10214400114913603868FE33221C9E805E801E8114
:10215400DE80FFF7C1FC0D4D281CFFF7E3FA019B5D
:102164003868291C2B60FFF78DFA3868211CFFF7AB
:10217400FBFA07B0F0BDC046300000200038014033
:10218400600000202C00002005010500480000200C
:10219400FE30C2880389501C7F221040C01A431E9F
:1021A4009841C0B27047000070B5041C0E1CFFF7C4
:1021B400EFFF051E13D0231CFE33DB889BB272B6DF
:1021C400E2188032167001337F221340FE34E3801C
:1021D40062B6044B044918680122FFF77DFC281CF1
:1021E40070BDC046300000200701070070B5064EE0
:1021F400051C3468201CFFF7CBFF0028F9D0291CEC
:10220400201CFFF7D1FF70BD2C00002010B5041C6A
:102214002078002803D00134FFF7E8FFF8E710BD69
:1022240038B51E4C1E49201CFFF78EFC002815D023
:102234001C497F200B1CFE335A88013202409888C7
:10224400656AEDB2824205D1201C15490022FFF7D0
:1022540043FC03E0588880B20D545A800F4C124955
:10226400201CFFF771FC002817D00E4A131CFE3304
:102274001989D888884205D1201C0B490022FFF710
:102284002BFC0AE019895218803212787F21D2B2CD
:1022940022851A8901320A401A8138BD003801406A
:1022A4000501050060000020070107000D48854670
:1022B400002103E00C4B5B58435004310B480C4B9A
:1022C40042189A42F6D30B4A02E000231360043208
:1022D400094B9A42F9D3FFF73FFEFFF7ABFCFFF738
:1022E400A3FDFEE7001000203823000800000020B2
:1022F400240000202400002068010020FEE7303183
:102304003233343536373839414243444546004840
:10231400656C6C6F20576F726C640A00F8B5C04628
:10232400F8BC08BC9E467047F8B5C046F8BC08BC6B
:042334009E4670470A
:102338000000000001020304010203040607080963
:10234800000000000000000001020304060708095D
:04235800006CDC0237
:04000005080022B11C
:00000001FF
